:10000000E04300207165000001CA011001CA01101F
:1000100001CA011001CA011001CA011001CA011070
:1000200001CA011001CA011001CA011001CA011060
:0C00300001CA011001CA01103FCA0110F2
:100100003C0000000000000000000000340100007E
:1001100000000000000000000100000000000000DE
:1001200000000000000000000000000001000000CE
:0C013000000000000800000000000000BB
:10013C003400000000000000000000006801000016
:10014C0000000000000000000100000000000000A2
:10015C00010000000000000000000000080000008A
:04016C00000000008F
:1001700030000000000000000000000098010000B6
:10018000040000000000000001000000FFFFFFFF6E
:10019000FF00000001000000080000000000000057
:1001A0002C0000000000000000000000C40100005E
:1001B000040000000000000001000000FFFFFFFF3E
:0C01C000FFFFFFFF08000000000000002F
:1001CC0034050000E401000099A1011095A701106D
:1001DC00A5C2011009B2011045B8011000000000C1
:0801EC00000000002E000000DD
:1001F40028000000000000000000000014020000BD
:100204000000000000000000FFFFFFFF00000000EE
:080214000800000000000000DA
:10021C00300500003002000069C201106DC10110F0
:10022C001FC2011095BA0110000000000000000070
:04023C00300000008E
:10024000300500005402000075C20110A9B601106B
:100250009DBF011049B60110000000000000000021
:040260003100000069
:1002640024000000000000000000000080020000E4
:100274000000000000000000000000000800000072
:040284000000000076
:10028800240000000000000000000000A40200009C
:10029800000000000000000000000000080000004E
:0402A8000000000052
:1002AC00240000000000000000000000C802000054
:1002BC000000000001000000000000000800000029
:0402CC00000000002E
:1002D00000000000EC0C0020040000000000000002
:1002E000000000002000000070010000300000004D
:1002F0001C020000F40C00200400000000000000BC
:10030000000000000C000000300400001800000095
:1003100040020000FC0C002004000000000000006F
:100320000000000024000000480400001800000045
:1003300000000000040D0020040000000000000088
:100340000000000010000000A00100002C000000D0
:10035000CC0100000C0D0020040000000000000093
:1003600000000000200000006402000024000000E3
:10037000FFFFFFFF140D002004000000000000003C
:100380000000000028000000880200002400000097
:10039000FFFFFFFF1C0D0020040000000000000014
:1003A00000000000580000003C0100003400000084
:1003B000FFFFFFFF240D00200400000000000000EC
:1003C00000000000100000006004000018000000A1
:1003D000FFFFFFFF2C0D00200400000000000000C4
:1003E000000000001C000000AC020000240000001F
:1003F000FFFFFFFF340D002004000000000000009C
:100400000000000038000000F40100002800000097
:10041000FFFFFFFF3C0D0020040000000000000073
:100420000000000054000000000100003C0000003B
:100430001800000000000000000000004004000060
:080440000800000000000000AC
:100448001800000000000000000000005804000030
:08045800080000000000000094
:100460001800000000000000000000007004000000
:0804700008000000000000007C
:0804780001000000DC6500003A
:040484000100000073
:0404880000000C0064
:04048C0000000D005F
:040490003200000036
:040494000200000062
:04049800140B002021
:04049C00000200005A
:0404A0000000000058
:0404A40001CA011078
:0404A8000000000050
:0404AC00000000004C
:0404B0000800000040
:0404B4000000200024
:0404B800A80A00206E
:0404BC00010000003B
:0404C0000C0C002000
:0404C400080000002C
:0404C8000000000030
:0404CC00000000002C
:0404D0000000000028
:0404D4000000000024
:0404D8000000000020
:0404DC00010000001B
:0404E000440B0020A9
:0404E400060000000E
:0404E800010000000F
:0404EC00DC09002007
:0404F0000000000008
:0404F4000000000004
:0404F80000020000FE
:0404FC0000000000FC
:020502002A00CD
:020504000100F4
:020506002500CE
:020508003000C1
:02050A003100BE
:02050C002E00BF
:02050E000100EA
:0105100001E9
:08051400040000009C650000DA
:08051C000000000000000000D7
:0405240000000100D2
:0405280000000300CC
:04052C0087C401106F
:04053000380500008A
:040534003805000086
:0405380000000000BF
:04053C00800000003B
:040540008000000037
:0405440000000000B3
:040548000C0C002077
:04054C00031C00008C
:040550002000000087
:0405540088650000B6
:0405580080630000BC
:04055C000DC30110BA
:040560006D13000017
:040564006F13000011
:0405680099C801101D
:04056C009BC8011017
:040570000000000087
:04057400DA20000089
:040578009C62000081
:04057C00B462000065
:040580008462000091
:0205840008006D
:0205860009006A
:02058800010070
:02058A0000006F
:01058C00016D
:040590000000000067
:040594000000000063
:04059800000000005F
:04059C00000000005B
:0405A000FF11000047
:0405A40065120000DC
:0405A800E11000005E
:0405AC008F120000AA
:0405B00045110000F1
:0405B400FD10000036
:0405B8008D110000A1
:0405BC00D112000058
:0405C000811B00009B
:0405C400871D00008F
:0405C8008B1D000087
:0405CC000800000023
:0405D0002400000003
:0405D400180000000B
:0405D80028000000F7
:0405DC0020000000FB
:0405E0003C000000DB
:0405E4000C00000007
:0405E80034000000DB
:1005EC00DFF800F0F5C00110DFF800F049BA011097
:1005FC00DFF800F025C20110DFF800F0C1C20110D5
:10060C00DFF800F0E3BF0110DFF800F013C10110B8
:10061C00DFF800F0D5C00110DFF800F095C0011034
:10062C00DFF800F00DA80110DFF800F0BDBE0110DE
:10063C00DFF800F02DBF0110DFF800F0E1B501107C
:10064C00DFF800F0D5C20110DFF800F0D9C20110BC
:10065C00DFF800F0F1C50110DFF8D400007D704721
:10066C0038B5DFF8D400DFF8CC500068EFF3118414
:10067C0080F31188A8680021FFF7CEFF6969081A7A
:10068C00A969814238BF002084F3118832BD000073
:10069C002DE9F041DFF8A000DFF898400768EFF390
:1006AC00118887F31188A0680121FFF7B5FF01219C
:1006BC00A1830021E183656921682268461B801AA9
:1006CC00691A884204D20020A08388F311882AE09A
:1006DC0088F31188002005E04519361A29460120B7
:1006EC00FFF79EFF8642F7D2EFF3118887F311884C
:1006FC00E18B012903D129460020FFF791FFA16965
:10070C0010F1010F08BF084603D0801B814238BF8F
:10071C0008464119FFF788FF012020840020A083A0
:10072C00256088F31188BDE8F081808A704700004D
:10073C00A401002078010020D4650000DFF804102B
:10074C0009687047D465000000F00CBE80B500232A
:10075C0001223421DFF8CC0901F0C2F800B10120EC
:10076C00C0B202BDDFF8C41A0A68002812BF42F0FA
:10077C000100500840000860704700007047FEE719
:10078C0010B582B0042001F0EFF8022818BF03283E
:10079C000DD1032000901C234FF040520021DFF8B4
:1007AC00840901F07AF8BDE81640042066E0DFF811
:1007BC007C19DFF87C0A09680C18DFF87419DFF86B
:1007CC00800A0968B0FBF1F12046FFF715FF2046BF
:1007DC00BDE81640FFF714BF80B5DFF85809007864
:1007EC00DFF88C0901688908890041F0010101607A
:1007FC0001F0C7F801F051F9DFF878190020086012
:10080C000220DFF874190968C9688847DFF8340AD0
:10081C00016849084900016000F017FA042000F053
:10082C000FF900F0A2BC00000022012904D101281C
:10083C0007D1DFF8480903E0012802D1DFF8100ADC
:10084C00026810467047DFF8E8090079704700002D
:10085C0001F0ACB810B5DFF824160968EFF3118479
:10086C0081F31188DFF8C819C9880120012908BF54
:10087C00FFF76CFF84F3118810BD000030B5DFF872
:10088C00FC15DFF884390A68EFF3118182F31188C3
:10089C00B0FA80F2C2F11F02D25CB0FA80F4C4F15B
:1008AC001F04551EE55405D1DFF88429136823EA8B
:1008BC000000106081F3118830BD00002DE9F0417B
:1008CC00FFF73CFFEFF3118481F31188DFF8641913
:1008DC00425C531E435444D1DFF85C19DFF85C8949
:1008EC0001EB80052E786F88300618D5D8F80010EB
:1008FC00096A38468847D8F80010896A384688470C
:10090C00D8F80010096B38468847DFF83C190120ED
:10091C000860DFF8380900688007FAD514E0700623
:10092C0006D5DFF8981951F82710002088470BE0FE
:10093C00D8F80010896938468847D8F80010496BF8
:10094C00384688470228F8D106F03F003F2818BFE8
:10095C00FFF7B4FF687800F03F003F2818BFFFF79F
:10096C00ADFF84F31188BDE8F08110B508B1140017
:10097C0001D1032010BD8160C26003610146DFF824
:10098C00D428DFF8340912681018FFF751FE002044
:10099C0010BD0000F8B50446DFF8E004DFF8941849
:1009AC000068EFF3118580F31188625C531C63546B
:1009BC00002A3ED1DFF8801801EB8407387800F06C
:1009CC003F003F2818BFFFF7E5FF787800F03F00A5
:1009DC003F2818BFFFF7DEFF7E883878DFF85C7899
:1009EC00010613D53968C969304688473968496AA0
:1009FC00304688473968C96A3046884700F038F86D
:100A0C00DFF8480800688007FAD512E0400606D5E2
:100A1C00DFF8A81851F826100120884709E039683A
:100A2C004969304688473968496B30468847012800
:100A3C00F9D185F311882046BDE8F24001F08AB95E
:100A4C00DFF838140A68EFF3118182F31188DFF8AC
:100A5C00E027136803431360B0FA80F0C0F11F0065
:100A6C00DFF8A427835C5B1C835481F311887047E7
:100A7C00DFF8D41701200860704700002DE9F04F13
:100A8C004FF000080021012883B0C1468A4618BFE8
:100A9C00022412D1DFF8E403DFF81C780268EFF3CC
:100AAC00118082F311883A79012A06BF02223A7129
:100ABC00012180F3118809B10624BDE0FFF790FDF8
:100ACC000090012000F0DAF8040002D00120387107
:100ADC00AFE0FFF79DFDDFF810180190C1F8009012
:100AEC00012000F041FF012804D1002001F012F98F
:100AFC004FF00108DFF8C847DFF8385721688968DC
:100B0C000020884700F0A1F8687C08B14FF001097B
:100B1C00287C08B149F00209E87B08B149F00409C6
:100B2C00E87ADFF8146718B1A16AF08D096B884771
:100B3C00A87A18B1A16A708D096B8847FFF798FFE6
:100B4C0049F02000A16A896988470120FFF70AFE55
:100B5C003878C00748BF4FF0010A12D4DFF880077D
:100B6C0001F024F98346BBF1040FF7D000F067F8CD
:100B7C008008800008600321A26CDFF864075268CB
:100B8C009047002001F01AF900F05FF8A06A806B22
:100B9C008047BAF1000F0AD1A26CDFF84407526803
:100BAC005946904700F04BF840F0030008600120D4
:100BBC00216889688847DFF82C0700688006FAD519
:100BCC00B8F1000F1CBF012001F0A4F8A16A49691B
:100BDC0048468847A16A496B484688470128F9D19D
:100BEC00E87A18B1A16AF08DC96A8847A87A18B159
:100BFC00A16A708DC96A8847FFF73AFF0020FFF79A
:100C0C00B1FD03203871042000F038F8DFF8D81655
:100C1C000120086000F019F801F0DEF9082000F05E
:100C2C002DF80446012038710198FFF705FD01F0FD
:100C3C005EF90098FFF7D8FC2046BDE8FE8FDFF880
:100C4C00B806DFF8B41600687047DFF8B006006825
:100C5C007047000038B58948DFF85C560068EFF340
:100C6C00118480F31188E888012803D100F0F2FE8A
:100C7C000020E88084F3118831BD000038B500F005
:100C8C002AF80818FFF7C0FC002540B9204600F0F0
:100C9C0008F820B1DFF8680600688047022528466E
:100CAC0032BD70B500F017F80D182846FFF7C8FCD8
:100CBC000646B068204206D03169F268204690475B
:100CCC00C0B2012806D03046FFF7BEFC0646AE4245
:100CDC00EFD1002070BDDFF87C1509680446DFF801
:100CEC00D805704730BF704770B501F071F9DFF867
:100CFC0040552E6806F00C000C284BD0700727D4FA
:100D0C00FFF7AEFC044600210120FFF78DFDA04249
:100D1C001ED2DFF8140400684519DFF814040668C5
:100D2C00DFF8E0050068B0FBF6F0211A2846FFF763
:100D3C0063FC2846FFF764FC4FF47A70B0FBF6F2C4
:100D4C0000210120FFF79AFE2846FFF751FC23E013
:100D5C0030071FD4DFF8EC04DFF8E044DFF87C55F3
:100D6C00F10601685ABF4908490041F001010160D0
:100D7C00DFF88405016841F003010160202021683F
:100D8C008969884728682068806B80470120286023
:100D9C00286801E0FFF7A6FF01F01EF9BDE87040DE
:100DAC0001F0D0B810B50C1801F012F9401E8041BA
:100DBC00C00FDFF860150A68002AFCD024680122F5
:100DCC000A6008B101F008F9204610BD80B5042076
:100DDC00FFF736FE0820FFF733FE0E20FFF7DAFD93
:100DEC00DFF82405DFF824150068C0F381500328D0
:100DFC000CBF012000200880DFF8140502680AB13E
:100E0C00012002BDDFF8103540221A600122C261B8
:100E1C000020486002BDDFF8601310B50968DFF8E8
:100E2C00FC4482B00968202088470F2020600723EB
:100E3C0041F61D5060604FF4C0720220009000F02B
:100E4C00C9F8DFF8DC040121016001688907FCD5D1
:100E5C0001212161DFF8B4442188012907D1002147
:100E6C0001610220202100F091F8012004E0012111
:100E7C00002000F08BF80220606013BDD4650000E8
:100E8C002DE9F041DFF89C04DFF8804482B0016862
:100E9C0042688A43426001616068002804BFBDE873
:100EAC00F341FFF7B8BF0128DFF87C141AD10220F8
:100EBC00606008684BF2F52148436188000A11B163
:100ECC000021618006E0DFF864140968090210EB68
:100EDC0011204008DFF858140860000C486001200D
:100EEC0088600CE002280FD10868B0F5C06F02D101
:100EFC000020606045E00321616000F06FF8012183
:100F0C00BDE8FC41002041E003283DD10020606099
:100F1C000868A0F5C065A06800F0B2F8064628463F
:100F2C0000F0AEF886422CDAA669284600F0ACF840
:100F3C008019A061E56860697A4E85420ED0A76978
:100F4C00A7F1100000F09CF880462069103800F0E2
:100F5C0097F8804502DABFB200970BE0ADB200956E
:100F6C0008234FF47F423021304600F096FC206974
:100F7C0080B2009012234FF4F8020421304600F0A6
:100F8C008CFCBDE8F3418AE0BDE8F38170B50D46F9
:100F9C00DFF8A04382B0032121600021DFF89863C1
:100FAC00316031688907FCD480B20090052360223F
:100FBC0000F010F80120306030688007FCD5A56186
:100FCC00002020600821DFF85003C160016001207F
:100FDC00206073BD0021534800F05FBC70B506461D
:100FEC00504C82B030212046FFF7DCFEDFF81C535A
:100FFC00C0F30720E86004212046FFF7D3FEC0F3BE
:10100C0084402861A6F5C060A8602E6900F03CF809
:10101C008019A861A969E868022909DA401E6FF0F5
:10102C003F039842B8BF184610310BD5002109E098
:10103C001E2908DB401C4028A8BF3F20103920295E
:10104C00A8BF1F21A9616861082380B200904FF4EA
:10105C007F42302100F011F80120009011234FF451
:10106C00003200F009F8A86980B2009012234FF406
:10107C00F80200F001F873BD0421204600F00DBC0D
:10108C00002848BF4042704700284CBF6FF0010158
:10109C00022101EB4000032190FBF1F0704780B579
:1010AC00DFF87C020021016001688907FCD4002173
:1010BC00016041600120DFF8581208600E20FFF734
:1010CC00FDFB0820FFF7DAFBBDE802400420FFF728
:1010DC00D5BB000010B504460020D4E90A2347F61E
:1010EC00906100F07DFF012928BF4FF0FF3010BD4B
:1010FC0010B50C4600F0ECFF011D201AB0F1004FAA
:10110C0005D8081BB0F1004F38BF8C4200D20C46FA
:10111C00DFF82C221268526A2146BDE810400120EB
:10112C001047000000A00C40B8650000BC65000032
:10113C00D86500006E2800202DE9F04180460A4653
:10114C00D8E90A01D8E90C45A0FB026701FB02773C
:10115C00A6196F41340C002244EA07414046FFF7C0
:10116C00C7FFC8E90E67BDE8F0814FF0FF3002BD44
:10117C000440034040100940A0010010C865000065
:10118C00F8B50546DFF8BC01DFF8BC610068DFF894
:10119C00BC71EFF3118480F31188306840F080004B
:1011AC0030600120B96849688847F96A096A1420D7
:1011BC0088472869BA68526AB0F5802F34BF042179
:1011CC00010C012090473A681268232100209047B7
:1011DC00B968C96901208847306820F4E02040F4E0
:1011EC0080303060306840F00100306084F311884A
:1011FC00F1BDDFF86001036840680022002110187F
:10120C0059417047000000004C280020DFF83011D5
:10121C00DFF8280110B5096844684968012088473F
:10122C006069A169BDE81040084700000C20084027
:10123C001809002024280020CC620000B8010010FE
:10124C00A08601008C210840282008602820084036
:10125C00CC650000C0650000F8B504460D46FFF7EC
:10126C00C8FFD4E90A6732463B4600F0B9FE3DB1EF
:10127C00A6FB002306FB013307FB0033C4E90C2358
:10128C00F2BD38B5DFF8C040DFF8C4502068400824
:10129C0040002060206840F0800020600120E06267
:1012AC00E06A2968496801208847696A096A14203C
:1012BC008847E06A31BD000018090020D00C0020DE
:1012CC009001001080B500F004F8000C40EA0140D9
:1012DC0002BDDFF8840000688BE700002C20094079
:1012EC0000400340141009400C40094009B9DFF8D4
:1012FC006C10FFF7ADB90000242208402C200940E7
:10130C00C4650000D0650000B43F0050F00B002015
:10131C0004800C4000800C402C500C400C400C40C5
:10132C0034600C4028500C4008400C401020094000
:10133C003C600C4000400C4038600C40E401002044
:10134C008C010010D46500000020094084010010BD
:10135C008C01001008200940EC010020A0010000C5
:10136C00FEE7704710B5DFF86404046814F1010F50
:10137C0008BF002400F020FFDFF8541400200860A0
:10138C000120DFF850140860DFF84C140860DFF817
:10139C004C04006828B1DFF848040068204600F0CF
:1013AC0023F8DFF84004DFF840240168890889003D
:1013BC0041F0005141F005010160DFF83004016893
:1013CC006FF31B4111430160DFF824040168C1F382
:1013DC000131012907D10168DFF81824114041F4CB
:1013EC0000320260016010BD2DE9F84F0446DFF8B1
:1013FC00081401200860DFF8040401680029FCD0FF
:10140C00DFF8FC53DFF8FC83C0202860D8F80CA070
:10141C00D8F80810DFF8F00389075DBFD8F804107E
:10142C00090C41F0F00172210170DFF8E01309683A
:10143C00D8F80C20C1F304611629A8BF203901EBA0
:10144C002271491C6FF009029142B8BF114601F09C
:10145C001F0141F4F8510183CAF3C061DFF8B003F6
:10146C0081F001010160CAF3806181F001018160AA
:10147C0014B9DFF8A0732DE0DFF89C030068C0F30B
:10148C0083615FEA8A32C0F38F2021D44FEA0A428B
:10149C0012160AD54FF6FF73400804D118464908B6
:1014AC0004BF01210120521CF6D4012A10DB40009C
:1014BC0040F00100B0F5803F21BF0120490041F010
:1014CC000101102924BF0F214FF6FF70521EECE7CB
:1014DC0040EA014700F07CFD401E8041C00FCF4E1A
:1014EC0031680029FCD0DFF83893C9F8107001215D
:1014FC00316008B100F070FD0CB9D82008E0C64A84
:10150C0010681168C0F3870001F0030140EA012064
:10151C00009040F2FF3700233A462C21C14800F0DE
:10152C00BCF91CB1BC48C06A8704BF0C00F050FD6C
:10153C00401E8041C00F31680029FCD0C9F81470DE
:10154C000121316008B100F047FD002C0FBFB64FF0
:10155C00B148406A20F0033700F03AFD401E80414C
:10156C00C00F31680029FCD0C9F80C700121316022
:10157C0008B100F031FD0CB9AC4F04E0A648AC4901
:10158C00006A01EA000700F023FD401E8041C00FF5
:10159C0031680029FCD0C9F808700121316008B10C
:1015AC0000F01AFD0CB9A34F20E09B48806AD8F8D4
:1015BC000830DB07C0F30352C0F303410BD4D8F857
:1015CC0004301F0502EB27721B0482F3040201EBAB
:1015DC00237181F30401090441EA025182B242EA07
:1015EC000107222C24BF00F08040074300F0F0FCE0
:1015FC00401E8041C00F31680029FCD0C9F804702E
:10160C000121316008B100F0E7FC2220222C824F2E
:10161C0006D3F86B000F00F00100400040F02000F2
:10162C00854908721120222C05D3F86B400F00F06D
:10163C00010040F01000202C08724FF0000B07D373
:10164C00B86CC10C01F44071C0F3845040EA010B3A
:10165C0000F0BEFC401E8041C00F31680029FCD058
:10166C00C9F820B00121316008B100F0B5FC602050
:10167C00202C06D3B86C000D00F00300400040F0A5
:10168C0060006D49C8728020222C06D3F86BC00E06
:10169C0000F00100C00040F080000870222C4FF4D4
:1016AC007C4006D3F86B400D00F03F00800040F406
:1016BC007C406249DFF888B10880202C0AD3B86CD2
:1016CC000203810A02F47C1242EA815100F00F00FD
:1016DC0041EA003B00F07CFC401E8041C00F3168A9
:1016EC000029FCD0C9F800B00121316008B100F02C
:1016FC0073FC544844210170882181700CB930214D
:10170C0005E0F96BC90C01F0030141F03001C17027
:10171C004FEA9A5010F0030003D002283CD012D3A9
:10172C003CE00121042000F0FDF843F2BD70E863B9
:10173C008620286401206864434801680029FCD095
:10174C00002068642EE0012000F00EF904462146CA
:10175C00042000F0E7F8042000F006F9A042FAD1CA
:10176C00D8F800301802000A81B2E963000C286432
:10177C0001206864344801680029FCD000206864AA
:10178C004FF06022180E314B1B681B6807219847DD
:10179C004FF48060C9F83800032100E002210420D6
:1017AC0000F0C0F8F8692A4900F03F00087047F6CD
:1017BC001800284908801049274800680020286034
:1017CC000860012025490860BDE8F18F1C1300500A
:1017DC00840460425C600C4008220443800128436E
:1017EC00000120430440034000003901482003401D
:1017FC0004000940FFFFFCFC101009409402224336
:10180C0000600C40A83F005056620840B8120050CF
:10181C0000002043FF0F0F005013005000800C40BD
:10182C0008A00C4000A00C40000088688A76680074
:10183C00FFFFFC00273F710041A10C40DCA10C40D4
:10184C0000803F4005A10C4084088C43B40100107B
:10185C000BB00C4070B00C402C200940940460423A
:10186C0038B504460D4600F0B3FB401E8041C00F56
:10187C001A490A68002AFCD0012D02D0022D02D090
:10188C0003E0247802E0248800E0246801220A6046
:10189C0008B100F0A1FB204632BD38B500EB410089
:1018AC00102B00F5007402D3103B241D120C04986D
:1018BC00984040EA024500F08BFB401E8041C00F6F
:1018CC0006490A68002AFCD0256001220A6000281B
:1018DC001CBFBDE8314000F07FBB31BD00800C4027
:1018EC0038B51D460818102D144602D3103D801C27
:1018FC00240C0221FFF7B4FF04EA000188B2E8408F
:10190C0032BD50F8041B61B150F8042BD30744BF0F
:10191C00A9F101039A180023091F42F8043BFAD1DC
:10192C00EFE7704738B50446E0070D4607D5A8B277
:10193C0000900023012200216B48FFF7AEFFA007A7
:10194C0007D5A8B200900123022200216648FFF7B8
:10195C00A4FF600707D5ADB2009502230C2200212D
:10196C006148FFF79AFF31BD0146042907BF1D23CB
:10197C004FF0C0421C234FF080525B483421FFF7DC
:10198C00AFBF10B5594C2168896801208847584869
:10199C0001688906FCD521690968402088472169BE
:1019AC008968402088471128F9D110BD70B50546CB
:1019BC0000F08EFB4F4C6168401A4FF47A7148432B
:1019CC00060C00F003FC2169401A48BF4042711913
:1019DC0040F6B932914207D2062805DAA068E168D0
:1019EC00814201D3226852B943494A68D2074FF465
:1019FC00FA6016D40868C0B27D21484308E0081A82
:101A0C003E494843000C00EB9000904238BF104612
:101A1C00C82801D2C82070BDB0F57A6F88BF4FF4CA
:101A2C007A6070BD10B582B00120009000232E4C5E
:101A3C00012219462046FFF730FF01200090034693
:101A4C00022200212046FFF728FF00F041FB294924
:101A5C00886013BD80B50120FFF786FF01281AD0DE
:101A6C000023012234212048FFF73AFFA0B124487B
:101A7C000068804700F02CFB1E498B680A68C86020
:101A8C00A2EB9202C01A1D4B5843000C0860904206
:101A9C0038BF10460860012002BD10B582B000208E
:101AAC0000900146104C002301222046FFF7F5FE62
:101ABC00002000900146012302222046FFF7EDFE94
:101ACC001C234FF0805234212046FFF709FF10B140
:101ADC000B4800688047074C00F0FAFA606000F091
:101AEC0075FB206113BD000000A00C40900100109C
:101AFC001410094038280020AC3F005040420F0021
:101B0C0080000010DFF800F049C10110DFF800F090
:101B1C0019C20110DFF800F00DC30110DFF800F05E
:101B2C0081C60110DFF800F095B70110DFF800F066
:101B3C008DC20110DFF800F03DC20110DFF800F09B
:101B4C0009C30110DFF800F045C00110DFF800F008
:101B5C00D1C70110DFF800F067BE0110DFF800F00C
:101B6C0021B30110DFF800F011C80110DFF800F00C
:101B7C0021C801100C2811D0192814D01D2817D0F9
:101B8C0020281AD021281DD0252820D02A2823D05F
:101B9C002B2826D02C2829D000207047DFF8E40110
:101BAC00006800687047DFF8DC0100684068704727
:101BBC00DFF8D001006880687047DFF8C801006862
:101BCC00C0687047DFF8BC01006800697047DFF837
:101BDC00B401006840697047DFF8A8010068C0696B
:101BEC007047DFF8A0010068006A7047DFF89401C5
:101BFC000068406A704700B58BB00A2100A8FFF757
:101C0C0089FF0BB000BD00B581B0FEF79DFDDFF87C
:101C1C007801DFF878110068884218BF00F034F8BA
:101C2C00DFF86C01B0F5B26F03D001B05DF804EBD6
:101C3C002BE001B000BD00B581B00FF22100FFF721
:101C4C006DFFFFF76FFFFFF771FFFFF773FF01B039
:101C5C005DF804EBFFF772BF0000000000B581B027
:101C6C00FEF7D6FCFEF7BCFC01B05DF804EB0320DC
:101C7C00FFF768BF10B504460320FFF763FF20464B
:101C8C00BDE81040FFF762BFFEE7FEE700B581B08C
:101C9C00FFF760FFDFF8FC00C06801B05DF804EBF3
:101CAC00FFF75CBFDFF8F010DFF8F00088617047D9
:101CBC00DFF8EC1001280CBF40F2FF700020086028
:101CCC000020704730B581B0FFF71CFFDFF8D4500F
:101CDC000446E88820B1FFF7BDFE60B10020E88023
:101CEC00FFF774F805461020FEF7C8FF012D0BD145
:101CFC00FFF791F808E0052105F13000FEF77CFCB8
:101D0C0005F13000FEF77CFC204601B0BDE8304008
:101D1C00FFF7FCBE10B5012818D1FFF725FE0128EE
:101D2C0016D0FFF77FFEDFF87C400120E08004F145
:101D3C003000FEF75DFC052104F13000FEF75CFC81
:101D4C0004F13000FEF75CFC002010BDFFF7A5FE8F
:101D5C00002010BD10B501240E2805D10120FFF77D
:101D6C0003FE012805D003E0DFF83C10405C00B90D
:101D7C000024204610BD00207047FFF7F3BEFFF78C
:101D8C00F5BE0000F001002098CA01107047282011
:101D9C0090050000780100204401002000040000A0
:101DAC0000000460180900202428002000680107A6
:101DBC0001D50420704700F003007047F8B50546C4
:101DCC007748784C0068800705D50820A0717649C3
:101DDC0076480860F1BD00F0F9F9754A12680021E7
:101DEC0012F0030F18BF0121520748BF41F0020146
:101DFC000DB141F0040194F90720821A052A02DA88
:101E0C00A279914259D0A0F10F0200250023002A9B
:101E1C001FD402EB02121312082B28BF07231D46F6
:101E2C00072D28BF0625634E06EB850756F825506F
:101E3C007F687E1BF5B24F0744BFC6F307277D1999
:101E4C008F0744BFC6F307477D19CF0748BF05EB83
:101E5C001665584E56F82370FEB25FEA417C44BFBB
:101E6C00C7F3072C66445FEA817C44BFC7F3074C79
:101E7C0066445FEAC17C48BF06EB1766A2EB0322FF
:101E8C006A434D4B1D681B68A1718032092A92412F
:101E9C002D17C5F108053427D243DBB27D436B43C4
:101EAC0006EBD272B3FBF2F2B2F5803F28BF4FF6CD
:101EBC00FF7200F30700A280E07140480068A1881F
:101ECC00206000201F2904D21F21A18004E04908B2
:101EDC00401CB1F5007FFAD20F39090940EAC10064
:101EEC00314A37490843106000205060F1BD10B5ED
:101EFC003448006884B224B300F068F9294991F998
:101F0C000720904205DA6FF07F029042B8BF10466E
:101F1C00C8718888844201D28C8010BD274A12680F
:101F2C000B68D21A921C202A28BF1F22231A52088F
:101F3C0023FA02F42018B0F5803F28BF4FF6FF704B
:101F4C00888010BD2048006800B9704710B41F4944
:101F5C008A6802F04063B3F1406F1ED04B689B0758
:101F6C001BD40F4B1C680968C1F303511C310901C8
:101F7C0014F0050F06D088420FD224F0050018602B
:101F8C0010BC7047814208D2100158BF44F00104C4
:101F9C00500158BF44F004041C6010BC7047000092
:101FAC00000009405428002030100940FDFDA40019
:101FBC00242208409C130050B43F005008200940D4
:101FCC0000FFA4803410094028500940AC3F005059
:101FDC00EFF3108072B67047EFF3108062B6704763
:101FEC001B4213D1094236D12AB18446B0FBF2F020
:101FFC0002FB10C2704700F0FDB8FCD30022002396
:10200C0070470B000200002100207047904271EBDA
:10201C00030CF6D370B5B1FA81F4B3FA83F52C1B2B
:10202C00A340C4F1200532FA05F63343A2405FF019
:10203C000046E64002E05B085FEA3202841A71EB6C
:10204C00030524BF204629467641F4D302000B0039
:10205C003000002170BD012ACFD970B5140C20D0EE
:10206C00B1FA81F4B2FA82F5C4F120046419B4F126
:10207C002006D6D3B2405FF00044F440002502E0C5
:10208C0052085FEA3303C61A71EB020E24BF3046C6
:10209C00714664416D41F3D302000B00200029000E
:1020AC0070BD0C46B1FBF2F102FB11452D0445EA63
:1020BC001045B5FBF2F402FB145580B240EA05451D
:1020CC00B5FBF2F002FB105240EA044070BD000078
:1020DC0038B5FFF77DFF06490C684D68401E8041FE
:1020EC00C00F18BFFFF778FF280C40EA044032BD40
:1020FC00082009402D480068000C00F00700032858
:10210C0028BF4FF0FF30704729490968C1F30F31E0
:10211C004BF69A1291424FF0FF3001D100207047DC
:10212C004BF6BE12914201D1012070474BF6203282
:10213C00914208BF0220704710B41D491D4B0A681C
:10214C001B680968120FDBB2802B28BF0023C1F378
:10215C000F314BF69A14A1424FF0FF300CD1012AEB
:10216C0008D0032A1DD0072A1DD0082A08BF03F166
:10217C00160013E00A2011E04BF6BE14A14206D162
:10218C00002AF7D0022A09D103F1140006E04BF61D
:10219C002034A14204BF002A03F10A0010BC40B253
:1021AC0070471420FAE71520F8E70000941200504D
:1021BC0018130050A010005080B5FFF7A5FF18B9F8
:1021CC00FFF7BAFF162800DAFEE701BD0748816861
:1021DC00C903C913064A92F900200068A0F54070A3
:1021EC005043B1EB2010803000127047285009404A
:1021FC000C13005070470000DFF800F0D9C101103B
:10220C00DFF800F041AC0110DFF800F025B101104F
:10221C00002804D008233C220021FFF7EDBF7047B3
:10222C003EB504460D460820ADF800000120ADF87F
:10223C00020000A8DFF8781B09688847BDF8041075
:10224C002180029929603EBD00B583B00821ADF80C
:10225C0000100321ADF80210019000A8DFF8501B0C
:10226C000968884707BD70B584B004460D4616460C
:10227C000820ADF800000920ADF8020000A8DFF836
:10228C00301B09688847BDF804102180BDF8061082
:10229C0029800299316004B070BD00B583B008216B
:1022AC00ADF800100A21ADF80210019000A8DFF87B
:1022BC00001B096888470EBDF8B50E461746002569
:1022CC00014640F20132891A32D0491E3BD0491ED8
:1022DC0044D0891E4BD0491E00F0A580491E00F049
:1022EC00AB80491E00F0C480491E00F0DD80491E01
:1022FC0000F0E580491E00F0ED80491E00F0F580ED
:10230C00491E00F0FD80C91E00F00581491E00F039
:10231C000D81491E00F01881491E00F02381491ED1
:10232C0000F02C81491F00F03881891E46D04FE106
:10233C00102E06D110223946DFF8780A00F04AFD3B
:10234C0050E118254EE1102E06D110223946DFF847
:10235C00680A00F03FFD45E1182543E1042E04D145
:10236C003868DFF8581AC8623CE118253AE1012EAA
:10237C0022D1DFF8484A2079012850D0E07839780A
:10238C00E17000280CD000290AD16078022802D014
:10239C00052840F02781208AC0B201F01BF821E10A
:1023AC00002840F01F81002900F01C816078012872
:1023BC0031D004282AD12EE0182513E1012E30D17A
:1023CC00DFF8F849E078012829D020793978217193
:1023DC0000280ED000290CD16078032804D00728DF
:1023EC0002D0052840F0FE80208AC0B200F0F2FF37
:1023FC00F8E0002840F0F680002900F0F3806078C7
:10240C00012808D0042806D0062804D0204640789D
:10241C00052840F0E780012000F0C2FCE2E0122524
:10242C00E0E01825DEE0022E04D13888DFF88C19A4
:10243C008882D7E01825D5E0202E17DADFF87C4902
:10244C0004F1CC0500221F21284601F097F93246F1
:10245C003946284600F0BEFC66712B4632460121F7
:10246C00208AC0B200F08DFF0546BBE01825B9E00C
:10247C00202E17DADFF8444904F1EC0500221F2165
:10248C00284601F07BF932463946284600F0A2FC7A
:10249C00A6712B4632460021208AC0B200F071FF93
:1024AC0005469FE018259DE0012E06D138780528B9
:1024BC0003DADFF80819C87194E0182592E0012EB0
:1024CC0006D13878042803DADFF8F018087289E0AE
:1024DC00182587E0062E06D106223946DFF8E008DB
:1024EC0000F078FC7EE018257CE0012E06D13878CF
:1024FC00082803DADFF8C418487273E0182571E075
:10250C00012E06D13878042803DADFF8B018887267
:10251C0068E0182566E0012E06D13878022803DA27
:10252C00DFF89818C8725DE018255BE03888022E39
:10253C0008D1811F40F67B42914203D2DFF87C1810
:10254C0008834FE018254DE03888022E08D1811FF2
:10255C0040F67B42914203D2DFF86018488341E099
:10256C0018253FE03888022E06D1B0F5FA7F03DA41
:10257C00DFF84818888335E0182533E03888022EB8
:10258C0009D1A0F10A0140F67742914203D2DFF85B
:10259C002C18C88326E0182524E0012E16D1387893
:1025AC00012813D1DFF8144804F1800001F09EF9E2
:1025BC00002809D1284600F098FB050012D104F13F
:1025CC005C0001F09DF90DE016250BE0182509E0E3
:1025DC00272806DA022E04D1398800F004FF0546BC
:1025EC0000E002252846F2BD38B50D460024014610
:1025FC004FF44072891A44D0491E47D0491E4CD022
:10260C00491E51D0491E54D0491E59D0491E61D083
:10261C00491E64D0491E6BD0491E72D0491E75D01C
:10262C00491E78D0491E7DD0491E00F08080491E7D
:10263C0000F08280891E00F08480491E00F08680A4
:10264C00491E00F08880491E00F08A80491E00F067
:10265C008C80491E00F08E80491E00F09280491E2D
:10266C0000F09480491E00F09680891E00F09D8039
:10267C00491E2AD0491E00F09380491E00F09A8012
:10268C009DE0DFF83807807828709FE01022DFF893
:10269C002417284600F09EFB98E01022DFF818174C
:1026AC00284600F097FB91E0DFF81007C06A28601D
:1026BC008CE00622DFF80C17284600F08BFB85E037
:1026CC00DFF8F806C078287080E0DFF8F0060079B3
:1026DC0028707BE0DFF8E406808A288076E0DFF85B
:1026EC00DC06427900F1CC01284600F073FB6DE06A
:1026FC00DFF8C806827900F1EC01284600F06AFB8D
:10270C0064E0DFF8B806C07928705FE0DFF8AC064B
:10271C00007A28705AE00622DFF8A416284600F04A
:10272C0059FB53E0DFF89406407A28704EE0DFF84E
:10273C008C06807A287049E0DFF88006C08A2880F1
:10274C0044E0DFF87806C07A28803FE0DFF86C06BA
:10275C00008B28803AE0DFF86406408B288035E057
:10276C00DFF85806808B288030E0DFF85006C08BED
:10277C0028802BE00622DFF85016284600F02AFBB2
:10278C0024E0DFF83806008C28801FE0DFF82C06E8
:10279C00408C28801AE0DFF82406808C288015E015
:1027AC00DFF81806007B287010E0DFF81006407880
:1027BC0028700BE0DFF80406407B287006E0272821
:1027CC0003DA00F029FE288000E00224204632BD06
:1027DC0080B5DFF8E8154A78002A06D1002800D029
:1027EC00086300F05CFA002002BD112002BDDFF886
:1027FC00CC054178062901D0072905D11322C18ABD
:10280C00008AC0B200F09ABD1220704700B58FB09C
:10281C0000A8FFF7FDFCDFF8B40500F150010791AB
:10282C004FF4DC71089103210691002300AA0FF2EA
:10283C00C901FFF7E9FC0FB000BD7CB5DFF87C45A2
:10284C0004F1280104F11000FFF7EAFC002060708D
:10285C004FF6FF70E08200F0FCFD20700FF2715516
:10286C00012001900020009003460246294604F105
:10287C00380000F0F5FF0220019000200090034684
:10288C000246294604F15C0000F0EAFF04200190A6
:10289C000020009003460246294604F1800000F017
:1028AC00DFFF0420A07004F1A405002210212846AB
:1028BC0001F064F804F1B40600221021304601F056
:1028CC005DF80020E062E071207207206072002049
:1028DC00A0722A461021022000F0FCFE3246102184
:1028EC00032000F0F7FE04F12C020421084602B08C
:1028FC00BDE8704000F0EEBE10B586B0FFF79DFF4E
:10290C00DFF8B84436E0E0798DF80800207A8DF8CD
:10291C000900062204F586710DF10A0000F05AFA3E
:10292C00607A8DF81000A07A8DF8110002A9208A27
:10293C00C0B200F022FD002809D008206070206B86
:10294C00002804D00168080001D008208847608A5C
:10295C00810706D54FF6FD7108406082002000F01B
:10296C00C4F9608A410705D54FF6FB7108406082B7
:10297C0000F0A7F94FF0FF30FFF78FFC002829D1AA
:10298C000020009000AA0DF1060101A8FFF76BFCD6
:10299C0000281FD1BDF80400102816D1BDF8060080
:1029AC00218A884211D1009801884FF6FF7291421A
:1029BC0009D14088400408D504F12C0204210846B2
:1029CC0000F0A3FE01E000F016F80098002801D0FA
:1029DC00FFF73AFC608AC107B9D54FF6FE71084083
:1029EC0060822079E1780143B1D000288BD003209C
:1029FC008DF8080094E710B50178A22904D0D029ED
:102A0C001ED1BDE810401DE04179132918D1DFF823
:102A1C00AC430089012809D1A07B022806D104F11E
:102A2C00800000F06DFFBDE81040E0E6052000F0EE
:102A3C00F3FC014604F18000BDE8104000F03ABF01
:102A4C0010BD000070B505460026A878DFF86C4371
:102A5C0001460F2900F21681DFE811F01000140175
:102A6C003500600060009300C700F40014011401ED
:102A7C0014011401140114011401100168780028C8
:102A8C001BD104F1A4021021022000F03EFE04F13F
:102A9C00B4021021032000F038FE0622E91C04F1D8
:102AAC00C40000F097F90120607004F1CC03627946
:102ABC000146208AC0B200F064FC002801D0082036
:102ACC0060700126DEE0687800281FD1E8780028C5
:102ADC0009D004F1EC03A2793146208AC0B200F08F
:102AEC0050FC687012E0607802280FD007280DD0D7
:102AFC00062802D12079012808D104F1380000F011
:102B0C00F5FE002802D1012000F04AF9687800286F
:102B1C0000F0B880082060700126B3E069780029C5
:102B2C002BD103280ED16078062802D107206070C3
:102B3C0025E0E078002802D0022060701FE003201E
:102B4C0060701CE0A18AE078002907D0227910433C
:102B5C000AD004F1380000F0ADFE05E00128304643
:102B6C0001D1E07000E020716078072802D10620C6
:102B7C00607004E00420607001E0082060700126A1
:102B8C0080E06878002825D10622291D04F58A707A
:102B9C0000F020F96889E08206206070E8892084C2
:102BAC00288A6084688AA084E8782073E07A0128F7
:102BBC0009D11F2000F030FC4FF47A71414304F12D
:102BCC005C0000F077FE04236A89291DE87800F088
:102BDC0082FA08E0312804D13046E070042060709D
:102BEC0001E00820607001264CE0A88800F097FAFC
:102BFC003246062104F58A7000F0C0FD3046208470
:102C0C006084A084A879607304F15C0000F078FE05
:102C1C0004F1800000F074FE01264FF6FF70E08294
:102C2C002079002802D0032060702BE0A8790828B6
:102C3C0002D10520607001E004206070304600F085
:102C4C00AFF81FE004F1800000F05AFE687800280D
:102C5C0018D1E8882084288960846889A08404F1CC
:102C6C005C0000F043FE00280CD1636B002B09D0F4
:102C7C00A28C618C208C1B68984703E00521A888E6
:102C8C0000F0ADFB012E09D1206B002806D00168A5
:102C9C00080003D06078BDE87040084770BD00B5EF
:102CAC0083B0464800F12C01019100F1B401009170
:102CBC0000F1A40300228178008AC0B200F00AFB64
:102CCC0007BD80B53D48817B012902D0022909D07E
:102CDC0001BD01210091C38B828B418B008B00F0D5
:102CEC0038F801BDBDE8014081E5FEB50446334D21
:102CFC00288C298B88420AD3698B814207D3688C34
:102D0C00A98B884203D1A88CE98B88421ED0052060
:102D1C0000F082FB0646E88AADF80000288BADF87F
:102D2C000200688BADF80400A88BADF80600E88BA8
:102D3C00ADF8080000A800F0FCFA070007D1AC734E
:102D4C00314605F1800000F0B5FD00E0182738464B
:102D5C00FEBD70B5194C6578062D01D0142070BDE0
:102D6C0040F67A45861FAE4218D28E1FAE4215D25F
:102D7C00B2F5FA7F12DAA3F10A0540F67646B542AF
:102D8C000CD220836183A283E3830498FFF7ADFF09
:102D9C0004F15C0000F0B4FD002070BD182070BD83
:102DAC0006494A8A10434882886AFFF729BA00000C
:102DBC00480D0020E8070020F807002044070020F9
:102DCC005008002008080020580800202C21002062
:102DDC00E6E7000062B38B0708D0521E11F8013BE6
:102DEC0000F8013B00F024808B07F6D1830740F0FC
:102DFC00208000BF103A07D330B4B1E83810103A35
:102E0C00A0E83810F9D230BC530724BFB1E8081041
:102E1C00A0E8081044BF51F8043B40F8043BD2072B
:102E2C0024BF31F8022B20F8022B44BF0B7803701F
:102E3C007047083A07D3B1E80810083A40F8043B49
:102E4C0040F804CBF7D25307E4E70000E0B50821C3
:102E5C00ADF800100221ADF80210019000A8DFF8C7
:102E6C006C1409688847002801D000200EBD029818
:102E7C000EBD00B583B00821ADF800100321ADF8EC
:102E8C000210019000A8DFF844140968884707BDB8
:102E9C001FB50824ADF80040ADF80240ADF80400B1
:102EAC00ADF806108DF80820039300A8DFF81C1469
:102EBC000968884704B010BD30B585B014461D466E
:102ECC000822ADF800201922ADF8022001900291E1
:102EDC0000A8DFF8F81309688847002C02D0BDF869
:102EEC000C102180002D02D0BDF80E102980049901
:102EFC00089A116005B030BD00B583B00820ADF85C
:102F0C0000001A20ADF8020000A8DFF8C013096811
:102F1C008847002802D1BDF804000EBDFF200EBD6D
:102F2C00E0B50821ADF800102021ADF80210ADF885
:102F3C00040000A8DFF8941309688847002801D121
:102F4C0002980EBD00200EBDE0B5ADF800000020CB
:102F5C00ADF80200ADF8061000A8DFF87013096890
:102F6C008847002802D19DF808000EBDFF200EBD39
:102F7C00002801D10020704710F1040F01D104206A
:102F8C00704710F1030F01D10220704701207047E8
:102F9C00812303700023C37042EAC11141F47C41C8
:102FAC0081807047822303700023C37081808271FB
:102FBC00704738B504460D461020FFF7B1FF0028C6
:102FCC0002D06FF0040032BD009500231A46214652
:102FDC004FF0FF30FFF770FF32BD10B582B01446D2
:102FEC00CA78012A03D18A88DFF8E4321A800B46AA
:102FFC0002221021FFF74CFF00280DD10020009079
:10300C0000A92046FFF7D5FF002805D10098447889
:10301C00FFF72FFF204616BDFFF7AAFF16BD38B5E8
:10302C0015461C460B4602221021FFF731FF0028E3
:10303C0019D10020009000A92846FFF7BAFF0028FC
:10304C0011D100984578002D08D1C079A04205D146
:10305C002246009881680498FFF7BCFE0098FFF7A1
:10306C0008FF284632BDFFF783FF32BDF8B5044692
:10307C000D4616460A20FFF7E9FE070011D032462E
:10308C002946FFF78FFF21465020FFF75DFF38726E
:10309C00FFF732FF3B460222102101B0BDE8F040A1
:1030AC00F6E6F1BD10220121E0E738B504460C200C
:1030BC00FFF7CCFE05000DD004220121FFF772FFB3
:1030CC00AC60FFF719FF2B460222102101B0BDE8BE
:1030DC003040DDE631BD2DE9F04104460D46164683
:1030EC001F461420FFF7B2FE8046B8F1000F13D034
:1030FC0014220121FFF756FF88F80840C8F80C503D
:10310C00A8F8106088F81270FFF7F6FEDFF8AC2311
:10311C004146BDE8F04160E70420BDE8F08138B5D8
:10312C0004460A20FFF792FE05000DD0152201215E
:10313C00FFF738FF2C81FFF7DFFE2B460222102110
:10314C0001B0BDE83040A3E631BD00219AE02DE985
:10315C00F04104460D4616461F461420FFF776FE36
:10316C008046B8F1000F13D002220421FFF71AFF9A
:10317C00C8F80840A8F80C5088F80E60C8F8107011
:10318C00FFF7BAFEDFF84C234146BDE8F04124E7D7
:10319C000420BDE8F0811022022167E7F8B504464F
:1031AC000D4616461020FFF751FE07000ED01522D3
:1031BC000221FFF7F7FE3C81BD72FE60FFF79CFE1B
:1031CC00DFF814233946BDE8F84006E70420F2BDC9
:1031DC00002203213EE000B583B00FF245030193BA
:1031EC0006230093032300F050F80EBD10788028BE
:1031FC000DD1508840F27F61884208D19088984266
:10320C0005D191790098814201D1012070470020AD
:10321C00704710B582B006240094FFF7E7FF16BD87
:10322C000323F6E71078802812D1508840F27F6192
:10323C0088420DD19088032801D0042808D19079B8
:10324C00002803D0102801D0112801D1012070478B
:10325C0000207047F8B504460D4616460C20FFF7C3
:10326C00F5FD07000CD032462946FFF79BFEBC60EB
:10327C00FFF742FEDFF864223946BDE8F840ACE6C1
:10328C000420F2BD0A460421E4E72DE9F04104468E
:10329C000D4616461F461020FFF7D8FD8046B8F1A4
:1032AC00000F10D0069A3946FFF77CFEA8F80840AC
:1032BC00A8F80A50C8F80C60FFF71EFE079A4146A2
:1032CC00BDE8F04189E60420BDE8F081480D0020FE
:1032DC00500D00202DE9F04104460D4616461F46C0
:1032EC001820FFF7B3FD8046B8F1000F1ED0002266
:1032FC000421FFF74DFE21465020FFF725FE88F8EC
:10330C00080088F8095088F80A60C8F80C7006980C
:10331C00C8F810000798C8F81400FFF7EDFD0FF27D
:10332C00BD224146BDE8F041FFF757BE0420BDE881
:10333C00F0810FF2AD2311220021F3E0F8B5044621
:10334C000D4616460E20FFF781FD070013D00A220A
:10335C000421FFF71DFE21465020FFF7F5FD3872C2
:10336C007D813E73FFF7C8FD0FF279223946BDE827
:10337C00F840FFF732BE0420F2BD0FF26D23062297
:10338C00F0E02DE9F04104460D4616461F4610208C
:10339C00FFF75CFD8046B8F1000F18D0072204211E
:1033AC00FFF7F6FD21465020FFF7CEFD88F8080008
:1033BC0088F8095088F80A60C8F80C70FFF79CFD73
:1033CC000FF229224146BDE8F041FFF706BE04206A
:1033DC00BDE8F0810FF2192308220021C2E00FF2A0
:1033EC00152310227EE070B504460D460C20FFF725
:1033FC002DFD06000ED030220421FFF7C9FD3481CB
:10340C007581FFF779FD0FF2F1123146BDE870407E
:10341C00FFF7E3BD042070BD30B583B00446002037
:10342C00ADF804000A20FFF711FD05000ED0312283
:10343C000421FFF7ADFD2C81FFF75EFD01A9009182
:10344C0002230FF2B9122946FFF7E9FDBDF804007B
:10345C003EBD1CB500208DF804000820FFF7F6FCDB
:10346C0004000DD012220121FFF79CFDFFF744FD53
:10347C0001A9009101230FF289122146FFF7CFFD1C
:10348C009DF8040016BDF8B504460D4616461020EE
:10349C00FFF7DCFC07000FD036220421FFF778FD84
:1034AC003C817D81FE60FFF727FD0FF265123946E6
:1034BC00BDE8F840FFF791BD0420F2BD21360000B5
:1034CC00074A13681A0003D00A4601460120184720
:1034DC00704700003D3600002F36000031320000EE
:1034EC00602800202DE9F04104460D4616461F4683
:1034FC000C20FFF7ABFC8046B8F1000F0FD0324622
:10350C000421FFF745FDA8F8084088F80A50FFF79A
:10351C00F3FC3A464146BDE8F041FFF75EBD04209E
:10352C00BDE8F0812DE9F04104460D4616461F46D4
:10353C001020FFF78BFC8046B8F1000F0FD03246FD
:10354C000421FFF725FDC8F80840C8F80C50FFF718
:10355C00D3FC3A464146BDE8F041FFF73EBD04209E
:10356C00BDE8F0812DE9F04104460D4616461F4694
:10357C001020FFF76BFC8046B8F1000F13D03246D9
:10358C000421FFF705FD21465020FFF7DDFC88F8EC
:10359C000800C8F80C50FFF7AFFC3A464146BDE8AE
:1035AC00F041FFF71ABD0420BDE8F08110788028A7
:1035BC0011D1508840F27F6188420CD190884FF62F
:1035CC0080710140B1F57E4F05D100F07F0098422B
:1035DC0001D1012070470020704700000023E5E76F
:1035EC001123E3E70A23E1E70623DFE70723DDE7FF
:1035FC000823DBE71023D9E73023D7E73123D5E7BE
:10360C0080B5122300930123FFF7F0FD02BD0000EB
:10361C003623CBE780B5142300930123FFF7E6FD97
:10362C0002BD80B5152300930223FFF7DFFD02BD19
:10363C0080B5022300930423FFF7D8FD02BD2DE9CA
:10364C00F04104460D4616461F460E20FFF7FEFBC2
:10365C008046B8F1000F15D0812088F800000120B9
:10366C0088F80300A8F80440A8F80850A8F80A60E5
:10367C00A8F80C70FFF740FC069A4146BDE8F041F3
:10368C00FFF7ABBC0420BDE8F0811078802809D18D
:10369C00508840F27F61884204D19088984201D1D1
:1036AC00012070470020704738B50446154650205D
:1036BC00FFF74AFC0FF2150100912B46C0B20246EF
:1036CC0021464FF61840FFF7BAFF32BD4FF61843AC
:1036DC00DBE70000F8B504460D4616461020FFF750
:1036EC00B5FB07000FD001220521FFF751FC3C72FE
:1036FC007D72FE60FFF700FC0FF279023946BDE8DF
:10370C00F840FFF76ABC0420F2BDF8B504460D463C
:10371C0016461020FFF79AFB07000FD00222052156
:10372C00FFF736FC3C727D72FE60FFF7E5FB0FF293
:10373C0049023946BDE8F840FFF74FBC0420F2BD02
:10374C001078802812D1508840F27F6188420DD1C8
:10375C0090884FF6807101404FF68062914205D1FE
:10376C0000F07F00984201D1012070470020704783
:10377C00000000000123E3E70223E1E762F30F22DC
:10378C0062F31F42401810F0030308D0C91A1FD36C
:10379C00DB0748BF00F8012D28BF20F8022D1300CD
:1037AC0030B414461546103928BF20E93C00FAD82D
:1037BC00490728BF20E90C0048BF40F8042D8900B8
:1037CC0028BF20F8022D48BF00F8012D30BC7047EF
:1037DC00C91818BF00F8012DCB0728BF00F8012D20
:1037EC0070470000DFF800F085C10110DFF800F031
:1037FC0079B50110DFF800F0F5B80110DFF800F032
:10380C00B5C10110DFF800F0A9C101107047002804
:10381C0004D0082324220021FFF7E4BF704770472F
:10382C00E0B50821ADF800100421ADF802100190AC
:10383C0000A8504909688847002801D000200EBD17
:10384C0002980EBD00B583B00821ADF8001005211B
:10385C00ADF80210019000A846490968884707BDD9
:10386C00F0B589B004460D4616461F4600A8FFF772
:10387C00CEFF0F9806904FF47A703F490968B0FB61
:10388C00F1F101FB07F005900E98ADF8100000ABBC
:10389C0001FB06F229462046FFF7A8FF2046FFF75A
:1038AC00BEFF09B0F0BD80B5FFF7B9FFBDE802401F
:1038BC00FCF7A6BE38B50C46FFF7B1FF0546FCF782
:1038CC0034FF002802D02846FCF792FE4FF47A70A1
:1038DC0029490968B0FBF1F000FB04F12846FCF71C
:1038EC008BFE2846BDE83240FCF78ABE80B5FFF758
:1038FC0096FFFCF71AFF401E8041C043C00F02BD6B
:10390C0080B5FFF78CFFBDE80240FCF771BE10B527
:10391C0004460021FFF76EFF2046BDE8104075E716
:10392C0070B504460D4616460C20FFF779FF0028AB
:10393C000BD0866001462046FFF760FF002D02D0B9
:10394C002846FEF75DFC012070BD3046FFF77AFF7C
:10395C00002070BD10B50446FCF756FE002807D1B8
:10396C002046FFF74FFF8468FFF76CFF204610BD21
:10397C00002010BD480D0020D865000062F30F2216
:10398C0062F31F4200B500BF1300964694461039EF
:10399C0028BFA0E80C50FAD85FEA417C28BF0CC0C5
:1039AC0048BF40F8042BC90728BF20F8022B48BF9A
:1039BC0000F8012B00BD0000DFF800F0C1C10110C0
:1039CC00DFF800F0ADB50110DFF800F019AE011012
:1039DC00DFF800F0E5C10110DFF800F0CDA0011018
:1039EC00DFF800F085C20110DFF800F081C2011091
:1039FC00DFF800F055C10110DFF800F043C20110F0
:103A0C00DFF800F079AB0110DFF800F0D9B6011047
:103A1C00DFF800F0EDB30110002804D008232C22AD
:103A2C000021FDF763BC7047002804D00823242232
:103A3C000021FFF7D7BE7047002804D008233C2292
:103A4C000021FEF7D9BB7047002804D0082324229C
:103A5C000021FFF7B1BF704700B583B00821ADF866
:103A6C0000100321ADF80210019000A8DFF85C1AD9
:103A7C000968884707BD80B50820ADF800000C2008
:103A8C00ADF8020000A8DFF8441A0968884702BDA7
:103A9C0080B5FCF7A5FDADF80000FEF733F8ADF8E6
:103AAC000200009802BD01B5BDF80200FEF72EF829
:103ABC00BDF80000BDE80240FCF796BD10B5DFF87C
:103ACC00104AE0680021A0F86C1AE8210180E83067
:103ADC0040F6841101806060002000F004F8A060C2
:103AEC00E068606010BDF8B500242546061D16F090
:103AFC00030001D0311D0E1AFFF7CAFFDFF8D019F1
:103B0C000860B6B23246112A01DA4F6800E08F68BD
:103B1C0039880B0403D581F40041002510E0002DF9
:103B2C000AD02388B7F800C0634423809BB2B34209
:103B3C0006D32746194608E0914206DA01253C4691
:103B4C00CF1939880029E4D10027002F0ED0891B0A
:103B5C0089B20B46042B04DBD15346F40041398067
:103B6C0003E0398841F4004139803F1DFFF79BFF8A
:103B7C003846F2BD10B50446FFF78AFFDFF850193E
:103B8C000860221F13885B045B0C13804B689A42FD
:103B9C0000D24A60BDE8104085E738B50446FFF70F
:103BAC0077FF002100E0491C03290FD2DFF82429FC
:103BBC0001EB410302EB8305AA6C002A06D0944268
:103BCC00F1D1FFF770FF05F1480032BDFFF76BFF35
:103BDC00002032BD70B50546FFF75AFF04460020A1
:103BEC0000E0401C032822D2DFF8E81800EB40026A
:103BFC0001EB820101F148063168002910D13560D2
:103C0C000020B06002460146FFF7DAFE7060002823
:103C1C0001D100F0C5FC2046FFF745FF304670BDD2
:103C2C008D42DED12046FFF73EFF304670BD204668
:103C3C00FFF739FF002070BD38B50446FFF728FFA9
:103C4C00002500E06D1C062D0ED2DFF8881805EB60
:103C5C0045029200515A002906D08C42F2D1FFF74E
:103C6C0022FF284680B232BDFFF71DFFFF2032BD78
:103C7C0080B5FFF7E1FFFF2801D1002002BDDFF87E
:103C8C00541800EB400201EB820002BD10B5044653
:103C9C002088FFF7EDFF002802D14FF0FF3010BD58
:103CAC008168080002D16FF0010010BD2046BDE80C
:103CBC001040084702460FF638001047002009E074
:103CCC00DFF8101800EB400201EB820100228A643D
:103CDC000A65401C0328F3D300200146DFF8F427C3
:103CEC0004E000EB40039B009952401C0628F8D3DB
:103CFC0000F0E4BB70B590B0FCF772FC04460020F9
:103D0C0003E02846FFF7CFFE0120002820D100A8B1
:103D1C00FFF792FE052006904FF4487008904FF282
:103D2C0001000490DFF8B00700680590002200A99C
:103D3C00DFF8A807FFF748FE060007D0FFF7A8FE3C
:103D4C0005463046FFF746FF0028DAD100F028FC84
:103D5C002046FCF749FC10B070BD38B50446FFF79F
:103D6C0037FEFFF737FF0546FFF792FE002100E014
:103D7C00491C06291CD2DFF85C2701EB410302EB3E
:103D8C0083021388002B0BD1A38813805560A36882
:103D9C009360A18169682161FFF785FE002032BD27
:103DAC00A2889A42E4D1FFF77EFE6FF0020032BD8A
:103DBC0000F0F6FB00BF38B50446FFF709FEFFF72D
:103DCC0009FF05001CD0FFF763FE002100E0491C31
:103DDC00062915D2DFF8FC2601EB410302EB830226
:103DEC001388002BF3D14FF6F87313805560002322
:103DFC009360A1806968A160FFF755FE002032BD79
:103E0C0000F0CEFB00BF10B5044660680C3080B2E9
:103E1C00FFF769FE002802D16FF0030010BD616846
:103E2C00018100210160FF2181720C30A060002013
:103E3C0010BD80B540680C38FFF79CFE002002BD19
:103E4C0080B250E610B50446606880B2FFF74BFEB6
:103E5C00A060002802D16FF0030010BD002010BD3F
:103E6C0080B54068FFF786FE002002BD38B50446D9
:103E7C000D46FFF70DFE002145F80C1C21680029AA
:103E8C0002D1256006E0114651F80C2C002AFAD11B
:103E9C0041F80C5CBDE8324005E638B50446002517
:103EAC00FFF7F6FD2168002908D00D46A5F10C019D
:103EBC000A68226000220A60FF228A72FFF7F3FD73
:103ECC00284632BD38B504460D46FFF7E1FD002DFE
:103EDC000AD0294600E0114651F80C2C002AFAD1E0
:103EEC00226841F80C2C2560BDE83240DBE5F8B5C2
:103EFC000446E068A0F10C05E088062802DAA088E8
:103F0C00062802DB6FF00200F2BDFFF7C1FDDFF8FF
:103F1C00C4650C27E18807FB01614968002904D1BD
:103F2C00FFF7C1FD6FF00200F2BDFFF7BCFDA088EA
:103F3C002871E0886871207AA871E168E08807FB35
:103F4C00006040680830FFF791FFE08807FB0060D5
:103F5C0040684068FEF754F90020F2BD10B50446E5
:103F6C00FFF736FDFFF719FE002802D16FF00400B1
:103F7C0010BD0830FFF791FFA060A0F10C010028E4
:103F8C0001D1022010BD0879A0804879E080002082
:103F9C0010BD06280BDADFF83C2500EB4003980037
:103FAC00805A002803D04FF6F872904202D14FF09D
:103FBC00FF307047088000207047811D8088E8E73B
:103FCC0010B50446E088FFF737FEFF2802D14FF00A
:103FDC00FF3010BDE0802046BDE8104087E738B5C3
:103FEC000446FFF7BBFF05000ED100A9A088FFF720
:103FFC00D0FF002805D0A068FFF72EFD6FF005005C
:10400C0032BDBDF80000A080284632BD10B50C466C
:10401C004FF47A71A1FB0001DFF8C424126800236D
:10402C00FDF7DEFF002906D302D8B0F1004F02D312
:10403C006FF0020010BD2060002010BD38B50446A2
:10404C00FFF7C6FCFFF7A9FD0546FCF705FB0028AA
:10405C0003D0012801D0002D02D16FF0040032BD35
:10406C006068002809D10020009000996868FFF76B
:10407C00B3FC401E8041C00F32BD10F1010F03D1C3
:10408C004FF0FF300090F0E700A9FFF7BFFF0028CA
:10409C00EBD032BD80B54068FEF7B2F8002002BD0F
:1040AC0000F07EFA00BF80B54068FFF799FC002055
:1040BC0002BD80B54068FFF797FC002002BD80B5BB
:1040CC00FFF796FCFFF798FC002002BD80B5FCF7CB
:1040DC0087FAFDF717FD002002BD10B58CB0044621
:1040EC0000A8FFF799FCE0200890002300AAA16823
:1040FC006068FFF785FC002801D100F051FA002020
:10410C000CB010BD10B58CB0044600A8FFF784FCB1
:10411C00E0680890002300AAA1686068FFF770FCB3
:10412C00002801D100F03CFA00200CB010BD10B5F5
:10413C000446FFF769FC6060002010BD01468868EA
:10414C0049680847F0B589B00446A568002D27D109
:10415C000C20FFF7C8FC050002D16FF0030033E020
:10416C0000A8FFF761FC0020ADF810000590069543
:10417C00034600AA6168DFF86C03FFF749FC28606E
:10418C00002807D1FFF777FC2846FFF7F3FC6FF008
:10419C00030019E0E06868602069A860A5600BE086
:1041AC00D14E3068804707462868FCF721FA206911
:1041BC00A86038467168884761682868FCF71CFA63
:1041CC002868FCF71DFA002009B0F0BD10B582B0CC
:1041DC00044600A96068FFF719FF002804D1009875
:1041EC0060602046FFF7AEFF16BD80B54068002822
:1041FC0002D16FF0020002BD0068FCF7F9F9002053
:10420C0002BDB749096841600020704750B50446AB
:10421C006FF00046B24802680023A6FB02014FF47F
:10422C007A72FDF7DDFE002904D302D8B0F1004FFD
:10423C0000D330466060002050BD2DE9F04186B0BF
:10424C000446FFF7C5FBFFF7A8FC054600200290CB
:10425C000646FCF701FA002803D0012801D0002DF6
:10426C0002D16FF004005EE06068002802D1304695
:10427C0000900BE010F1010F03D14FF0FF300090D4
:10428C0004E000A9FFF7C2FE07004BD10127FFF79E
:10429C00BBFB009901EB000800E0009000996868F6
:1042AC00FFF79AFB002831D003A8FFF757FE070051
:1042BC001CD101A9BDF81000FFF76BFE002811D12D
:1042CC00059ABDF81210BDF80400A36898470028A1
:1042DC0008D0BDF80400A081BDF81200E08105985B
:1042EC00206113E0059902A8FFF7C0FD0127761C99
:1042FC00009810F1010FD1D00028CFD0FFF784FB2C
:10430C00B8EB000002D000998142C6D2029905F1A7
:10431C000800FFF7D7FD002E03E06868FDF770FF7B
:10432C00761EFAD1384606B0BDE8F08170B5044669
:10433C00FFF74EFB0546FCF78FF9002801D001284A
:10434C0002D16FF0040070BDFFF7A2FB0021614B9E
:10435C0000E0491C06290FD201EB41029200D65A0B
:10436C00002E09D0D21852681268AA42F1D1A1804D
:10437C00FFF799FB002070BDFFF795FB6FF0040071
:10438C0070BDF8B50446FCF767F9002801D0012888
:10439C0002D16FF00400F2BDFFF71AFB0546FFF7E0
:1043AC0077FB00214B4BA78800E0491C062914D24F
:1043BC0001EB41029200D65A002E0ED0BE42F4D12F
:1043CC00D11849680968A94201D1012100E00021F6
:1043DC00A160FFF768FB0020F2BDFFF764FB4FF014
:1043EC00FF30F2BD38B504463C20FFF77CFB0500DE
:1043FC0002D16FF0030032BDFFF71EFB207AA861DB
:10440C0060892862E0682861002229466068FFF70D
:10441C00DBFA04462846FFF7ADFB002C02D16FF007
:10442C00030032BD002032BD38B504462420FFF70E
:10443C005AFB050002D16FF0030032BDFFF704FBFD
:10444C002079012801D10120287600222946A06874
:10445C00FFF7B6FAE0602846FFF78CFBE06800280F
:10446C0002D16FF0030032BD002032BD10B582B016
:10447C000446A068002809D10020009000996068CB
:10448C00FFF7AAFA401E8041C00F16BD10F1010FB4
:10449C0003D14FF0FF300090F0E700A9FFF7B6FD15
:1044AC000028EBD016BD4188292902D36FF00100FA
:1044BC0070470FF2480252F82110084705480821AE
:1044CC0001800A498160FFF7F9BA0000480D00200D
:1044DC00240C002034230020440D0020C13C00009B
:1044EC00D865000049410000DC0C0020B3440000FA
:1044FC00993C00009D3A0000B33A0000673D000073
:10450C00C33D0000133E00003F3E0000513E000042
:10451C006D3E0000FB3E0000693F0000CD3F0000F7
:10452C00EB3F000049400000A1400000AD400000FE
:10453C00B3400000BF400000CB400000D940000059
:10454C00E74000003B410000D94100000F42000051
:10455C0019420000C73F0000615F00003760000097
:10456C00474200003943000051410000F741000070
:10457C00CD5F0000076000001F6000008F4300004B
:10458C0085600000A5600000F14300003544000088
:10459C00794400009B600000B360000011410000F2
:1045AC00012000F001B80000202109032631182059
:1045BC00ABBEF9E7DFF800F06DA90110002804D0BC
:1045CC0008233C220021FDF717BE70473EB5044678
:1045DC000D460820ADF800000120ADF8020000A83F
:1045EC00DFF8501A09688847BDF804102180029939
:1045FC0029603EBD00B583B00821ADF80010032141
:10460C00ADF80210019000A8DFF8281A0968884755
:10461C0007BD70B584B004460D4616460820ADF8AB
:10462C0000000920ADF8020000A8DFF8081A09689C
:10463C008847BDF804102180BDF806102980029926
:10464C00316004B070BD00B583B00821ADF8001026
:10465C000A21ADF80210019000A8DFF8D8190968FA
:10466C0088470EBDE0B50821ADF800100421ADF867
:10467C000210019000A8DFF8BC19096888470028CF
:10468C0001D000200EBD02980EBD00B583B00821EC
:10469C00ADF800100521ADF80210019000A8DFF86C
:1046AC0094190968884707BD0320DFF88C19086046
:1046BC007047DFF888090068704700B58FB000A814
:1046CC00FFF77CFFDFF8780900F1500107914FF4F8
:1046DC002171089101210691002300AA0FF24131AA
:1046EC00FDF792FD0FB000BD2DE9F04F9FB0DFF844
:1046FC005449DFF8541904F11C0000F0EFFDA060E0
:10470C0004F10C01A01CFFF761FF04F14C00FFF752
:10471C00FEF820610420019000200090034641F235
:10472C0088320FF2F16104F12800FFF799F80FF6C7
:10473C00C90000F06FFE00F0F3FE06211F20FEF70B
:10474C0052FE01208DF801000020ADF80A00012076
:10475C008DF800005020ADF808004FF44870ADF80B
:10476C0006000020ADF804004FF47A70ADF802009A
:10477C000DF10102012140F20530FDF79DFD0DF117
:10478C000A02022140F20630FDF796FD04F15802B0
:10479C0017214FF44270FDF78FFD00AA01214FF451
:1047AC004470FDF789FD02AA022140F21130FDF799
:1047BC0083FD0DF10602022140F21230FDF77CFD63
:1047CC0001AA022140F21330FDF776FD0DF1020231
:1047DC0002214FF44570FDF76FFD04F18800009045
:1047EC00024614218120FEF775FF04F19C052A4630
:1047FC0014218220FEF76EFF04F1B006324614211C
:10480C008320FEF767FF04F1C4073A461421842085
:10481C00FEF760FF04F1D808424614218520FEF70C
:10482C0059FF04F1EC094A4614218620FEF752FF89
:10483C0004F5807A524614218720FEF74BFF04F1D1
:10484C00700214218820FEF745FF04F58A7B5A4636
:10485C0014218920FEF73EFF04F1180202218A2060
:10486C00FEF738FF009A1421002000F071FE2A4652
:10487C001421012000F06CFE32461421022000F0BD
:10488C0067FE3A461421032000F062FE42461421D2
:10489C00042000F05DFE4A461421052000F058FE6D
:1048AC0052461421062000F053FE04F1700214212C
:1048BC00072000F04DFE5A461421082000F048FE57
:1048CC0004F118020221092000F042FE04F17002EA
:1048DC0015210020FEF77FFCA0210620FEF783FDAA
:1048EC00A0210720FEF77FFDA0210820FEF77BFD0D
:1048FC00A0210920FEF777FDDFF850070190022078
:10490C008DF8030001208DF8020000208DF80100C5
:10491C0001208DF8000001AA04214FF48160FEF7FC
:10492C00B2FD0DF1030201214FF48060FEF7ABFDE7
:10493C000DF10202012140F20240FEF7A4FD0DF13F
:10494C000102012140F20340FEF79DFD00AA012166
:10495C0040F20640FEF797FD4FF0FF30FEF738FCB3
:10496C004FF0FF30FEF7F1FB01F0E4F84FF0FF30B1
:10497C0000F0D8FD1AA8142101F022FA15A8142170
:10498C0001F01EFA10A8142101F01AFA00208DF87B
:10499C0000000BA8142101F013FA06A8142101F051
:1049AC000FFA01A8142101F00BFA1AAA0121002018
:1049BC0000F0CEFD15AA0121084600F0C9FD10AA91
:1049CC000121022000F0C4FD00AA0121032000F007
:1049DC00BFFD0BAA1421042000F0BAFD06AA142175
:1049EC00042000F0B5FD01AA1421042000F0B0FD54
:1049FC0004F5027000F0A2FD04F5FE70FDF7E8FE70
:104A0C0004F50070FEF751FB6088C0B2FEF74AFB5C
:104A1C006088C0B2FEF7BFFB1FB0BDE8F08F00008E
:104A2C0030B583B0FFF760FEDFF818461BE0206955
:104A3C00FEF790FF050004D000F09EF82846FFF723
:104A4C0024FE2069FBF7E0FD0028F0D0A088410788
:104A5C0009D54FF6FB710840A08004F12800FEF741
:104A6C0022FF00F0C0F94FF0FF30FFF7ECFD0028FB
:104A7C00ECD10020009000AA0DF1060101A8FFF76F
:104A8C00C8FD0028DDD10125BDF80400102813D184
:104A9C00BDF80600618888420ED1009801884FF657
:104AAC00FF72914205D18078C00605D500F030F830
:104ABC0002E000F009F8054600980028C1D0002D4E
:104ACC00BFD0FFF797FDBCE7014601200A78B02A5A
:104ADC0001D1084600E0704738B5044660781628C6
:104AEC000FD1DFF8605510226988C9B26088FEF7D3
:104AFC00DBFD002805D1012000F02AF86C610020B4
:104B0C0032BD217904F10800FEF7DAFC012032BD38
:104B1C0038B5DFF830456069002818D02178491C79
:104B2C00217000F1080201794088FEF737FB054639
:104B3C0016280CD004280AD000226188C9B26069FA
:104B4C004088FEF7B1FD2846BDE8324000E031BD9B
:104B5C0010B5DFF8F0446269002A0CD0002804D0AC
:104B6C00117902F10800FEF7ABFC6069FFF742FD1A
:104B7C0000206061207010BD0188012904D0022939
:104B8C0007D0082902D07047807807E08178002090
:104B9C0097E180784EE00146012042E100B585B0F6
:104BAC00012806D0042835D005283BD0062827D06C
:104BBC003BE002A94FF44170FDF716FD9DF808008B
:104BCC008DF8000000A802A94A7842708A78827099
:104BDC0000220271C2704A798DF807200A798DF88B
:104BEC000620C9784171DFF868241E2140F2073095
:104BFC00FDF762FB00AA0821002000F0A3FF14E0DF
:104C0C0000A940F21530FDF7EFFCDFF84804FEF781
:104C1C004AFE0AE0DFF83C04FEF772FE1420FFF7B0
:104C2C0097FF02E01420FFF793FF05B000BD01468B
:104C3C000220F6E0092800D9704738B5DFE800F00B
:104C4C00051A2F44596D8195A9BDDFF8F84304F17D
:104C5C0088052946002000F0F1FC2A461421812009
:104C6C00FEF753FD1422294604F5A470BDE8384024
:104C7C00FEF7B0B8DFF8CC4304F19C0529460120BF
:104C8C0000F0DCFC2A4614218220FEF73EFD1422A3
:104C9C00294604F5AE70BDE83840FEF79BB8DFF846
:104CAC00A44304F1B0052946022000F0C7FC2A46B3
:104CBC0014218320FEF729FD1422294604F5B8702F
:104CCC00BDE83840FEF786B8DFF8784304F1C40538
:104CDC002946032000F0B2FC2A4614218420FEF75A
:104CEC0014FD1422294604F5C270BDE83840FEF7C5
:104CFC0071B8D44C04F1D8052946042000F09EFC70
:104D0C002A4614218520FEF700FD1422294604F5BD
:104D1C00CC70BDE83840FEF75DB8CA4C04F1EC0528
:104D2C002946052000F08AFC2A4614218620FEF72D
:104D3C00ECFC1422294604F5D670BDE83840FEF789
:104D4C0049B8C04C04F580752946062000F076FC65
:104D5C002A4614218720FEF7D8FC1422294604F594
:104D6C00E070BDE83840FEF735B8B64C04F1700180
:104D7C00072000F063FC04F1700214218820FEF778
:104D8C00C4FC04F1700215210020BDE83840FEF788
:104D9C0022BAAC4C04F58A752946082000F04EFC6A
:104DAC002A4614218920FEF7B0FC1422294604F56A
:104DBC00EA70BDE83840FEF70DB8A24C04F11801BA
:104DCC00092000F03BFC04F1180202218A20FEF7B6
:104DDC009CFC022204F1180104F5F470BDE8384083
:104DEC00FDF7F8BF31BD80B500A800210160FFF7C9
:104DFC005BFCFFF75EFC010C8DF8001000A9020AA9
:104E0C004A7088700DF101020221092000F0A0FB0C
:104E1C0001BD00008B498A8810438880C868FDF763
:104E2C00EFB938B504460D460420FFF71BFC0028EB
:104E3C0009D004808570834B0246D9681869BDE897
:104E4C003840FEF76DBD31BDF8B5044600257D4EEA
:104E5C0033E001220A21B06800F08DFA01220F2103
:104E6C00B06800F088FA01220721B06800F083FADC
:104E7C0001220021B06800F07EFA77487749096872
:104E8C00B0FBF1F73846FFF795FB00220A21B0681A
:104E9C0000F071FA00220F21B06800F06CFA0022C9
:104EAC000721B06800F067FA00221146B06800F0E4
:104EBC0062FA3846FFF77EFB6D1CEDB2A542C8D3F3
:104ECC00F1BD10B5080711D55E4C01220F21A06869
:104EDC0000F051FA00220821A06800F04CFA0022E0
:104EEC000921A068BDE8104000F045BAC80611D5EC
:104EFC00544C00220F21A06800F03DFA0122082139
:104F0C00A06800F038FA01220921A068BDE8104021
:104F1C0000F031BAC80727D54A4C00220221A068FC
:104F2C0000F029FA00220821A06800F024FA0022DF
:104F3C000921A06800F01FFA00220A21A06800F0E5
:104F4C001AFA00220F21A06800F015FA002207219E
:104F5C00A06800F010FA00221146A06800F00BFACD
:104F6C000A20BDE810406FE7480720D5354C0022D9
:104F7C000A21A06800F0FFF900220F21A06800F0C0
:104F8C00FAF900220121A06800F0F5F901220221B2
:104F9C00A06800F0F0F900220821A06800F0EBF9FD
:104FAC0001220921A068BDE8104000F0E4B988078F
:104FBC0020D5244C01220A21A06800F0DCF9012242
:104FCC000F21A06800F0D7F901221146A06800F06B
:104FDC00D2F900220221A06800F0CDF901220821AB
:104FEC00A06800F0C8F900220921A068BDE81040B3
:104FFC0000F0C1B910BD00000146082011E70029DE
:10500C0003D10120164908707047012911D11448A9
:10501C00002A02D10021017006E0082A02D10021E9
:10502C00017001E0012101700078012801D1FDF728
:10503C00DEBB7047480D0020005009402850094045
:10504C00581E002008020020700A0020F1FB090005
:10505C003003002030020020400D0300D865000012
:10506C005B0D0020DFF800F009B70110DFF800F04D
:10507C003DC10110DFF800F029AF011090FAA0F04B
:10508C00B0FA80F0704780B5DFF844030068FFF792
:10509C00F5FF0121DFF83C23814011600121DFF88D
:1050AC0038231160DFF834130A6890420BD201EBFD
:1050BC0080014A683AB11368190004D0C1B2104695
:1050CC00BDE80440184701BDF8B50D00ECB244BF73
:1050DC0085F0204585F4C045A10001F1804101F522
:1050EC00012100EA05060A68DFF8F4723E4085EA01
:1050FC00020382433243034000F4E0261B0EB6F554
:10510C00E02F03F0010302D1D30105D411E010F418
:10511C00E02F08BF002B0CD002F4E023B3F5A02F36
:10512C0004D0B3F5C02F04D1052300E0062363F3AC
:10513C0012420A60410205D5A90DDFF8A82201F040
:10514C000101115500020ED5FCF7DCFC00F00EF944
:10515C002C024CBF1C4600249A4322430A60BDE833
:10516C00F240FCF7D3BCF1BD002948BF0021800000
:10517C0000F1804000F5012001F03F010268920926
:10518C0041EA8211016070472DE9F04F97B08146DA
:10519C00FCF7BAFF0025012804D1FCF7ABFF02286D
:1051AC0008BF0125DFF84002C168C1F38151012914
:1051BC004FF0010A04D10068000E0AFA00F0054312
:1051CC00DFF82802DFF814620078DFF824020068A8
:1051DC00C0F346003060FCF797FF012802D130681D
:1051EC00401C30603168DFF80C7219B1FF22384670
:1051FC00FEF7C4FB4FF00008002405E0CC550AFA7A
:10520C0000F040EA0808641C59F82400C1B2FF29D8
:10521C0008D03268914203D225FA00F2D207EDD5BC
:10522C00022058E00920FBF7B5FBC6F88090082354
:10523C00242200210DA8FEF7BFFB8DF84CA00DAA6F
:10524C00012106F1A000FFF70DFF0024DFF8A8A153
:10525C000BE05046FFF738FF4FF0FF31E0B2FFF79D
:10526C0083FF0020CBF80400641C3068844212D207
:10527C0025FA04F0C00706EB840B48BF0420F1D4D8
:10528C0028FA04F0C00747BFE05D59F82010E0B2DF
:10529C0040F4C041DDE708233022002101A8FFF7CC
:1052AC00E5FE0020009001ABDFF85021102106F143
:1052BC008400FFF7DFFEDFF84801016821F47C5120
:1052CC0041F4005101600120DFF838110860DFF86B
:1052DC0038110860002017B0BDE8F08F2DE9F041BF
:1052EC00DFF8F86004460D4606F1A00800F032F82D
:1052FC0000273DB9002020606060A06000271DB32E
:10530C001EE07F1C15F82700FF28F3D03168884277
:10531C0004D206EB800040680028F2D0002413E091
:10532C0006EB800101224C6002FA00F06168084330
:10533C006060204655F827202F4900F035F87F1C77
:10534C0015F82700FF28EBD14046FCF759FF204603
:10535C00BDE8F0814FF0FF314046FEF73DBB2B49D5
:10536C00096821FA00F202F00100704728490A6826
:10537C000123A340704710B5184B1C68A14204D2FE
:10538C0003EB81035B68834201D0022010BD100047
:10539C00144A18BF01205054002010BD10B10160F8
:1053AC00002070470220704738B50C4C25680B461E
:1053BC001146CAB2AA4204D204EB8202526882425B
:1053CC0001D0022032BD1846FFF77EFE002032BD10
:1053DC00E0200240E020026080E200E03027002064
:1053EC00007F077F00200240A83F00506E2800205D
:1053FC0080120840EC270020007FC7679350000004
:10540C00003009400C40094008000940C02002400F
:10541C00D020024030B583B004463B4D05F130013D
:10542C0005F14800FFF75AFFA8600FF25D01FFF786
:10543C00B5FF364A4FF4E021A868FFF7B5FF344AB0
:10544C004FF4E021A868FFF7AFFF324A4FF4E02198
:10545C00A868FFF7A9FF304A4FF4E021A868FFF7CE
:10546C00A3FF2E4A4FF4E021A868FFF79DFF002010
:10547C00019000900346C8220FF27D0105F10C004B
:10548C00FEF7EEF96C6037BD10B51F4C0020207094
:10549C000B20FFF764FF002803D1207840F00100B7
:1054AC0020700420FFF75BFF002803D1207840F028
:1054BC00020020700020FFF752FF002803D1207853
:1054CC0040F0040020700E20FFF749FF002803D1A4
:1054DC00207840F0080020701220FFF740FF0028D1
:1054EC0003D1207840F01000207004F10C00BDE8CE
:1054FC001040FEF7D8B90000034841680A0001D0FB
:10550C000078084770470000880900200B000780CE
:10551C0004000780000007800E000780120007803F
:10552C0070470000C00707D50FF2BC531022202192
:10553C00DFF88405FDF70BBE00207047002804D06F
:10554C00DFF8781548610020704711207047000083
:10555C0010B50346084611460024092B6AD8DFE82B
:10556C0003F0050F19232D37414B555F142805D136
:10557C001422DFF84C05FDF72DFC5CE018245AE0F2
:10558C00142805D11422DFF83C05FDF723FC52E06A
:10559C00182450E0142805D11422DFF82C05FDF74F
:1055AC0019FC48E0182446E0012805D11422DFF844
:1055BC001C05FDF70FFC3EE018243CE0142805D137
:1055CC001422DFF80805FDF705FC34E0182432E05E
:1055DC00142805D11422DFF8F804FDF7FBFB2AE0B0
:1055EC00182428E0142805D11422DFF8E804FDF76C
:1055FC00F1FB20E018241EE0142805D11422DFF85A
:10560C00D804FDF7E7FB16E0182414E0142805D1A4
:10561C001422DFF8C804FDF7DDFB0CE018240AE0C7
:10562C00022805D10222DFF8B804FDF7D3FB02E013
:10563C00182400E00224204610BD000010B50246DC
:10564C0008460024092A42D8DFE802F0050B11179E
:10565C001D23292F353B1422DFF86414FDF7BAFB08
:10566C0036E01422DFF85C14FDF7B4FB30E01422B2
:10567C00DFF85414FDF7AEFB2AE01422DFF86414B3
:10568C00FDF7A8FB24E01422DFF84014FDF7A2FB81
:10569C001EE01422DFF83814FDF79CFB18E01422EE
:1056AC00DFF83014FDF796FB12E01422DFF8281413
:1056BC00FDF790FB0CE01422DFF82014FDF78AFBB9
:1056CC0006E00222DFF81814FDF784FB00E0022448
:1056DC00204610BD38B5104600240A7AD20601D5F2
:1056EC00082032BD049A002A01D00B2032BD0A7862
:1056FC00022A5CD14A681578527805EB022292B2E4
:10570C004FF6F175521B12D0521E16D0521E1AD0E3
:10571C00521E1ED0521E22D0521E26D0521E2AD0ED
:10572C00521E2ED0521E32D0521E36D03BE01422C6
:10573C001A80C968FDF74EFB3CE014221A80C96838
:10574C00FDF748FB36E014221A80C968FDF742FBCE
:10575C0030E014221A80C968FDF73CFB2AE01422C1
:10576C001A80C968FDF736FB24E014221A80C96838
:10577C00FDF730FB1EE014221A80C968FDF72AFBE6
:10578C0018E014221A80C968FDF724FB12E01422D9
:10579C001A80C968FDF71EFB0CE002221A80C9684A
:1057AC00FDF718FB06E0204618800A2402E020468C
:1057BC0018800124204632BD2DE9F04383B00C46FD
:1057CC0091461E4600254FF0FF08217A890601D527
:1057DC0008206EE12178022940F05D8162680A9907
:1057EC001378527803EB022292B242F60213D21AC9
:1057FC0000F045814DF2EF63D21A19D0521E3CD005
:10580C00521E5FD0521E00F08280521E00F0A48007
:10581C00521E00F0C680521E00F0D980521E00F0BD
:10582C00EC80521E00F0FF80521E00F0128130E11D
:10583C00002903D1152E02DB0D2500E00B25002DD0
:10584C0040F02A8100221421E068FDF797FF9B4F5E
:10585C00324649463846FDF7BDFA002003E0C15DEB
:10586C00491CC155401CB042F9DB321F391DE068A0
:10587C00FDF7B0FA4FF000080EE1002903D1152E08
:10588C0002DB0D2500E00B25002D40F005810022E8
:10589C001421E068FDF772FF884F324649463846BE
:1058AC00FDF798FA002003E0C15D491CC155401C6E
:1058BC00B042F9DB321F391DE068FDF78BFA4FF06F
:1058CC000108E9E0002903D1152E02DB0D2500E0CB
:1058DC000B25002D40F0E08000221421E068FDF73C
:1058EC004DFF764F324649463846FDF773FA002095
:1058FC0003E0C15D491CC155401CB042F9DB321FAD
:10590C00391DE068FDF766FA4FF00208C4E0002983
:10591C0003D1152E02DB0D2500E00B25002D40F0E8
:10592C00BB8000221421E068FDF728FF634F32464C
:10593C0049463846FDF74EFA002003E0C15D491C8C
:10594C00C155401CB042F9DB321F391DE068FDF730
:10595C0041FA4FF003089FE0002903D1152E02DB1A
:10596C000D2500E00B25002D40F09680002214211F
:10597C00E068FDF703FF514F324649463846FDF7C4
:10598C0029FA002003E0C15D491CC155401CB042FE
:10599C00F9DB321F391DE068FDF71CFA4FF00408E3
:1059AC007AE0002903D1152E02DB0D2500E00B2532
:1059BC00002D71D100221421E068FDF7DFFE324684
:1059CC004946E068FDF706FA4FF0050864E0002947
:1059DC0003D1152E02DB0D2500E00B25002D5BD12C
:1059EC0000221421E068FDF7C9FE32464946E06802
:1059FC00FDF7F0F94FF006084EE0002903D1152E03
:105A0C0002DB0D2500E00B25002D45D100221421D1
:105A1C00E068FDF7B3FE32464946E068FDF7DAF977
:105A2C004FF0070838E0002903D1152E02DB0D25B5
:105A3C0000E00B25002D2FD100221421E068FDF78A
:105A4C009DFE32464946E068FDF7C4F94FF0080860
