:10000000E04300206588000001CA011001CA011008
:1000100001CA011001CA011001CA011001CA011070
:1000200001CA011001CA011001CA011001CA011060
:0C00300001CA011001CA01103FCA0110F2
:100100003C0000000000000000000000340100007E
:1001100000000000000000000100000000000000DE
:1001200000000000000000000000000001000000CE
:0C013000000000000800000000000000BB
:10013C003400000000000000000000006801000016
:10014C0000000000000000000100000000000000A2
:10015C00010000000000000000000000080000008A
:04016C00000000008F
:1001700030000000000000000000000098010000B6
:10018000040000000000000001000000FFFFFFFF6E
:10019000FF00000001000000080000000000000057
:1001A0002C0000000000000000000000C40100005E
:1001B000040000000000000001000000FFFFFFFF3E
:0C01C000FFFFFFFF08000000000000002F
:1001CC0034050000E401000099A1011095A701106D
:1001DC00A5C2011009B2011045B8011000000000C1
:0801EC00000000002E000000DD
:1001F40028000000000000000000000014020000BD
:100204000000000000000000FFFFFFFF00000000EE
:080214000800000000000000DA
:10021C00300500003002000069C201106DC10110F0
:10022C001FC2011095BA0110000000000000000070
:04023C00300000008E
:10024000300500005402000075C20110A9B601106B
:100250009DBF011049B60110000000000000000021
:040260003100000069
:1002640024000000000000000000000080020000E4
:100274000000000000000000000000000800000072
:040284000000000076
:10028800240000000000000000000000A40200009C
:10029800000000000000000000000000080000004E
:0402A8000000000052
:1002AC00240000000000000000000000C802000054
:1002BC000000000001000000000000000800000029
:0402CC00000000002E
:1002D00000000000C00A0020040000000000000030
:1002E000000000002000000070010000300000004D
:1002F0001C020000C80A00200400000000000000EA
:10030000000000000C000000300400001800000095
:1003100040020000D00A002004000000000000009D
:100320000000000024000000480400001800000045
:1003300000000000D80A00200400000000000000B7
:100340000000000010000000A00100002C000000D0
:10035000CC010000E00A00200400000000000000C2
:1003600000000000200000006402000024000000E3
:10037000FFFFFFFFE80A002004000000000000006B
:100380000000000028000000880200002400000097
:10039000FFFFFFFFF00A0020040000000000000043
:1003A00000000000580000003C0100003400000084
:1003B000FFFFFFFFF80A002004000000000000001B
:1003C00000000000100000006004000018000000A1
:1003D000FFFFFFFF000B00200400000000000000F2
:1003E000000000001C000000AC020000240000001F
:1003F000FFFFFFFF080B00200400000000000000CA
:100400000000000038000000F40100002800000097
:10041000FFFFFFFF100B00200400000000000000A1
:100420000000000054000000000100003C0000003B
:100430001800000000000000000000004004000060
:080440000800000000000000AC
:100448001800000000000000000000005804000030
:08045800080000000000000094
:100460001800000000000000000000007004000000
:0804700008000000000000007C
:0804780001000000E88800000B
:040484000100000073
:0404880000000C0064
:04048C0000000D005F
:040490003200000036
:040494000200000062
:04049800F008002048
:04049C00000200005A
:0404A0000000000058
:0404A40001CA011078
:0404A8000000000050
:0404AC00000000004C
:0404B0000800000040
:0404B4000000200024
:0404B8008408002094
:0404BC00010000003B
:0404C000240A0020EA
:0404C400080000002C
:0404C8000000000030
:0404CC00000000002C
:0404D0000000000028
:0404D4000000000024
:0404D8000000000020
:0404DC00010000001B
:0404E00020090020CF
:0404E400060000000E
:0404E800010000000F
:0404EC00B407002031
:0404F0000000000008
:0404F4000000000004
:0404F80000020000FE
:0404FC0000000000FC
:020502002A00CD
:020504000100F4
:020506002500CE
:020508003000C1
:02050A003100BE
:02050C002E00BF
:02050E000100EA
:0105100001E9
:0805140004000000A4880000AF
:08051C000000000000000000D7
:0405240000000100D2
:0405280000000300CC
:04052C0087C401106F
:04053000380500008A
:040534003805000086
:0405380000000000BF
:04053C00800000003B
:040540008000000037
:0405440000000000B3
:04054800240A002061
:04054C006334000014
:040550002000000087
:040554007C8800009F
:0405580044860000D5
:04055C000DC30110BA
:04056000ED2B00007F
:04056400EF2B000079
:0405680099C801101D
:04056C009BC8011017
:040570000000000087
:04057400BA130000B6
:0405780020850000DA
:04057C0038850000BE
:0405800008850000EA
:0205840008006D
:0205860009006A
:02058800010070
:02058A0000006F
:01058C00016D
:040590000000000067
:040594000000000063
:04059800000000005F
:04059C00000000005B
:0405A0007F2A0000AE
:0405A400E52A000044
:0405A80061290000C5
:0405AC000F2B000011
:0405B000C529000059
:0405B4007D2900009D
:0405B8000D2A000008
:0405BC00512B0000BF
:0405C000E133000023
:0405C400E735000017
:0405C800EB3500000F
:0405CC000800000023
:0405D0002400000003
:0405D400180000000B
:0405D80028000000F7
:0405DC0020000000FB
:0405E0003C000000DB
:0405E4000C00000007
:0405E80034000000DB
:1005EC002DE9F04FA1B08046002017461D46029120
:1005FC000B900DF1440A6FF000490AE017F8011B4B
:10060C000298C0470028029000F0AB820B98401C67
:10061C000B90387808B90B98A5E22528EED100206C
:10062C00059006900790089009900A9001E040F020
:10063C00010017F8011F2029F9D023290DD02B29EF
:10064C0004D02D2906D030290AD00CE040F002004D
:10065C0080B2EEE740F00400FAE740F00800F7E75C
:10066C0040F01000F4E72A290ED12968296051F8CE
:10067C00042B2960002A0D9204D5514240F004004D
:10068C000D9180B27F1C11E000210D9109E00D99B4
:10069C00494505D001EB810302EB430130390D9143
:1006AC007F1C3A78A2F130010A29F0D339782E292F
:1006BC0003D04FF0FF310C911DE017F8011F2A29D0
:1006CC0007D1296829607F1C51F8042B29600C92F2
:1006DC0011E000210C9109E00C99494505D001EB82
:1006EC00810302EB430130390C917F1C3A78A2F163
:1006FC0030010A29F0D3ADF838000FF6784039787C
:10070C0000F04AFE08B117F8010B8DF83A009DF87D
:10071C003A00682802BF39786829622005D06C2815
:10072C0004BF38786C2803D171208DF83A007F1CF7
:10073C0011A8049017F8014BB4F1250029D01C38EE
:10074C0000F0C280001F022840F2BE80133800F077
:10075C00E380093800F0B880801E00F04A81401E0A
:10076C0000F02381401E022840F2AE80001F00F0F2
:10077C001C81401F79D0401E00F0CE80401E24D03A
:10078C00C01E0BD0801E00F0C780C01E00F0C480BD
:10079C0039E125208DF8440001203DE128682860CE
:1007AC0050F8046B286003960C9C002C04D5304642
:1007BC0000F0FEFD044606E022460021304600F023
:1007CC0013FE00B1841B069427E1296829603C24A0
:1007DC0051F8040B29600021CDE9000111A8039008
:1007EC00DDE90001049E11B908B90C9AB2B10206F8
:1007FC00120FA0EB02123032D2B2631E3A2AA8BFFB
:10080C002732000940EA017009099A5508BF0028EF
:10081C001C4603D0039AA3199A42E8D3A01903905B
:10082C00C4F13C010C980691814209DA401A0890F7
:10083C004FF6EF71BDF838000840ADF83800ECE029
:10084C00002840F1EA809DF8380000F014001028D0
:10085C0040F0E3800D98059A801A089A801A441A81
:10086C00012CC0F2DA800894D7E09DF83A00622897
:10087C001AD0682806D06A280CD06C281CD0712895
:10088C0008D019E02868286050F8041B28600B98E1
:10089C000880C2E02868286050F8042B28600B9868
:1008AC00C117C2E90001B8E02868286050F8041BA1
:1008BC0028600B980870B0E02868286050F8041B7A
:1008CC0028600B980860A8E02868C01D20F007027B
:1008DC002A60D2E9000108322A60CDE90001002922
:1008EC0002D505982D210AE0BDF83800810702D504
:1008FC0005982B2103E0C00705D50598202100F8A9
:10090C000A10401C059011A805990818039021465F
:10091C0000A800F0E5F980E09DF83A006C280DD0B5
:10092C00712818BF6A2809D12868C01D20F0070259
:10093C002A60D2E9000108322A6005E029682960A2
:10094C0051F8040B29600021CDE900019DF83A0013
:10095C00682803D1DDE9000180B20BE0622803D1E5
:10096C00DDE90001C0B205E0742818BF7A2804D173
:10097C00DDE900010021CDE900019DF838000007F8
:10098C002ED5DDE90001002908BF002828D044F04D
:10099C002000782824D10598302100F80A10401C3A
:1009AC00411C059100F80A401AE09DF83A002946CE
:1009BC0000F0DCF8CDE90001002902DA05982D21C0
:1009CC000AE0BDF83800810702D505982B2103E019
:1009DC00C00705D50598202100F80A10401C059089
:1009EC0011A8059908180390214600A800F0F5F805
:1009FC0013E0012005902868286050F8041B28603B
:100A0C008DF8441009E025208DF844000120059054
:100A1C001CB18AF80140022005900D980599401AE6
:100A2C000899401A0699401A0999401A0799401AD0
:100A3C000A99441A9DF83800400710D420208DF8EC
:100A4C004000002609E0012310AA00A9404600F04E
:100A5C007AFC002840F08580761CA642F3DB059ECC
:100A6C000DF1440B0AE01BF8011B0298C04700284B
:100A7C00029076D00B98401C0B90761E002EF2D173
:100A8C0030208DF840004FF0000B089E09E0012348
:100A9C0010AA00A9404600F056FC002861D10BF1C9
:100AAC00010BB345F3DB069EDDF80CB00AE01BF836
:100ABC00011B0298C0470028029052D00B98401C92
:100ACC000B90761E002EF2D130208DF840004FF0A6
:100ADC00000B099E09E0012310AA00A9404600F072
:100AEC0032FC00283DD10BF1010BB345F3DB03982D
:100AFC000699079E01EB000B09E01BF8011B0298FD
:100B0C00C047029068B30B98401C0B90761E002EC9
:100B1C00F3D130208DF840004FF0000B0A9E08E016
:100B2C00012310AA00A9404600F00DFCC8B90BF136
:100B3C00010BB345F4DB9DF8380040077FF569AD38
:100B4C0020208DF84000002600E0761CA642BFF65F
:100B5C0060AD012310AA00A9404600F0F4FB002868
:100B6C00F3D04FF0FF3021B0BDE8F08F622826D0D3
:100B7C0068281DD06A2808D06C2827D0712804D08A
:100B8C00742823D07A280CD020E00868C01D20F0EF
:100B9C0007000860D0E900230830086019461046A9
:100BAC0070470A680A6052F8040B0A60002170470B
:100BBC000A680A6052F8040B0A6000B20BE00A687B
:100BCC000A6052F8040B0A6040B204E00A680A603A
:100BDC0052F8040B0A60C11770472DE9FA4E05460E
:100BEC000A462F696F2A08BF082405D041F020005F
:100BFC00782814BF0A2410243C26D5E90001642A65
:100C0C0018BF692A81468A4605D1002903DAD9F131
:100C1C0000096AEB4A0ABAF1000F08BFB9F1000FDC
:100C2C000CD1286B50B9082C36D195F83800000738
:100C3C0032D530203B2687F83B002DE0E3174846A1
:100C4C005146224600F0FCFBA4FB0023A9EB020258
:100C5C003032D2B2A6F1010B3A2A5E4603DB9DF884
:100C6C000030513B9A1881465FEA010A0BF80720C5
:100C7C0008BFB9F1000F03D0E868F1198842DDD341
:100C8C00082C09D195F83800000705D5F05D3028FF
:100C9C0002D0761E3020F055C6F13C00A861F11947
:100CAC00E960296B884208DA081A28624FF6EF715E
:100CBC00288F08402887BDE8F38E00290ED595F8BB
:100CCC00381001F01401102908D1696B6A69891A6E
:100CDC002A6A891A0E1A012EA8BF2E62BDE8F38E5D
:100CEC002DE9F24F04468EB0D4E90001CDE90201A2
:100CFC0004AF9DF8380040F0200BBBF1610F0AD017
:100D0C00206B002848BF062004D408BFBBF1670F36
:100D1C0001D1012020636168C1F30A5040F2FF72D7
:100D2C0090421CD1080304BF2068002809D103207D
:100D3C00A0619DF8380061381A2836D30FF248614B
:100D4C0008E00320A0619DF8380061381A2829D3E7
:100D5C000FF22C61E068032200F0EAFBBEE10128EF
:100D6C0016DA204600F01FFC012811DB00250020BC
:100D7C00BBF1610F20D1E168302201F8012B4A1C34
:100D8C00E2609DF83820612A0CBF782258220FE0CF
:100D9C00626840F2FE3161F31E52451A62604FF0F8
:100DAC00FF30E5E70FF2D451D4E70FF2D851D1E779
:100DBC000A706169891C616110B90026002584E103
:100DCC00BBF1610F40F09780206BD4E900AB002899
:100DDC004CBF2126461CDDE902010022002300F055
:100DEC0003FC36B23ABF8BF00040CDE902A0CDE94E
:100DFC0002AB06F101082D1F8DF810200DF1110723
:100E0C0000E0C71DB8F1010F33DBDDE90201002260
:100E1C00002300F001FC2CD21C2102A800F014FCD1
:100E2C00DDE9020100F098FCA8F10708B8F1010F08
:100E3C00814609DB00F0BCFC02460B46DDE90201F1
:100E4C0000F0CEFCCDE90201F81D072105E009F008
:100E5C000F0200F8012D4FEA2919B9F1010F01DB3E
:100E6C00491EF4D5491E5CBF002200F8012DF9D5AE
:100E7C00C7E70DF11100391AB142B8BF0E4636B2B0
:100E8C0030000DF111072FD4884206DA04A941185D
:100E9C0049780829A8BF0F2100DA002104AA82187A
:100EAC0000E0761E12F80139401E8B42F9D00F2952
:100EBC0004D104A941184A78521C4A70002802D562
:100ECC0004AF761C2D1D36B2701E0DD4C1190A78D4
:100EDC003032D2B23A2A03DB9DF838303A3B9A18BA
:100EEC00401E01F80129F2D5206B002840F1ED805D
:100EFC00701E2063E9E0DDE902010022002300F00E
:100F0C0073FB3CBF81F00041CDE902012DB247F2E9
:100F1C00975068434B49DFF8309190FBF1F52DB2B7
:100F2C00C5F1070ABAF1010F90461CDBDDE9026737
:100F3C005FEACA7007D542464B463046394600F048
:100F4C000FFD06460F464046494642464B464FEA81
:100F5C006A0A00F005FDBAF1000F80468946E7D118
:100F6C00CDE9026724E0CAF1000A0026374F14E0ED
:100F7C005FEACA7007D542464B463046394600F008
:100F8C00EFFC06460F464046494642464B4600F0AB
:100F9C00E7FC4FEA6A0A80468946BAF1000FE7D1AE
:100FAC00DDE9020132463B4600F0ACFDCDE9020121
:100FBC00BBF1660F216BDFF898900CBF05F10A00AE
:100FCC0006204618142EA8BF132630208DF81000CA
:100FDC000DF11107012E3DDBDDE9020100F0D2FB22
:100FEC0007F1080104220A23B0FBF3F303EB830798
:100FFC00A0EB4700303001F8010C0A20B3FBF0F0F5
:10100C0000EB8007A3EB47033033521E01F8023D7F
:10101C00E9D1083E012E01F10807DBDBDDE9020115
:10102C0000F0B0FB00F0CEFB02460B46DDE90201FE
:10103C0000F0D6FB00224B4600F092FCCDE90201F9
:10104C00CAE700BFA0860100000024400000F03F6A
:10105C0084D797410DF11100381A0DF1110702E0F8
:10106C00401E6D1E7F1C39783029F9D0BBF1660FFC
:10107C0002D12DB2691C04E0BBF1650F0CBF01213C
:10108C000021226B8E1836B2B042B8BF064636B27B
:10109C0031001AD4814204DAC85D3528A8BF392042
:1010AC0000DA3020CA19521E00E0761E12F80139FF
:1010BC00491E8342F9D0392802D1C85D401CC8555D
:1010CC00002902D57F1E761C6D1C2DB29DF83810A0
:1010DC00009533B23A46204600F003F80FB0BDE855
:1010EC00F08F2DE9F04305461E46D5F83080012ED1
:1010FC0085B08946174602DA01260FF2902749F08F
:10110C002000BDF93040662808BF641C17D0672842
:10111C0040F0828014F1040FC0F28480444580F2C8
:10112C00818095F83800641C000702D44645B8BF8E
:10113C00B04624B2B8EB040848BF4FF0000824B204
:10114C00E868A969012C25DA4A1C30230B54B8F144
:10115C00010F03DA95F83810090702D52E21115426
:10116C00521C18EB040FB8BFC8F1000424B2A04401
:10117C006142B045AA616962B8BF4646AB6936B2F6
:10118C00EE6132463946181800F0D2F9A8EB060089
:10119C00A862C1E00818A64218DA3246394600F0B7
:1011AC00C7F9A9697118A01BB8F1010FA961686290
:1011BC0003DA95F83800000705D5EA682E20885424
:1011CC00E869401CE861C5F82880A5E0224639464C
:1011DC0000F0AEF9A8692018361BB8F1010F03DA3C
:1011EC0095F83810090703D5EA682E218154401C64
:1011FC00A86136B2B045B8BF4646E868AB6936B2AE
:10120C003246E119181800F093F9A8693018A86152
:10121C00A8EB060068627FE0B9F1610F16D14FF0C0
:10122C00700918E0464504DA95F83810090758BFDC
:10123C00B046B8F1010848BF4FF00008B9F1670F8C
:10124C0014BF4FF045094FF0650904E0B9F1410FA7
:10125C0008BF4FF05009A969E86817F8013B0B5417
:10126C004A1CB8F1010F05DA95F83810090758BF78
:10127C00AA6117D52E211154531CB8F1010FAB6183
:10128C0010DB761E36B2B045B8BF464636B2324693
:10129C003946181800F04CF9A8693018A861A8EB69
:1012AC0006006862E868A9690918200081F80090B6
:1012BC0003D42B2048708F1C03E02D224A708F1C06
:1012CC00644200260DF1080808E00A2200A800F08C
:1012DC0044FD019808F8010B761C009C21B20129F1
:1012EC00F3DA022E06DA49F02000652804BF30201C
:1012FC0007F8010B4EB9302007F8010B07E0761EFA
:10130C0002A8305C303007F8010B012EF7DAE868E0
:10131C00A9690818381AE86195F8380000F014002B
:10132C0010280DD16869A9690818696A0818E96953
:10133C000818A96A0818696B8842BCBF081A286289
:10134C0005B0BDE8F083F8B504460D4616461F46B9
:10135C00002004E0E86A401CE8627F1E002047B1D0
:10136C0016F8011BA868A0470028A860F2D14FF01E
:10137C00FF30F2BD686A6C747A4C00006E616E00CE
:10138C004E414E00696E6600494E460030000268C0
:10139C00531C0360117070470278C9B28A421AB1AB
:1013AC001CBF10F8012FF9E718BF00207047000090
:1013BC0000F10103810704D010F8011B89B18107EA
:1013CC00FAD10268B2F10131914311F0803F04BFB0
:1013DC0050F8042FF6E710F8011B11B110F8011B9F
:1013EC00FBE7C01A70470000C9B2830706D0521E33
:1013FC0022D310F8013B9942F7D11FE0083A13D3DE
:10140C0002F1040241EA012141EA014150F8043B96
:10141C00121F21BF4B40A3F1013C2CEA030C1CF022
:10142C00803FF3D0C9B2001F083210F8013B521EA6
:10143C0028BF91EA030FF8D818BF0120401E70474F
:10144C001B4213D1094236D12AB18446B0FBF2F0CB
:10145C0002FB10C2704700F087BCFCD300220023B3
:10146C0070470B000200002100207047904271EB86
:10147C00030CF6D370B5B1FA81F4B3FA83F52C1BD7
:10148C00A340C4F1200532FA05F63343A2405FF0C5
:10149C000046E64002E05B085FEA3202841A71EB18
:1014AC00030524BF204629467641F4D302000B00E5
:1014BC003000002170BD012ACFD970B5140C20D09A
:1014CC00B1FA81F4B2FA82F5C4F120046419B4F1D2
:1014DC002006D6D3B2405FF00044F440002502E071
:1014EC0052085FEA3303C61A71EB020E24BF304672
:1014FC00714664416D41F3D302000B0020002900BA
:10150C0070BD0C46B1FBF2F102FB11452D0445EA0E
:10151C001045B5FBF2F402FB145580B240EA0545C8
:10152C00B5FBF2F002FB105240EA044070BD000023
:10153C0062B38B0708D0521E11F8013B00F8013B37
:10154C0000F024808B07F6D1830740F0208000BF89
:10155C00103A07D330B4B1E83810103AA0E838107C
:10156C00F9D230BC530724BFB1E80810A0E808102A
:10157C0044BF51F8043B40F8043BD20724BF31F878
:10158C00022B20F8022B44BF0B7803707047083AEB
:10159C0007D3B1E80810083A40F8043B40F804CBF4
:1015AC00F7D25307E4E730B4436803F0004201215B
:1015BC001B031B0B436004BF0368002B08D10DE019
:1015CC000368DD0F45EA440444605B000360491E78
:1015DC004468E302F4D523031B0B436043681A43AE
:1015EC004260084630BC70474FF4001C1CEB410FA6
:1015FC0094BF1CEB430F09E041EA030C50EA4C0C7E
:10160C0052EA0C0C03D2994208BF9042704714BFA7
:10161C008B428242704700004FF4001C1CEB410FC0
:10162C0094BF1CEB430F09E041EA030C50EA4C0C4D
:10163C0052EA0C0C03D28B4208BF8242704714BF93
:10164C00994290427047000070B504460D466068A0
:10165C00C0F30A5040F2FF71884207D16068000362
:10166C0004BF2068002817D0022070BD20B9204686
:10167C00FFF799FF012868DA012D0FDB40F2FF71AB
:10168C00091A8D420AD36068002847BF00203049F0
:10169C0000203049C4E90001012070BD4142A9423B
:1016AC00616806DA6FF31E51401941EA0050606020
:1016BC0042E0401E63684519012205F1350062F3D2
:1016CC001F53352801F00041636003D36160002093
:1016DC00206070BD002215F11F0F04DA2268236010
:1016EC00002020356060684214D0521E256892415B
:1016FC00C0F12003D2439D4045EAD272256825FAF9
:10170C0000F6656805FA03F333432360636823FA34
:10171C0000F5656060680843B2F1004F606003D863
:10172C000DD12078C0070AD52068401C20602068A5
:10173C0028B96068401C60604FF0FF3070BD606875
:10174C00884204BF20680028F6D1002070BD00BF7D
:10175C000000F0FF0000F07FF446400D40EAC1208D
:10176C00490006D200F014F8004248BF6FF0004068
:10177C00604700F00DF84FF0004188428CBF0846DE
:10178C0040426047400D40EAC120490080F00D8086
:10179C0040F00040490DA1F58061491C05D4D1F100
:1017AC001F0154BFC840C01770474FF0000070476E
:1017BC00010040F10980F446404200F005F851F078
:1017CC0000416047010000BF09D0B0FA80F18840A9
:1017DC00C91CC1F58461090501EBD0214005704796
:1017EC00F0B44FF0004591EA030F44BF6B4000F09A
:1017FC00BDBA00BF841A71EB030604D26E40001B05
:10180C00B141121973414FF4001C1CEB410F34BF52
:10181C007CEB430684E00C0DA4EB1356362E7DDCDA
:10182C00012E43DC45EAC32343EA525312BFD202D2
:10183C0092025B08240545EAC12141EA5051D2EBE2
:10184C00C020994125D407D1B0FA80F610FA06F1E0
:10185C0064D00020203608E0B1FA81F6B140C6F120
:10186C00200220FA02F21143B0404FEAF474B4EBB8
:10187C00465434F001064FEA74040AD8D6F5001623
:10188C00760D04F00044F04061FA06F25040F1404D
:10189C004840C00A40EA415021F0004128BF5FEAAD
:1018AC00500550F1000044EBD12137E045EAC32349
:1018BC00DB0A45EAC121C90AB6F120050EDD42EA70
:1018CC000242120CC5F1200603FA06F6EB4042EA7E
:1018DC0006056D42984161F100010DE062FA06F5D2
:1018EC00F240554063FA06FC82EA0C02F3405A407F
:1018FC006D42904161EB030111F4801F05D1641E10
:10190C00620502D06D004041494121F48011430829
:10191C0075F1004350F1000041EB0451F0BC7047ED
:10192C001CEB410F15D223F0004352EA43060BD0B7
:10193C004FEA4C0CBCEB410F04D80C0D661E342E38
:10194C00B7DDEBE7801A994150EA410608BF002148
:10195C00E4E708BF1CEB430F28BF6FF00001DDE785
:10196C00B0B581EA030C0CF0004C40F2FF7515EA9F
:10197C0011541DBF15EA1357AC42AF4239E0E419BC
:10198C0023EA455343F48013C90241F0004141EA74
:10199C00505EC7021100A7FB020200284FF00000A6
:1019AC00EEFB01204FF00001E3FB072118BF42F0D2
:1019BC000102401800214941E3FB0E01A4F58064AB
:1019CC000F0302D252004041494154F101046CDD35
:1019DC00470872F1004250F1000051EB0451A1F59F
:1019EC0080115CBF41EA0C01B0BD4CEA05510020EE
:1019FC00B0BD05EA1357AC4214BFAF4241E050EA08
:101A0C00410E1CBF52EA430E02E061460020B0BDFD
:101A1C0024423C441BD15FEA070EF6D0090302BFF7
:101A2C0001460020AEF1140EB1FA81F7AEEB0704BB
:101A3C0001FA07FE0C37C7F1200100FA07F7C8407E
:101A4C004EEA000E23EA455343F48013A2E733F029
:101A5C000043B3FA83F704BFB2FA82FE77440B3F1C
:101A6C00E41BB7F1200E2FBF02FA0EF3BB40C7F1F7
:101A7C00200E22FA0EFE38BF43EA0E03BA40641C55
:101A8C0082E750EA410E14BF52EA430E6FF0000198
:101A9C004FF4001717EB430F8ABF194617EB410F92
:101AAC00B5E74CEA05510020B0BDD4F10104B4F106
:101ABC0020070FDAC4F12007520828BF42F00102B8
:101ACC0010FA07F501FA07F7E1BF2A43E040384363
:101ADC00E1400FE0352C98DCC7F1200452EA4002BB
:101AEC0020FA07F218BF42F0010231FA07F0A140C8
:101AFC000A43002172F1004250F1000051EB0C013D
:101B0C00B0BD00002DE9F04140F2FF7581EA030CF5
:101B1C000CF0004C15EA11541DBF15EA1357AC42DA
:101B2C00AF42E9E0BC41C1F31301C3F31303801AC4
:101B3C00994143F4801304D2641E4000494180183B
:101B4C005941C90241EA5051B1FBF3F603FB16119E
:101B5C00A2FB0675D7EBC020A94102D2761E8018D5
:101B6C005941C90241EA5051B1FBF3FE03FB1E116E
:101B7C00A2FB0E75D7EBC020A94103D2AEF1010E2A
:101B8C0080185941890241EA9051760546EA8E2E19
:101B9C00B1FBF3F603FB1611A2FB0675D7EB802005
:101BAC00A94102D2761E80185941C90241EA50510E
:101BBC004EEA060EB1FBF3F603FB1611A2FB0675FB
:101BCC00D7EBC020A94102D2761E80185941C90218
:101BDC0041EA5051B1FBF3F703FB1711A2FB073598
:101BEC00D3EBC020A94167F100070CBF004247F0BE
:101BFC00010766F3D5274FEA1E31B80814F5806447
:101C0C0014DDBD0775F1004250EB0E5051EB045141
:101C1C0011F5801F5CBF41EA0C01BDE8F0814CF06E
:101C2C007F6141F0E0410020BDE8F081BD076D0807
:101C3C0040EA0E5041F48011D4F10104B4F12006B5
:101C4C000ADAC4F120060200E04001FA06F3E14092
:101C5C001843B24015430EE0342C14DCC6F12004BA
:101C6C0045EA40056D0820FA06F2154321FA06F004
:101C7C00A1400D43002175F1004250F1000051EBE1
:101C8C000C01BDE8F08100205FEA0C01BDE8F08199
:101C9C00CFB992185B41B3FA83F704BFB2FA82F65C
:101CAC00BF190B3FB7F120062FBF02FA06F3BB405A
:101CBC00C7F1200622FA06F638BF3343BA401CB1EE
:101CCC00E419641E2FE77F4231F00041B1FA81F430
:101CDC0004BFB0FA80F6A4190B3CB4F120062FBF58
:101CEC0000FA06F1A140C4F1200620FA06F638BF2E
:101CFC003143A0403C1B16E7AC421ABF05EA135710
:101D0C00AF4214E050EA41061CBF52EA4306BFE75B
:101D1C0050EA4107304661461CBF41EA0551BDE817
:101D2C00F08152EA430C08BFC143BDE8F0810020AA
:101D3C004FF4001616EB410F98BF16EB430F08BF7C
:101D4C0016EB410F24BFC14305E016EB430F0CBF4C
:101D5C0061464CEA0551BDE8F08191FBF2F303FBBF
:101D6C001211C0E90031704770470000841A71EB02
:101D7C00030603D2001BB141121973414FF4001C2E
:101D8C001CEB410F34BF7CEB430443E00C0DA4EB84
:101D9C001356352E50DC45EAC323DB0A45EAC12134
:101DAC00C912B6F120050DDD63FA05F6EB4086EAA3
:101DBC000305124218BF45F00105C01851F100018E
:101DCC000CD213E062FA06F5F2405540F3415A404A
:101DDC00B340F3405A408018594107D349085FEA91
:101DEC0030005FEA350528BF45F0010501F580118B
:101DFC00420875F1004250F1000041EB0451F0BC77
:101E0C004FF4001C1CEB410F38BF70470020090D2C
:101E1C00090570471CEB410F10D252EA43060BD058
:101E2C00BCEB410F05D80C0DAB43661E342EB5DD53
:101E3C0002E0AB4380185941F0BC7047F0BC7047CE
:101E4C00DFF800F0F5C00110DFF800F049BA01101E
:101E5C00DFF800F025C20110DFF800F0C1C201105C
:101E6C00DFF800F0E3BF0110DFF800F013C1011040
:101E7C00DFF800F0D5C00110DFF800F095C00110BC
:101E8C00DFF800F00DA80110DFF800F0BDBE011066
:101E9C00DFF800F02DBF0110DFF800F0E1B5011004
:101EAC00DFF800F021C10110DFF800F0D5C20110FD
:101EBC00DFF800F0D9C20110DFF800F0F1C5011015
:101ECC00DFF8D400007D704738B5DFF8D400DFF8B8
:101EDC00CC500068EFF3118480F31188A8680021BE
:101EEC00FFF7CAFF6969081AA969814238BF002047
:101EFC0084F3118832BD00002DE9F041DFF8A00019
:101F0C00DFF898400768EFF3118887F31188A06811
:101F1C000121FFF7B1FF0121A1830021E183656954
:101F2C0021682268461B801A691A884204D2002054
:101F3C00A08388F311882AE088F31188002005E03B
:101F4C004519361A29460120FFF79AFF8642F7D227
:101F5C00EFF3118887F31188E18B012903D129460E
:101F6C000020FFF78DFFA16910F1010F08BF084693
:101F7C0003D0801B814238BF08464119FFF784FF0C
:101F8C00012020840020A083256088F31188BDE8FF
:101F9C00F081808A70470000A401002078010020A5
:101FAC00E0880000DFF8041009687047E088000042
:101FBC0000F018BE80B5002301223421DFF8E409BB
:101FCC0001F0CEF800B10120C0B202BDDFF8DC1A7E
:101FDC000A68002812BF42F0010050084000086057
:101FEC00704700007047FEE710B582B0042001F086
:101FFC00EBF8022818BF03280DD1032000901C23F6
:10200C004FF040520021DFF89C0901F086F8BDE842
:10201C001640042066E0DFF89419DFF8940A09688A
:10202C000C18DFF88C19DFF8980A0968B0FBF1F18D
:10203C002046FFF711FF2046BDE81640FFF710BF02
:10204C0080B5DFF870090078DFF8A4090168890809
:10205C00890041F00101016001F0C3F801F04DF974
:10206C00DFF89019002008600220DFF88C1909684D
:10207C00C9688847DFF84C0A0168490849000160C3
:10208C0000F017FA042000F00FF900F0AEBC0000CD
:10209C000022012904D1012807D1DFF8600903E0EF
:1020AC00012802D1DFF8280A026810467047DFF8D1
:1020BC00000A00797047000001F0A8B810B5DFF8ED
:1020CC003C160968EFF3118481F31188DFF8E019ED
:1020DC00C9880120012908BFFFF76CFF84F3118820
:1020EC0010BD000030B5DFF81416DFF89C390A6813
:1020FC00EFF3118182F31188B0FA80F2C2F11F0262
:10210C00D25CB0FA80F4C4F11F04551EE55405D11D
:10211C00DFF89C29136823EA0000106081F3118812
:10212C0030BD00002DE9F041FFF73CFFEFF31184C7
:10213C0081F31188DFF87C19425C531E435444D15F
:10214C00DFF87419DFF8748901EB80052E786F883D
:10215C00300618D5D8F80010096A38468847D8F8E0
:10216C000010896A38468847D8F80010096B384641
:10217C008847DFF8541901200860DFF8500900681F
:10218C008007FAD514E0700606D5DFF8B01951F8BF
:10219C002710002088470BE0D8F8001089693846D2
:1021AC008847D8F80010496B384688470228F8D180
:1021BC0006F03F003F2818BFFFF7B4FF687800F027
:1021CC003F003F2818BFFFF7ADFF84F31188BDE82F
:1021DC00F08110B508B1140001D1032010BD81604D
:1021EC00C26003610146DFF8EC28DFF84C09126885
:1021FC001018FFF74DFE002010BD0000F8B5044686
:10220C00DFF8F804DFF8AC180068EFF3118580F301
:10221C001188625C531C6354002A3ED1DFF8981875
:10222C0001EB8407387800F03F003F2818BFFFF718
:10223C00E5FF787800F03F003F2818BFFFF7DEFF7E
:10224C007E883878DFF87478010613D53968C96947
:10225C00304688473968496A304688473968C96AC0
:10226C003046884700F038F8DFF8600800688007CF
:10227C00FAD512E0400606D5DFF8C01851F8261042
:10228C000120884709E03968496930468847396830
:10229C00496B304688470128F9D185F311882046CF
:1022AC00BDE8F24001F086B9DFF850140A68EFF38C
:1022BC00118182F31188DFF8F82713680343136048
:1022CC00B0FA80F0C0F11F00DFF8BC27835C5B1C08
:1022DC00835481F311887047DFF8EC1701200860F4
:1022EC00704700002DE9F04F4FF000080021012845
:1022FC0083B0C1468A4618BF022412D1DFF8FC0312
:10230C00DFF834780268EFF3118082F311883A79A0
:10231C00012A06BF02223A71012180F3118809B10A
:10232C000624BDE0FFF78CFD0090012000F0E6F8DC
:10233C00040002D001203871AFE0FFF799FDDFF8FF
:10234C0028180190C1F80090012000F03DFF0128F1
:10235C0004D1002001F00EF94FF00108DFF8E0473E
:10236C00DFF85057216889680020884700F0A1F8F1
:10237C00687C08B14FF00109287C08B149F00209CA
:10238C00E87B08B149F00409E87ADFF82C6718B14A
:10239C00A16AF08D096B8847A87A18B1A16A708D73
:1023AC00096B8847FFF798FF49F02000A16A8969FB
:1023BC0088470120FFF70AFE3878C00748BF4FF066
:1023CC00010A12D4DFF8980701F020F98346BBF11B
:1023DC00040FF7D000F067F8800880000860032134
:1023EC00A26CDFF87C0752689047002001F016F9C8
:1023FC0000F05FF8A06A806B8047BAF1000F0AD139
:10240C00A26CDFF85C0752685946904700F04BF815
:10241C0040F0030008600120216889688847DFF8D4
:10242C00440700688006FAD5B8F1000F1CBF0120E4
:10243C0001F0A0F8A16A496948468847A16A496B2E
:10244C00484688470128F9D1E87A18B1A16AF08D7D
:10245C00C96A8847A87A18B1A16A708DC96A884779
:10246C00FFF73AFF0020FFF7B1FD0320387104207D
:10247C0000F044F8DFF8F0160120086000F019F8BD
:10248C0001F0DAF9082000F039F80446012038711F
:10249C000198FFF701FD01F05AF90098FFF7D4FC01
:1024AC002046BDE8FE8FDFF8D006DFF8CC160068BA
:1024BC007047DFF8C80600687047000038B58F48D1
:1024CC00DFF874560068EFF3118480F31188E88804
:1024DC00012803D100F0EEFE0020E88084F311887F
:1024EC0031BD000010B5FFF75DFDEFF3118481F3F2
:1024FC001188FFF7D5FC84F3118810BD38B500F0B6
:10250C002AF80818FFF7B0FC002540B9204600F067
:10251C0008F820B1DFF868060068804702252846D5
:10252C0032BD70B500F017F80D182846FFF7BCFC4B
:10253C000646B068204206D03169F26820469047C2
:10254C00C0B2012806D03046FFF7B2FC0646AE42B8
:10255C00EFD1002070BDDFF87C1509680446DFF868
:10256C00D805704730BF704770B501F061F9DFF8DE
:10257C0040552E6806F00C000C284BD0700727D461
:10258C00FFF7A2FC044600210120FFF781FDA042C9
:10259C001ED2DFF8140400684519DFF8140406682D
:1025AC00DFF8E0050068B0FBF6F0211A2846FFF7CB
:1025BC0053FC2846FFF754FC4FF47A70B0FBF6F24C
:1025CC0000210120FFF78EFE2846FFF741FC23E097
:1025DC0030071FD4DFF8EC04DFF8E044DFF87C555B
:1025EC00F10601685ABF4908490041F00101016038
:1025FC00DFF88405016841F00301016020202168A7
:10260C008969884728682068806B8047012028608A
:10261C00286801E0FFF7A6FF01F00EF9BDE8704055
:10262C0001F0C0B810B50C1801F002F9401E804141
:10263C00C00FDFF860150A68002AFCD0246801225C
:10264C000A6008B101F0F8F8204610BD80B50420EE
:10265C00FFF72AFE0820FFF727FE0E20FFF7CEFD1E
:10266C00DFF82405DFF824150068C0F38150032837
:10267C000CBF012000200880DFF8140502680AB1A5
:10268C00012002BDDFF8103540221A600122C26120
:10269C000020486002BDDFF8601310B50968DFF850
:1026AC00FC4482B00968202088470F202060072353
:1026BC0041F61D5060604FF4C0720220009000F093
:1026CC00C9F8DFF8DC040121016001688907FCD539
:1026DC0001212161DFF8B4442188012907D10021AF
:1026EC0001610220202100F091F8012004E0012179
:1026FC00002000F08BF80220606013BDE088000021
:10270C002DE9F041DFF89C04DFF8804482B00168C9
:10271C0042688A43426001616068002804BFBDE8DA
:10272C00F341FFF7B8BF0128DFF87C141AD102205F
:10273C00606008684BF2F52148436188000A11B1CA
:10274C000021618006E0DFF864140968090210EBCF
:10275C0011204008DFF858140860000C4860012074
:10276C0088600CE002280FD10868B0F5C06F02D168
:10277C000020606045E00321616000F06FF80121EA
:10278C00BDE8FC41002041E003283DD10020606001
:10279C000868A0F5C065A06800F0B2F806462846A7
:1027AC0000F0AEF886422CDAA669284600F0ACF8A8
:1027BC008019A061E56860697A4E85420ED0A769E0
:1027CC00A7F1100000F09CF880462069103800F04A
:1027DC0097F8804502DABFB200970BE0ADB20095D6
:1027EC0008234FF47F423021304600F096FC2069DC
:1027FC0080B2009012234FF4F8020421304600F00E
:10280C008CFCBDE8F3418AE0BDE8F38170B50D4660
:10281C00DFF8A04382B0032121600021DFF8986328
:10282C00316031688907FCD480B2009005236022A6
:10283C0000F010F80120306030688007FCD5A561ED
:10284C00002020600821DFF85003C16001600120E6
:10285C00206073BD0021534800F05FBC70B5064684
:10286C00504C82B030212046FFF7DCFEDFF81C53C1
:10287C00C0F30720E86004212046FFF7D3FEC0F325
:10288C0084402861A6F5C060A8602E6900F03CF871
:10289C008019A861A969E868022909DA401E6FF05D
:1028AC003F039842B8BF184610310BD5002109E000
:1028BC001E2908DB401C4028A8BF3F2010392029C6
:1028CC00A8BF1F21A9616861082380B200904FF452
:1028DC007F42302100F011F80120009011234FF4B9
:1028EC00003200F009F8A86980B2009012234FF46E
:1028FC00F80200F001F873BD0421204600F00DBC75
:10290C00002848BF4042704700284CBF6FF00101BF
:10291C00022101EB4000032190FBF1F0704780B5E0
:10292C00DFF87C020021016001688907FCD40021DA
:10293C00016041600120DFF8581208600E20FFF79B
:10294C00F1FB0820FFF7CEFBBDE802400420FFF7A7
:10295C00C9BB000010B504460020D4E90A2347F691
:10296C009061FEF76DFD012928BF4FF0FF3010BDBF
:10297C0010B50C4600F064FF011D201AB0F1004F99
:10298C0005D8081BB0F1004F38BF8C4200D20C4662
:10299C00DFF82C221268526A2146BDE81040012053
:1029AC001047000000A00C40C4880000C88800003C
:1029BC00E4880000AB2800202DE9F04180460A464F
:1029CC00D8E90A01D8E90C45A0FB026701FB0277A4
:1029DC00A6196F41340C002244EA07414046FFF728
:1029EC00C7FFC8E90E67BDE8F0814FF0FF3002BDAC
:1029FC000440034040100940A0010010D48800009E
:102A0C00F8B50546DFF8BC01DFF8BC610068DFF8FB
:102A1C00BC71EFF3118480F31188306840F08000B2
:102A2C0030600120B96849688847F96A096A14203E
:102A3C0088472869BA68526AB0F5802F34BF0421E0
:102A4C00010C012090473A6812682321002090471E
:102A5C00B968C96901208847306820F4E02040F447
:102A6C0080303060306840F00100306084F31188B1
:102A7C00F1BDDFF8600103684068002200211018E6
:102A8C00594170470000000088280020DFF8301101
:102A9C00DFF8280110B509684468496801208847A7
:102AAC006069A169BDE81040084700000C2008408F
:102ABC00F00600203428002050850000B8010010DA
:102ACC00A08601008C21084028200860282008409E
:102ADC00D8880000CC880000F8B504460D46FFF7F6
:102AEC00C8FFD4E90A6732463B46FEF7A9FC3DB164
:102AFC00A6FB002306FB013307FB0033C4E90C23C0
:102B0C00F2BD38B5DFF8C040DFF8C450206840088B
:102B1C0040002060206840F0800020600120E062CE
:102B2C00E06A2968496801208847696A096A1420A3
:102B3C008847E06A31BD0000F0060020AC0A002096
:102B4C009001001080B500F004F8000C40EA014040
:102B5C0002BDDFF8840000688BE700002C200940E0
:102B6C0000400340141009400C40094009B9DFF83B
:102B7C006C10FFF7A1B90000242208402C2009405A
:102B8C00D0880000DC880000B43F0050F009002021
:102B9C0004800C4000800C402C500C400C400C402D
:102BAC0034600C4028500C4008400C401020094068
:102BBC003C600C4000400C4038600C40E4010020AC
:102BCC008C010010E08800000020094084010010F6
:102BDC008C01001008200940EC010020A00100002D
:102BEC00FEE7704710B5DFF86404046814F1010FB8
:102BFC0008BF002400F098FEDFF854140020086091
:102C0C000120DFF850140860DFF84C140860DFF87E
:102C1C004C04006828B1DFF848040068204600F036
:102C2C0023F8DFF84004DFF84024016889088900A4
:102C3C0041F0005141F005010160DFF830040168FA
:102C4C006FF31B4111430160DFF824040168C1F3E9
:102C5C000131012907D10168DFF81824114041F432
:102C6C0000320260016010BD2DE9F84F0446DFF818
:102C7C00081401200860DFF8040401680029FCD066
:102C8C00DFF8FC53DFF8FC83C0202860D8F80CA0D8
:102C9C00D8F80810DFF8F00389075DBFD8F80410E6
:102CAC00090C41F0F00172210170DFF8E0130968A2
:102CBC00D8F80C20C1F304611629A8BF203901EB08
:102CCC002271491C6FF009029142B8BF114601F004
:102CDC001F0141F4F8510183CAF3C061DFF8B0035E
:102CEC0081F001010160CAF3806181F00101816012
:102CFC0014B9DFF8A0732DE0DFF89C030068C0F373
:102D0C0083615FEA8A32C0F38F2021D44FEA0A42F2
:102D1C0012160AD54FF6FF73400804D1184649081D
:102D2C0004BF01210120521CF6D4012A10DB400003
:102D3C0040F00100B0F5803F21BF0120490041F077
:102D4C000101102924BF0F214FF6FF70521EECE732
:102D5C0040EA014700F06CFD401E8041C00FCF4E91
:102D6C0031680029FCD0DFF83893C9F810700121C4
:102D7C00316008B100F060FD0CB9D82008E0C64AFB
:102D8C0010681168C0F3870001F0030140EA0120CC
:102D9C00009040F2FF3700233A462C21C14800F046
:102DAC00BCF91CB1BC48C06A8704BF0C00F040FDE4
:102DBC00401E8041C00F31680029FCD0C9F8147046
:102DCC000121316008B100F037FD002C0FBFB64F68
:102DDC00B148406A20F0033700F02AFD401E8041C4
:102DEC00C00F31680029FCD0C9F80C70012131608A
:102DFC0008B100F021FD0CB9AC4F04E0A648AC4979
:102E0C00006A01EA000700F013FD401E8041C00F6C
:102E1C0031680029FCD0C9F808700121316008B173
:102E2C0000F00AFD0CB9A34F20E09B48806AD8F84B
:102E3C000830DB07C0F30352C0F303410BD4D8F8BE
:102E4C0004301F0502EB27721B0482F3040201EB12
:102E5C00237181F30401090441EA025182B242EA6E
:102E6C000107222C24BF00F08040074300F0E0FC57
:102E7C00401E8041C00F31680029FCD0C9F8047095
:102E8C000121316008B100F0D7FC2220222C824FA6
:102E9C0006D3F86B000F00F00100400040F020005A
:102EAC00854908721120222C05D3F86B400F00F0D5
:102EBC00010040F01000202C08724FF0000B07D3DB
:102ECC00B86CC10C01F44071C0F3845040EA010BA2
:102EDC0000F0AEFC401E8041C00F31680029FCD0D0
:102EEC00C9F820B00121316008B100F0A5FC6020C8
:102EFC00202C06D3B86C000D00F00300400040F00D
:102F0C0060006D49C8728020222C06D3F86BC00E6D
:102F1C0000F00100C00040F080000870222C4FF43B
:102F2C007C4006D3F86B400D00F03F00800040F46D
:102F3C007C406249DFF888B10880202C0AD3B86C39
:102F4C000203810A02F47C1242EA815100F00F0064
:102F5C0041EA003B00F06CFC401E8041C00F316820
:102F6C000029FCD0C9F800B00121316008B100F093
:102F7C0063FC544844210170882181700CB93021C4
:102F8C0005E0F96BC90C01F0030141F03001C1708F
:102F9C004FEA9A5010F0030003D002283CD012D311
:102FAC003CE00121042000F0EDF843F2BD70E86331
:102FBC008620286401206864434801680029FCD0FD
:102FCC00002068642EE0012000F0FEF80446214643
:102FDC00042000F0D7F8042000F0F6F8A042FAD153
:102FEC00D8F800301802000A81B2E963000C28649A
:102FFC0001206864344801680029FCD00020686412
:10300C004FF06022180E314B1B681B680721984744
:10301C004FF48060C9F83800032100E0022104203D
:10302C0000F0B0F8F8692A4900F03F00087047F644
:10303C00180028490880104927480068002028609B
:10304C000860012025490860BDE8F18F1C13005071
:10305C00840460425C600C400822044380012843D5
:10306C000001204304400340000039014820034084
:10307C0004000940FFFFFCFC10100940940222439D
:10308C0000600C40A83F005056620840B812005037
:10309C0000002043FF0F0F005013005000800C4025
:1030AC0008A00C4000A00C40000088688A766800DC
:1030BC00FFFFFC00273F710041A10C40DCA10C403C
:1030CC0000803F4005A10C4084088C43B4010010E3
:1030DC000BB00C4070B00C402C20094094046042A2
:1030EC0038B504460D4600F0A3FB401E8041C00FCE
:1030FC001A490A68002AFCD0012D02D0022D02D0F8
:10310C0003E0247802E0248800E0246801220A60AD
:10311C0008B100F091FB204632BD38B500EB410000
:10312C00102B00F5007402D3103B241D120C0498D4
:10313C00984040EA024500F07BFB401E8041C00FE6
:10314C0006490A68002AFCD0256001220A60002882
:10315C001CBFBDE8314000F06FBB31BD00800C409E
:10316C0038B51D460818102D144602D3103D801C8E
:10317C00240C0221FFF7B4FF04EA000188B2E840F6
:10318C0032BD000038B50446E0070D4607D5A8B29D
:10319C0000900023012200216B48FFF7BEFFA0071F
:1031AC0007D5A8B200900123022200216648FFF740
:1031BC00B4FF600707D5ADB2009502230C220021A5
:1031CC006148FFF7AAFF31BD0146042907BF1D2343
:1031DC004FF0C0421C234FF080525B483421FFF764
:1031EC00BFBF10B5594C21688968012088475848E1
:1031FC0001688906FCD52169096840208847216946
:10320C008968402088471128F9D110BD70B5054652
:10321C0000F016FB4F4C6168401A4FF47A7148432A
:10322C00060C00F08BFB2169401A48BF4042711913
:10323C0040F6B932914207D2062805DAA068E16857
:10324C00814201D3226852B943494A68D2074FF4EC
:10325C00FA6016D40868C0B27D21484308E0081A09
:10326C003E494843000C00EB9000904238BF10469A
:10327C00C82801D2C82070BDB0F57A6F88BF4FF452
:10328C007A6070BD10B582B00120009000232E4CE6
:10329C00012219462046FFF740FF0120009003460B
:1032AC00022200212046FFF738FF00F0C9FA294915
:1032BC00886013BD80B50120FFF786FF01281AD066
:1032CC000023012234212048FFF74AFFA0B12448F3
:1032DC000068804700F0B4FA1E498B680A68C86021
:1032EC00A2EB9202C01A1D4B5843000C086090428E
:1032FC0038BF10460860012002BD10B582B0002016
:10330C0000900146104C002301222046FFF705FFD8
:10331C00002000900146012302222046FFF7FDFE0B
:10332C001C234FF0805234212046FFF719FF10B1B7
:10333C000B4800688047074C00F082FA606000F090
:10334C00FDFA206113BD000000A00C40900100109C
:10335C001410094048280020AC3F005040420F0098
:10336C0080000010DFF800F049C10110DFF800F018
:10337C0019C20110DFF800F00DC30110DFF800F0E6
:10338C0081C60110DFF800F095B70110DFF800F0EE
:10339C008DC20110DFF800F03DC20110DFF800F023
:1033AC0009C30110DFF800F045C00110DFF800F090
:1033BC00D1C70110DFF800F067BE0110DFF800F094
:1033CC0021B30110DFF800F011C80110DFF800F094
:1033DC0021C801100C2811D0192814D01D2817D081
:1033EC0020281AD021281DD0252820D02A2823D0E7
:1033FC002B2826D02C2829D000207047DFF8E40198
:10340C00006800687047DFF8DC01006840687047AE
:10341C00DFF8D001006880687047DFF8C8010068E9
:10342C00C0687047DFF8BC01006800697047DFF8BE
:10343C00B401006840697047DFF8A8010068C069F2
:10344C007047DFF8A0010068006A7047DFF894014C
:10345C000068406A704700B58BB00A2100A8FFF7DE
:10346C0089FF0BB000BD00B581B0FEF7A1FDDFF800
:10347C007801DFF878110068884218BF00F034F842
:10348C00DFF86C01B0F5B26F03D001B05DF804EB5E
:10349C002BE001B000BD00B581B00FF22100FFF7A9
:1034AC006DFFFFF76FFFFFF771FFFFF773FF01B0C1
:1034BC005DF804EBFFF772BF0000000000B581B0AF
:1034CC00FEF7D6FCFEF7BCFC01B05DF804EB032064
:1034DC00FFF768BF10B504460320FFF763FF2046D3
:1034EC00BDE81040FFF762BFFEE7FEE700B581B014
:1034FC00FFF760FFDFF8FC00C06801B05DF804EB7B
:10350C00FFF75CBFDFF8F010DFF8F0008861704760
:10351C00DFF8EC1001280CBF40F2FF7000200860AF
:10352C000020704730B581B0FFF71CFFDFF8D45096
:10353C000446E88820B1FFF7BDFE60B10020E880AA
:10354C00FFF784F805461020FEF7D8FF012D0BD1AC
:10355C00FFF7A1F808E0052105F13000FEF77CFC2F
:10356C0005F13000FEF77CFC204601B0BDE8304090
:10357C00FFF7FCBE10B5012818D1FFF725FE012876
:10358C0016D0FFF77FFEDFF87C400120E08004F1CD
:10359C003000FEF75DFC052104F13000FEF75CFC09
:1035AC0004F13000FEF75CFC002010BDFFF7A5FE17
:1035BC00002010BD10B501240E2805D10120FFF705
:1035CC0003FE012805D003E0DFF83C10405C00B995
:1035DC000024204610BD00207047FFF7F3BEFFF714
:1035EC00F5BE0000F001002098CA01107047282099
:1035FC009005000078010020440100200004000028
:10360C0000000460F0060020342800200068010748
:10361C0001D50420704700F003007047F8B505464B
:10362C007748784C0068800705D50820A07176494A
:10363C0076480860F1BD00F081F9754A12680021E6
:10364C0012F0030F18BF0121520748BF41F00201CD
:10365C000DB141F0040194F90720821A052A02DA0F
:10366C00A279914259D0A0F10F0200250023002A23
:10367C001FD402EB02121312082B28BF07231D467E
:10368C00072D28BF0625634E06EB850756F82550F7
:10369C007F687E1BF5B24F0744BFC6F307277D1921
:1036AC008F0744BFC6F307477D19CF0748BF05EB0B
:1036BC001665584E56F82370FEB25FEA417C44BF43
:1036CC00C7F3072C66445FEA817C44BFC7F3074C01
:1036DC0066445FEAC17C48BF06EB1766A2EB032287
:1036EC006A434D4B1D681B68A1718032092A9241B7
:1036FC002D17C5F108053427D243DBB27D436B434C
:10370C0006EBD272B3FBF2F2B2F5803F28BF4FF654
:10371C00FF7200F30700A280E07140480068A188A6
:10372C00206000201F2904D21F21A18004E0490839
:10373C00401CB1F5007FFAD20F39090940EAC100EB
:10374C00314A37490843106000205060F1BD10B574
:10375C003448006884B224B300F0F0F8294991F998
:10376C000720904205DA6FF07F029042B8BF1046F6
:10377C00C8718888844201D28C8010BD274A126897
:10378C000B68D21A921C202A28BF1F22231A520817
:10379C0023FA02F42018B0F5803F28BF4FF6FF70D3
:1037AC00888010BD2048006800B9704710B41F49CC
:1037BC008A6802F04063B3F1406F1ED04B689B07E0
:1037CC001BD40F4B1C680968C1F303511C31090150
:1037DC0014F0050F06D088420FD224F005001860B3
:1037EC0010BC7047814208D2100158BF44F001044C
:1037FC00500158BF44F004041C6010BC704700001A
:10380C00000009409028002030100940FDFDA40064
:10381C00242208409C130050B43F0050082009405B
:10382C0000FFA4803410094028500940AC3F0050E0
:10383C00EFF3108072B67047EFF3108062B67047EA
:10384C0038B5FFF7F5FF06490C684D68401E8041FE
:10385C00C00F18BFFFF7F0FF280C40EA044032BD40
:10386C00082009402D480068000C00F007000328D0
:10387C0028BF4FF0FF30704729490968C1F30F3159
:10388C004BF69A1291424FF0FF3001D10020704755
:10389C004BF6BE12914201D1012070474BF62032FB
:1038AC00914208BF0220704710B41D491D4B0A6895
:1038BC001B680968120FDBB2802B28BF0023C1F3F1
:1038CC000F314BF69A14A1424FF0FF300CD1012A64
:1038DC0008D0032A1DD0072A1DD0082A08BF03F1DF
:1038EC00160013E00A2011E04BF6BE14A14206D1DB
:1038FC00002AF7D0022A09D103F1140006E04BF696
:10390C002034A14204BF002A03F10A0010BC40B2CB
:10391C0070471420FAE71520F8E7000094120050C5
:10392C0018130050A010005080B5FFF7A5FF18B970
:10393C00FFF7BAFF162800DAFEE701BD0748084A70
:10394C00816812780068C90352B2A0F54070C9139F
:10395C005043A1EB201080300012704728500940D2
:10396C000C130050DFF800F0D9C10110DFF800F0A3
:10397C00ADB50110DFF800F019AE0110DFF800F062
:10398C0041AC0110DFF800F0E5C10110DFF800F0E8
:10399C00CDA00110DFF800F085C20110DFF800F0B7
:1039AC0081C20110DFF800F055C10110DFF800F002
:1039BC0043C20110DFF800F079AB0110DFF800F022
:1039CC00D9B60110DFF800F085C10110DFF800F066
:1039DC00EDB30110DFF800F0C1C1011020B10823D4
:1039EC002C220021FFF7C2B8704720B108233C22DB
:1039FC000021FFF7B7BF704780B5FEF721FAADF88D
:103A0C000000FFF7AFFCADF80200009802BD01B555
:103A1C00BDF80200FFF7AAFCBDF80000BDE80240AB
:103A2C00FEF712BA38B5DFF86448DFF864580020A6
:103A3C00A4F86C0AE820208040F68410A4F8E80072
:103A4C0004F1E8006860002000F003F8A8606C60E6
:103A5C0031BDF8B500240025061D16F003001CBF6F
:103A6C00311D0E1AFFF7C8FFDFF82418B6B2086034
:103A7C00112EB4BF4F688F6839880B0403D581F4BD
:103A8C000041002519E0A5B123883A88134423800E
:103A9C009BB2B34211D327461946B7B1891B89B2E1
:103AAC000429A7BFF15346F40041398841F4004181
:103ABC0009E0B142F1DA01253C46CF1939880029D9
:103ACC00DBD1002701E027F8041BFFF7A0FF3846E5
:103ADC00F2BD10B50446FFF78FFFDFF8B417221FB5
:103AEC00086013885B045B0C13804B689A4238BFE8
:103AFC004A60BDE810408AE738B50446FFF77CFF02
:103B0C0000210C23DFF88C2703FB0125AA6C4AB19A
:103B1C00944204D1FFF77BFF05F1480032BD491CEC
:103B2C000429EFD3FFF773FF002032BD70B50546B3
:103B3C00FFF762FF044600200C22DFF8581702FB47
:103B4C00001101F14806316849B90020B0603560B8
:103B5C000022FFF70BFF706018B900F069FC8D4272
:103B6C0004D12046FFF753FF304670BD401C04289B
:103B7C00E3D32046FFF74BFF002070BD38B5044659
:103B8C00FFF73AFF0025DFF80C170C2202FB051299
:103B9C00128842B1944203D1FFF739FFA8B232BD6B
:103BAC006D1C062DF1D3FFF732FFFF2032BD10B58F
:103BBC0004462088FFF7E2FFFF2800D169E1DFF817
:103BCC00D4160C2202FB00108168080002D16FF0A1
:103BDC00010010BD2046BDE81040084702460FF218
:103BEC00A070104710B500200C21DFF8A826002487
:103BFC0001FB0023401C04289C641C65F8D30020A6
:103C0C00034601FB0024401C06282380F9D308201E
:103C1C0010800FF255709060BDE8104002E770B54F
:103C2C0090B0FEF70DF9044600A8FFF7DEFE052064
:103C3C00069000224FF44870089000A94FF2010042
:103C4C000490DFF854060590DFF85006FFF792FE5B
:103C5C00050006D0FFF7D0FE06462846FFF766FFA4
:103C6C0008B900F0E5FB3046FFF7D1FE2046FEF721
:103C7C00EBF810B070BD70B500F0E4F8FFF756FF2C
:103C8C000546FFF7B9FEA2880021DFF808360C269E
:103C9C0006FB01331E883EB91A805D60A2689A60EB
:103CAC00A1816968216165E7B24204D1FFF7AFFEDB
:103CBC006FF0020070BD491C0629E6D300F0B8FB7A
:103CCC0000BF38B500F0BEF8FFF730FF050016D086
:103CDC00FFF792FE0021DFF8BC250C2303FB012229
:103CEC0013884BB94FF6F87313805560002393601B
:103CFC00A1806968A16015E7491C0629EBD300F087
:103D0C0097FB00BF10B5044660680C3080B2FFF71B
:103D1C00A0FE00B91AE06168018100210160FF2159
:103D2C0081720C30A060002010BD80B540680C384A
:103D3C0011E080B28DE610B50446606880B2FFF7E2
:103D4C0088FEA06000B901E0002010BD6FF00300F8
:103D5C0010BD80B54068FFF7BCFE002002BD38B531
:103D6C0004460D46FFF748FE002145F80C1C21685F
:103D7C0011B9256006E0114651F80C2C002AFAD135
:103D8C0041F80C5CBDE8324041E62DE9F0410446B7
:103D9C006FF00206E068A0F10C05E0880628BCBFB5
:103DAC00A08806280BDAFFF727FEE188DFF8E48409
:103DBC000C2707FB0181496819B9FFF728FE30462B
:103DCC0017E0FFF724FEA0882871E0886871207A3C
:103DDC00A871E088E16807FB008040680830FFF7B5
:103DEC00BEFFE08807FB008040684068FFF7C6FD17
:103DFC000020BDE8F08170B500F024F8FFF77CFEE0
:103E0C0010B96FF0040070BD00F10806FFF7F4FD67
:103E1C003168002541B10D46A5F10C010A683260EC
:103E2C0000220A60FF228A72FFF7F1FDA560A5F15E
:103E3C000C010DB9022070BD0879A0804879E08092
:103E4C00002070BD0446FFF79DBD06280BDADFF895
:103E5C0044240C2303FB0020008800281CBF4FF6D1
:103E6C00F872904202D14FF0FF307047088000206A
:103E7C007047811D8088E8E710B50446E088FFF79D
:103E8C007DFEFF2800D104E0E0802046BDE8104014
:103E9C007BE74FF0FF3010BD3EB50446FFF7ABFF9C
:103EAC00050017D1A08800A9FFF7CFFF78B1A06853
:103EBC0002900821ADF8041001A80321ADF80610FA
:103ECC00DFF8DC13896888476FF005003EBDBDF84C
:103EDC000000A08028463EBD10B5DFF8C82312684C
:103EEC000C464FF47A71A1FB00010023FDF7A8FAF0
:103EFC00002902D8B0F1004F02D36FF0020010BDC0
:103F0C002060002010BD38B5FFF79CFFFFF7F4FDD3
:103F1C000546FDF7D5FF002818BF012800D015B9BC
:103F2C006FF0040032BD606840B900900099686879
:103F3C00FFF72CFD401E8041C00F32BD10F1010F68
:103F4C0008BF4FF0FF30F0D000F050F90028EDD052
:103F5C0032BD80B54068FFF711FD002002BD00F0B6
:103F6C0067FA00BF80B54068FFF714FD002002BD62
:103F7C0080B54068FFF712FD002002BD80B5FFF749
:103F8C0011FDFFF713FD002002BD80B5FDF758FFB2
:103F9C00FFF7E8F9002002BD10B58CB0044600A86C
:103FAC00FFF71CFDE02000F013F808B900F040FA10
:103FBC000BE010B58CB0044600A8FFF70FFDE068CD
:103FCC0000F006F808B900F033FA00200CB010BD70
:103FDC0008900023A168606800AAFFF7EBBC10B53D
:103FEC000446FFF7EBFC6060002010BD01468868BA
:103FFC0049680847F0B507468BB0BC68A84D6CBB48
:10400C000C20FFF726FD04006FF003061ED00823DA
:10401C002422002101A8FFF7D5FC0020ADF81400E4
:10402C0006900794002379689F4801AAFFF7CEFCFD
:10403C00206068B90820ADF800000C20ADF8020033
:10404C0000A8A96888472046FFF743FD304618E0D2
:10405C00F86860603869A060BC600AE02868804736
:10406C0006462068FDF7F4FE3869A06030466968A2
:10407C00884779682068FDF7EFFE2068FDF7F0FEB1
:10408C0000200BB0F0BD10B5044682B0606800F0A3
:10409C00ADF820B9009860602046FFF7ABFF16BD65
:1040AC0080B5406810B96FF0020002BD0068FDF7E2
:1040BC00CFFE002002BD7B4909684160002070479B
:1040CC0050B50446774802686FF00046A6FB020123
:1040DC0000234FF47A72FDF7B3F9002902D8B0F13E
:1040EC00004F00D330466060002050BD2DE9F041F8
:1040FC0086B00646FFF746FCFFF7FEFC04460020A0
:10410C0002900025FDF7DCFE002818BF012800D026
:10411C0014B96FF0040066E0706820B110F1010F63
:10412C0003D14FF0FF30009004E000F05FF85FEA3D
:10413C00000857D1FFF742FC00994FF001080F1807
:10414C0000E0009000996068FFF720FC80B303A8A2
:10415C00FFF751FE5FEA00081AD1BDF8100001A963
:10416C00FFF773FE80B9059ABDF81210BDF8040074
:10417C00B368984740B1BDF80400B081BDF8120097
:10418C00F0810598306113E0059902A8FFF7E7FD6F
:10419C0000986D1C10F1010F18BF00284FF001089A
:1041AC00D0D0FFF70BFC381A02D000998142C8D24C
:1041BC00029EFFF721FC04F1080756B1314600E0DE
:1041CC00114651F80C2C002AFAD13A6841F80C2C03
:1041DC003E60FFF71CFC002D03E06068FFF7CEFB90
:1041EC006D1EFAD1404606B0BDE8F08100A973E619
:1041FC00F8B5FFF727FE0546FDF762FE002818BF4D
:10420C0001286FF0040613D0FFF7F6FB0021214ABA
:10421C000C234B439F5A4FB19B185B681B68AB42F6
:10422C0001D1A18042E0491C0629F1D3FFF7EFFB35
:10423C003046F2BDF8B50446FDF742FE002818BF23
:10424C00012802D16FF00400F2BDFFF79BFB05467D
:10425C00FFF7D2FBA7880F4A00210C234B439E5A31
:10426C006EB1BE4208D1991849680968A9420CBFC1
:10427C0001210021A16019E0491C0629EDD3FFF7AB
:10428C00C6FB4FF0FF30F2BD00000000300B0020E9
:10429C007C28002054270020D4090020E93B000092
:1042AC00A00A0020E4880000F93F0000FFF7AFFBF4
:1042BC000020F2BD70B504463C20FFF7CAFB050098
:1042CC006FF0030611D0FFF790FB207AA861002253
:1042DC00608928622946E06828616068FFF74AFB1C
:1042EC0004462846FFF7F5FB0CB9304670BD00209C
:1042FC0070BD70B504462420FFF7ABFB05006FF0D2
:10430C00030613D0082324220021FFF763FB207936
:10431C00012808BF2876A06800222946FFF726FB53
:10432C00E0602846FFF7D5FBE06808B9304670BD61
:10433C00002070BD10B5044682B0A06840B9009052
:10434C0000996068FFF722FB401E8041C00F16BD2C
:10435C0010F1010F08BF4FF0FF30F0D0FFF746FF10
:10436C000028EDD016BD00004188292902D36FF03A
:10437C00010070470FF2140252F821100847000098
:10438C00BB3B0000053A00001B3A0000833C0000D8
:10439C00CF3C0000113D0000373D0000433D0000C4
:1043AC005F3D0000973D0000033E0000853E00008D
:1043BC00A53E0000133F00005F3F00006B3F000074
:1043CC00713F00007D3F0000893F0000973F0000D7
:1043DC00A53F0000EB3F000093400000C3400000ED
:1043EC00CD4000007F3E00000D820000D582000011
:1043FC00F9400000FD41000001400000AD4000000C
:10440C006F820000A7820000BB82000041420000C6
:10441C000D83000029830000C1420000FF42000010
:10442C00414300001F83000037830000BF3F0000A2
:10443C00012000F001B800002021090326311820CA
:10444C00ABBEF9E7DFF800F025B101102DE9F84C0F
:10445C00DFF83C790C46002640F2013B92467B7813
:10446C00398A97F804C097F803E0B0EB0B0540F6D7
:10447C007B4232D06D1E37D06D1E3DD0AD1E41D06B
:10448C006D1E00F07D806D1E00F080806D1E00F0B2
:10449C008D806D1E00F09D806D1E00F0A2806D1E43
:1044AC0000F0A7806D1E00F0AD806D1E00F0B28094
:1044BC00ED1E00F0B7806D1E00F0BC806D1E00F08C
:1044CC00C1806D1E00F0C6806D1E00F0CB806D1F8C
:1044DC0000F0D380AD1E2ED0E7E0102C05D11022B9
:1044EC00514607F1A4008AE0102C40F0DC80102229
:1044FC00514607F1B40082E0042C6BD1DAF80000CD
:10450C00F862DDE0012C65D1BCF1010F36D09AF8D0
:10451C000000F870BEF1000F06D00028F1D1022B7C
:10452C001BD0052BEDD118E00028EAD0012B21D0AF
:10453C00042B1DD11EE0012C4CD1BEF1010F1DD05E
:10454C009AF800003871BCF1000F0AD0002807D18E
:10455C00032B1CBF072B052B02D1C8B200F08CFE1D
:10456C00AEE00028FCD0012B1CBF042B062B01D085
:10457C00052B02D1012000F004FCA1E012269FE0E3
:10458C00022C27D1BAF80000B88299E0202C0EDA60
:10459C0007F1CC061F21304601F07AF800F097F8AD
:1045AC00388A7C713346224601210EE0202C7ADABF
:1045BC0007F1EC061F21304601F06AF800F087F88D
:1045CC00388ABC71334622460021C0B200F037FE57
:1045DC0073E0012C67D19AF80000052863DAF871B2
:1045EC006EE0012C5FD19AF8000004285BDA387277
:1045FC0066E0062C57D10622514607F58670FCF76B
:10460C0097FF5DE0012C4ED19AF8000008284ADA99
:10461C00787255E0012C46D19AF80000042842DA51
:10462C00B8724DE0012C3ED19AF8000002283ADA1B
:10463C00F87245E000F047F835D1811F914232D233
:10464C0038833DE000F03FF82DD1811F91422AD2F2
:10465C00788335E000F037F825D1B0F5FA7F22DA0F
:10466C00B8832DE000F02FF81DD1A0F10A0140F61F
:10467C007742914217D2F88322E0012C04BF9AF8BA
:10468C00000001280FD107F1800001F05EF840B95D
:10469C0000F01CFB060013D107F15C0001F05CF884
:1046AC000EE016260CE018260AE0272807DA022C62
:1046BC0005D1BAF8001000F0F2FD064600E0022623
:1046CC003046BDE8F28CBAF80000022C7047224646
:1046DC0051463046FCF72CBF38B500244FF44073DC
:1046EC000D46C21ADFF8A81636D0521E36D0521E0E
:1046FC0037D0521E38D0521E39D0521E3AD0521ECC
:10470C003CD0521E3CD0521E3DD0521E3ED0521EAA
:10471C003ED0521E3ED0521E40D0521E40D0521E91
:10472C0040D0921E40D0521E40D0521E40D0521E3D
:10473C0040D0521E40D0521E40D0521E45D0521E68
:10474C0045D0521E45D0921E47D0521E14D0521E38
:10475C0041D0521E43D045E0887841E01022A4316C
:10476C002FE01022B4312CE0C86A286041E0062208
:10477C00C43126E0C87833E0087931E0888A35E026
:10478C004A79CC311DE08A79EC311AE0C87927E0FE
:10479C00087A25E0062201F5867112E0487A1FE0BE
:1047AC00887A1DE0C88A21E0C87A1FE0088B1DE0DA
:1047BC00488B1BE0888B19E0C88B17E0062201F5AB
:1047CC008A712846FCF7B4FE13E0088C0EE0488C86
:1047DC000CE0888C0AE0087B02E0487800E0487B1B
:1047EC00287006E0272803DA00F075FD288000E029
:1047FC000224204632BD1CB5DFF89445617889B996
:10480C0000B1206304F12C00019004F1B40000907D
:10481C0004F1A403208AA1780022C0B200F0CAFCE3
:10482C00002016BD112016BDDFF86405417806295D
:10483C0018BF072905D1C18A008A1322C0B200F023
:10484C00DFBC1220704700B58FB008233C2200213A
:10485C0000A8FFF787F8DFF83C0500F1500107913D
:10486C0000234FF4DC71089100AA032106910FF28A
:10487C00D101FFF7E7FD0FB000BD70B584B000F0BB
:10488C0016F90120DFF81015DFF8044509680FF25E
:10489C000D55ADF8020000A88847BDF80400208231
:1048AC000298A062002060704FF6FF70E08200F06A
:1048BC0030FD20700023012001902946002000903B
:1048CC00024604F1380000F005FF022000F030F839
:1048DC0004F15C0000F0FEFE042000F029F804F165
:1048EC00800000F0F7FE0420A07004F1A402002068
:1048FC000146034605462BC204F1B40506464BC5DA
:10490C00E062E0712072A17207206072103A1021EF
:10491C00022000F073FE103D2A461021032000F007
:10492C006DFE042104F12C02084600F067FE7FBDE9
:10493C000190294600200090034602467047000073
:10494C00FEB5FFF79AFFDFF84854DFF84C4405F149
:10495C00800700F0ACF80A20ADF802004FF0FF30F1
:10496C00019000A82168884700284BD100F09FF8DF
:10497C000920ADF8020000A821688847BDF8061090
:10498C00029E00283ED1BDF80400102804BF288ADE
:10499C0081422DD130884FF6FF71884209D1708841
:1049AC00400425D505F12C020421042000F03BFE27
:1049BC001EE03078A22805D0D02804BF304600F085
:1049CC007AF815E07079132812D13089012804BFC8
:1049DC00A87B022805D1384600F0BEFEFFF724FF65
:1049EC0006E0052000F077FC0146384600F098FE02
:1049FC0046B100F05CF80320ADF80200019600A867
:104A0C0021688847688AC10730D54FF6FE71084087
:104A1C006882E9782879014328D018B103208DF8F1
:104A2C0000000CE0E8798DF800000622287A8DF859
:104A3C00010005F586710DF10200FCF779FD687A2D
:104A4C008DF8080000A9A87A8DF80900288AC0B250
:104A5C0000F0F1FB00281FBF08206870286B0028AD
:104A6C0004D0016808001CBF08208847688A8107A9
:104A7C0006D54FF6FD7108406882002000F026F93B
:104A8C00688A41070AD54FF6FB7108406882A87BFB
:104A9C00012804D0022808BFFFF7C6FE59E7009092
:104AAC00EB8BAA8B698B288B00F044F951E708201B
:104ABC00ADF800007047F8B50546B54CA878010074
:104ACC0004F58A7704F1800612D002283BD0032823
:104ADC0018BF04285BD0052800F08180062800F060
:104AEC00AB80072800F0CD800F2800F0E980F1BDE5
:104AFC006878D8B904F1A4021021022000F093FDCB
:104B0C0004F1B4021021032000F08DFD0622E91CF3
:104B1C0004F1C400FCF70CFD0120607004F1CC031F
:104B2C00208A62790121C0B200F089FB08B108200B
:104B3C006070206B30B10168080003D06078BDE86C
:104B4C00F4400847F1BD6878E8B9E87848B1208AA4
:104B5C00A27904F1EC030021C0B200F070FB687084
:104B6C0011E06078022818BF07280CD0062802D163
:104B7C002079012807D104F1380000F0E6FD10B9C6
:104B8C00012000F0FEF868780028DBD0CFE76978C8
:104B9C000029CCD103280AD16078062808BF072049
:104BAC00C6D0E07800280CBF03200220C0E7A18A01
:104BBC00E078002907D0227910430AD004F138009C
:104BCC0000F0AEFD05E0012807BF0020E0700020DA
:104BDC0020716078072814BF04200620A8E76878A5
:104BEC0020BB0622291D3846FCF7A2FC6889E0820E
:104BFC0006206070E8892084288A6084688AA084F2
:104C0C00E8782073E07A012809D11F2000F063FBBB
:104C1C004FF47A71414304F15C0000F081FD6A8924
:104C2C00E8780423291D00F0D5F982E73128B0D1AA
:104C3C000020E07004207BE7A88800F0E2F9062150
:104C4C00384600F025FD002020846084A084A879DB
:104C5C00607304F15C0000F07FFD304600F07CFDD9
:104C6C004FF6FF70E082207908B1032060E7A87945
:104C7C0008280CBF052004206070012000F081F88A
:104C8C0057E7304600F068FD687800280AD1E888BC
:104C9C002084288960846889A08404F15C0000F079
:104CAC0054FD00287FF44EAF636B002B3FF44AAFEA
:104CBC001B68A28C618C208C01B0BDE8F0401847B9
:104CCC00A888BDE8F440052100F0DBBAFEB5304DF4
:104CDC00298B0446288C884224BF698B814207D3D8
:104CEC00688CA98B884202BFA88CE98B88421ED0A5
:104CFC00052000F0F0FA0646E88AADF80000288B93
:104D0C00ADF80200688BADF80400A88BADF8060076
:104D1C00E88BADF8080000A800F06DFA070007D189
:104D2C00AC73314605F1800000F0FAFC00E0182766
:104D3C003846FEBD70B5164C6578062D01D0142092
:104D4C0070BD40F67A45861FAE423CBF8E1FAE4208
:104D5C0015D2B2F5FA7F12DAA3F10A0540F67646BF
:104D6C00B5420CD220836183A283E3830498FFF7BE
:104D7C00ADFF04F15C0000F0EFFC002070BD1820CA
:104D8C0070BD03494A8A10434882886AFEF7F6BD13
:104D9C005C040020F41E0020A80A0020F1E70000AB
:104DAC00E0B50821ADF800100190022100F00FF8D9
:104DBC0008B100200EBD02980EBD00B583B00821CD
:104DCC00ADF800100190032100F001F807BDADF81B
:104DDC00021000A8DFF87413096808471FB5ADF876
:104DEC000610ADF804000824DFF860138DF80820D5
:104DFC000393ADF80040ADF8024000A8096888475D
:104E0C0004B010BD30B585B0144608220291ADF83F
:104E1C0000201922DFF8341309680190ADF8022044
:104E2C001D4600A8884714B1BDF80C10218015B19F
:104E3C00BDF80E102980089A0499116005B030BD98
:104E4C0000B583B00820ADF800001A2000F014F86B
:104E5C0010B9BDF804000EBDFF200EBDE0B5ADF8D5
:104E6C000000ADF80610002000F006F810B99DF80F
:104E7C0008000EBDFF200EBDDFF8D0120968ADF89A
:104E8C00020000A8084750B110F1040F01D1042012
:104E9C00704710F1030F01D10220704701207047B9
:104EAC008123037042EAC111002341F47C41C37099
:104EBC00818070478223037081800023C3708271CC
:104ECC0070473EB504460820ADF800000D46202082
:104EDC00ADF802001020DFF874120968ADF8040078
:104EEC0000A8884720B9029810B16FF004003EBDAD
:104EFC0000950023002221464FF0FF30FFF782FF80
:104F0C003EBD10B51446CA78012A82B003D18A88F6
:104F1C00DFF8E4341A8000F010F858B9009000A9BA
:104F2C002046FFF7CEFF28B900984478FFF745FFDD
:104F3C00204616BDFFF7A7FF16BD0B460222102117
:104F4C004CE738B51C461546FFF7F7FFB8B900908B
:104F5C0000A92846FFF7B5FF88B900984578002DC1
:104F6C0004BFC079A04205D10098816804982246FC
:104F7C00FCF7DEFA0098FFF720FF284632BDFFF75A
:104F8C0082FF32BDF8B500F056FA00F0BFF9070009
:104F9C000DD032462946FFF78DFF00F048F93872E4
:104FAC00FFF74EFF3B4601B0BDE8F0403AE0F1BDE3
:104FBC0010220121E6E738B500F0E1F9050004D034
:104FCC00042200F032F8AC6026E031BD3C81BD72A9
:104FDC00FE6035E72DE9F04100F05AF907000FD0DB
:104FEC00142200F022F83C72FD603E8287F8128099
:104FFC00FFF726FF3946BDE8F041DFF8002480E7D3
:10500C002FE038B500F033F8050001D0152200E090
:10501C0031BD00F00AF82C81FFF712FF2B4601B0CE
:10502C00BDE8304002221021D8E6012142E70022DF
:10503C00042176E02DE9F04100F02AF9070010D0A8
:10504C0002220421FFF736FFBC60BD81BE73C7F896
:10505C001080FFF7F5FE3946BDE8F041DFF8A023DC
:10506C004FE70420BDE8F081102202218AE70446B4
:10507C000A2095E602211DE7F8B500F07AF9070041
:10508C000AD01522FFF7F6FFFFF7A0FF3946BDE85F
:10509C00F840DFF8702334E70420F2BD002203212E
:1050AC003FE000B583B00FF2490301930623009350
:1050BC00032300F04DF80EBD1078802802BF5088F5
:1050CC0040F27F61884208D19088984202BF917962
:1050DC000098814201D1012070470020704710B523
:1050EC0082B00624FFE70094FFF7E6FF16BD000030
:1050FC000323F4E71078802802BF508840F27F61C8
:10510C0088420CD19088032818BF042807D19079C5
:10511C0000281CBF1028112801D101207047002045
:10512C007047F8B500F013FA07000CD03246294648
:10513C00FFF7C0FEBC60FFF783FE3946BDE8F840C0
:10514C00DFF8C422DDE60420F2BD0000A80A00202E
:10515C002DE9F04100F027F807000AD0069A4146E5
:10516C00FFF7A8FE3C817D81FFF732FF079A00F024
:10517C0015BA76E74246032192E670B582B000F08C
:10518C005AF9FFF75DFE1B210091C3B23246294646
:10519C00204600F0FEF876BD10B582B01D240094B8
:1051AC0000F0F7F816BD04460D461646984610203A
:1051BC00FFF7F6BD2DE9F04180460D4616461F4619
:1051CC001820FFF7EDFD040014D0002200F05DF86C
:1051DC0000F00BFA20726572A672E76006982061E7
:1051EC0007986061FFF72CFE2146BDE8F0410FF2F5
:1051FC00BD2286E635E70FF2B923112200211EE10C
:10520C00F8B500F0C0F807000FD00A2200F03DF806
:10521C0000F00DF838727D813E73FFF711FE3946B0
:10522C00BDE8F8400FF28D226BE60420F2BD21465A
:10523C005020FFF713BE0FF28123062210E12DE957
:10524C00F04180460D4616461F461020FFF7A8FD7C
:10525C00040010D0072200F018F800F0C6F92072F4
:10526C006572A672E760FFF7EBFD2146BDE8F041E1
:10527C000FF2492245E6F4E60FF2452308220021FD
:10528C00EEE00FF241231022C4E00421FFF708BE28
:10529C0004460D46164698461420FFF781BD70B59E
:1052AC0000F014F806000BD03022FFF7EEFF00F0F0
:1052BC0009F83146BDE870400FF20D22FFF721BE10
:1052CC00042070BD34817581FFF7BABD04460D46CC
:1052DC000C20FFF765BD30B583B004460020ADF857
:1052EC00040000F013F805000DD03122FFF7CDFFBC
:1052FC002C81FFF7A5FD01A9009102230FF2CD121D
:10530C002946FFF71EFEBDF804003EBD0A20FFF73C
:10531C0047BD1CB500208DF8040000F012F8040005
:10532C000CD01222FFF781FEFFF78AFD01A9009134
:10533C0001230FF29D122146FFF703FE9DF8040096
:10534C0016BD0820FFF72CBDF8B500F012F80700C9
:10535C000DD03622FFF799FF3C817D81FFF738FE97
:10536C003946BDE8F8400FF27912FFF7CABD0420A8
:10537C00F2BD04460D4616461020FFF711BD04463B
:10538C000C20FFF70DBD04460D4616460E20FFF708
:10539C0007BD2DE9F041FFF77BFF070011D0069AFE
:1053AC00FFF7E9FE3C813E74FD6000F01EF9787455
:1053BC00FFF746FD3946BDE8F0410FF25912FFF7F1
:1053CC00A0BDFFF74EBE38B51446104A15682A002A
:1053DC0006D0009302460B4621460120A84732BD59
:1053EC00002032BD0A4A13681A0003D00A4601464F
:1053FC0001201847704700001E0B0020415500008B
:10540C00515500004755000001510000982800201C
:10541C009C2800202DE9F04100F00DF898460C2056
:10542C00FFF7BEFC070004D000F016F83C81BD72FB
:10543C00B1E0FFF716BE04460D46164670472DE93F
:10544C00F041FFF7B0FE070004D000F005F8BC6097
:10545C00FD60A0E0FFF705BE32460421FFF720BD3A
:10546C002DE9F041FFF79FFE070006D0FFF7F4FF90
:10547C00FFF7DDFE3872FD608DE0FFF7F2BD1078AE
:10548C00802802BF508840F27F6188420CD19088FE
:10549C004FF680710140B1F57E4F04BF00F07F00E4
:1054AC00984201D101207047002070470023E6E7A5
:1054BC001123E4E70A23E2E70623E0E70723DEE70C
:1054CC000823DCE71023DAE73023D8E73123D6E7CB
:1054DC0080B5122300930123FFF7EEFD02BD0000FF
:1054EC003623CCE71078802802BF508840F27F61C9
:1054FC0088420DD190884FF6807101404FF6805252
:10550C00914204BF00F07F00984201D10120704706
:10551C000020704770B5FFF78EFF1D23FFF7E2FFE9
:10552C0030B9324629462046BDE870401B23D9E7E6
:10553C00012070BD80B51423CCE780B515230093F2
:10554C000223C9E780B5022300930423C4E7044671
:10555C000D4616460C20FFF723BC2DE9F041FFF752
:10556C006AFF98460E20FFF71BFC070009D000F0DD
:10557C000AF83D817E81A7F80C80FFF761FC069A42
:10558C000CE0FFF76EBD812038700120F870BC80F4
:10559C0070473D81FE60FFF753FC42463946BDE83B
:1055AC00F041FFF7AEBC1078802802BF508840F263
:1055BC007F61884204BF9088984201D101207047D6
:1055CC000020704738B50446154600F00FF80FF26E
:1055DC0025010091C2B22B4621464FF61840FFF729
:1055EC00BCFF32BD3C817D81BE8141465020FFF71E
:1055FC0035BC00004FF61843D5E70000F8B5FFF7AF
:10560C00B8FE07000DD0012200F022F83C727D722A
:10561C00FFF7DEFC3946BDE8F8400FF26D02FFF7EC
:10562C0070BC0420F2BDF8B5FFF7A3FE07000DD047
:10563C00022200F00DF83C727D72FFF7C9FC39466E
:10564C00BDE8F8400FF24502FFF75BBC0420F2BD49
:10565C000521FFF725BC1078802802BF508840F246
:10566C007F6188420DD190884FF6807101404FF6D2
:10567C008062914204BF00F07F00984201D101206A
:10568C0070470020704700000123E4E70223E2E7A3
:10569C00002200F0D7B80000DFF800F079B5011057
:1056AC00DFF800F0F5B80110DFF800F0B5C101101B
:1056BC00DFF800F0A9C1011000B583B00821ADF8E6
:1056CC00001001900521ADF8021000A85549096899
:1056DC00884707BDF0B589B004460D4616461F46EF
:1056EC0008232422002100A8FEF76CF90F984E49DC
:1056FC000968069000AB4FF47A70B0FBF1F101FB36
:10570C0007F0059001FB06F20E98ADF81000294643
:10571C002046FFF7C1FF204609B0F0BDFCF7A0BB47
:10572C0038B504460D46FCF734FC10B12046FCF7A6
:10573C008FFB00F013F800FB05F12046FCF78CFB07
:10574C002046BDE83240FCF78BBB80B5FCF721FC52
:10575C0000B10120C0B202BDFCF77ABB3249096826
:10576C004FF47A70B0FBF1F0704710B5044600218D
:10577C00FFF796FF204610BD70B584B00446082094
:10578C00ADF800000D460420ADF802000C202549B0
:10579C0009680190164600A8884758B9029949B182
:1057AC008E602046FFF780FF15B12846FEF7E6F81D
:1057BC00012003E03046FFF77FFF002004B070BDEE
:1057CC0010B50446FCF750FB38B92046FFF770FFC4
:1057DC008468FFF771FF204610BD002010BD30B566
:1057EC0085B0044600A80FF248011422FBF7B0FE66
:1057FC000E4830210170A21D782141700623811CB6
:10580C0000AC12F8015D2D095B1E2D5D01F8015BEA
:10581C00157805F00F052D5D01F8015BF1D105B090
:10582C0030BD0000A80A0020E48800005C2800209D
:10583C0030313233343536373839414243444546BA
:10584C0000000000401810F0030308D0C91A1FD341
:10585C00DB0748BF00F8012D28BF20F8022D1300EC
:10586C0030B414461546103928BF20E93C00FAD84C
:10587C00490728BF20E90C0048BF40F8042D8900D7
:10588C0028BF20F8022D48BF00F8012D30BC70470E
:10589C00C91818BF00F8012DCB0728BF00F8012D3F
:1058AC007047000000B583B00821ADF800100190DE
:1058BC000321ADF8021000A8DFF8581709688847D3
:1058CC0007BD00B58FB008233C22002100A8FEF7CD
:1058DC0049F8DFF8440700F15001079100234FF419
:1058EC002171089100AA012106910FF27921FEF78E
:1058FC00A9FD0FB000BD3EB50820ADF80000012099
:10590C00DFF81017DFF8144709680FF2B965ADF826
:10591C00020000A88847BDF80400A0800298A0608F
:10592C0004F16400FFF721FFE060002304200190E4
:10593C00642201200090294604F11C00FFF7CAFEE6
:10594C0020200190002300200090C822294604F159
:10595C004000FFF7BFFE0FF27D6000F005FC00F089
:10596C008AFC00F058FF06211F20FFF798FC01204D
:10597C008DF801000DF101020020ADF80A000121A3
:10598C0001208DF800005020ADF808004FF448704D
:10599C00ADF806000020ADF804004FF47A70ADF8B5
:1059AC00020040F20530FEF751FD0DF10A02022112
:1059BC0040F20630FEF74AFD04F170021E214FF44E
:1059CC004270FEF743FD04F19002072140F20730CC
:1059DC00FEF73CFD00AA01214FF44470FEF736FDA2
:1059EC0002AA022140F21130FEF730FD0DF1060241
:1059FC00022140F21230FEF729FD01AA022140F2E9
:105A0C001330FEF723FD0DF1020202214FF4457015
:105A1C00FEF71CFD04F1980215210020FFF741FB55
:105A2C00A0210620FFF73BFCA0210720FFF737FC45
:105A3C00A0210820FFF733FCA0210920FFF72FFC41
:105A4C000020019001AA01208DF803008DF80200BE
