:10F0000038B504460D460DF077FC084821680160CC
:10F0100061684160A16881600DF08EFA0CF04BF8D8
:10F020002846BDE8324003F084BA00BF28480020DB
:10F03000DFF8301C0870704738B5DFF82C4CDFF86B
:10F040002C5C20702878C00000F0BAFF6060C8B166
:10F05000002108E04FF6FF7220F8312000EBC103D9
:10F0600000225A60491C2A789142F3DB052000F007
:10F07000AEF8207801F063F8BDE83240DFF8F00B1D
:10F0800001F0D0BC31BD38B50C46200418D5DFF8EE
:10F09000D80B007801F0CFFE05000ED02878B028FC
:10F0A00008D1284600F0FAF820B1297905F10800C6
:10F0B00002F0AEFA284601F051FE84F4004032BD61
:10F0C000002032BD7CB504001D460CD0ADF8001008
:10F0D0008DF80220019400A800F0C5FF060019D1A8
:10F0E000C5B164890CB9022614E00C2000F068FF59
:10F0F00008B913260EE00021016084808560DFF8E6
:10F10000741B0A6812B9086004E00A4611680029F5
:10F11000FBD11060304676BD30B50D46DFF8541B8C
:10F120000446086883B0002201E00246006890B1FE
:10F130008388A342F9D10368002A0CBF0B601360D7
:10F1400000F04BFF00A9204600F0D9FF10B90DB127
:10F15000019929603EBD01203EBD70B558BB012913
:10F1600027D1DFF8040B416800230C2601E05B1C6B
:10F17000DBB2DFF8F84A2478A34216DA31F83340DC
:10F180004FF6FF75AC42F2D0002400E0641C4578D5
:10F19000E4B2AC42EBD201EBC3056D6806FB04554B
:10F1A0002D88002DF2D0012070BDBDE87040107890
:10F1B0000DE0182070BD022070BD0022002803BFA2
:10F1C000DFF8A40A407808700222104670472DE943
:10F1D000F843DFF8947A0446002078700C257868AC
:10F1E000DFF8886A406805FB04F868B100F0F5FEB6
:10F1F0000020002204E0796801EBC001401C4A6055
:10F20000C0B231788842F6D3307808FB00F080B283
:10F2100000F0D6FE5FEA000927D0307808FB00F244
:10F220000021484601F06BFD00200FE0516805FB0E
:10F230000CF34FF0000E23F801E059180CF1010C0B
:10F24000C1F808E0A445F1DBC144401C3178C0B2EC
:10F25000884207D2796801EBC0024FF0000CC2F877
:10F260000490EFE77C70002000E01320BDE8F283FB
:10F2700001460020C90705D5002310220121DFF82F
:10F28000F40C1FE77047DFF8EC19096821B18A8890
:10F290008242FAD188687047002070472DE9F04318
:10F2A00087B004460020ADF8100001208DF8120050
:10F2B000DFF8FC5CE86938B902F04AFA00F080FE39
:10F2C0000028E86100F0E68018220021284601F0BD
:10F2D00016FD2079022800F1010804F108074FF615
:10F2E000FF7917D006282CD008282FD00A2832D032
:10F2F0000C2855D00E2800F08880102800F08A8055
:10F30000122800F08C80162800F09080182800F059
:10F310009680BCE002F01CFA28802946608802F042
:10F3200035FA00283988288804D0814228BF014650
:10F3300029809FE0814228BF0146608802F0D5F80D
:10F34000A5E004A9204600F0AFF87CE004A920461F
:10F3500000F031F977E000F0A2F8060050D06088A4
:10F3600005AB4A460B2102F017F903006B6023D06E
:10F370002079BDF81620039000953146BDF81400A1
:10F3800000F0A3F900F028FA060004D160882946AD
:10F3900002F046FA29E0162E686808BF00262BE026
:10F3A00000F07DF806002BD0608805AB4A460D21A1
:10F3B00002F0F2F8686020B93888ADF81000112624
:10F3C00045E02179BDF8162003910346BDF81410DD
:10F3D0000291798801910095314600F0FDF906000F
:10F3E00006D16088294602F029FA002842D12BE094
:10F3F000162E686808BF002602F0C9FA0EB923E08D
:10F4000001263888ADF810001EE004A9204600F05F
:10F4100060F918E004A9204600F0E5F913E00DF1C9
:10F42000120204A9204600F080FA0CE004A920464C
:10F4300000F0C1FA060007D18DF8120027E004A9F8
:10F44000204600F01AFB064696B1162E12D06078C0
:10F4500014280DD0207928702946BDF81000688046
:10F460002E71608802F089F910B14FF0010801E0B7
:10F47000162E0CD160882B465FFA88F2162102F016
:10F480002AF820B15FFA88F1284602F0C1F8204638
:10F4900001F058FF9DF8120007B0BDE8F0833888EE
:10F4A0000DF1160100F0C1BE2DE9FA4786B0044601
:10F4B00004F1080500F034FA05906A1D0DF1120000
:10F4C00000902B796988288800F081FE002780460B
:10F4D0004FF0FF0AB8F1000F5BD009E0BDF8103023
:10F4E0000B54BDF81000716892B2000A5054571CBA
:10F4F0000598BFB2401F87424BDA2079BDF8122031
:10F5000003904FF000090598CDF80490C01F80B219
:10F510000290414600F05CF9002802BF328B288936
:10F52000904214D1F169E86801F0DBFB78B17068B2
:10F5300058B900F048F9072102F02EF8706020B9A0
:10F54000069928880880112032E0B8F80A90BDF8A2
:10F550001220698804AB404600F08BFEB9F1000F21
:10F560008046B7D0706807F80090781C726880B247
:10F570004FEA29218154411C4A1C7068B8F1000FE0
:10F5800089B2ABD101F800A092B2706802F800A075
:10F59000571CBFB247B1B80830803146608802F0CE
:10F5A00019F928B1162003E00699288808800A2056
:10F5B00008B0BDE8F0872DE9F04F89B0044604F1AA
:10F5C000080005908A4606886088DFF8E45902F052
:10F5D000E5FB07900027001FB84606904FF6FF791D
:10F5E00000E0761C0698B84257DB04A80090059806
:10F5F00003794188421DB0B200F0E9FD5FEA000BDB
:10F600004BD0BBF80A60BDF810209BF8081060884A
:10F6100000F099FD5FEA00083FD100F0DFF859469D
:10F620000798001F00F050F805F118000090EB69F2
:10F6300000F0D2F85FEA00082FD17FB9608800237C
:10F640004A46092101F0A8FF686018B9AAF80060CD
:10F65000112036E0288B801C688004E0298B6888A4
:10F66000891C88421AD1298B0698C919884214DB53
:10F670006968BBF80A007854BBF80A106A6800F0A1
:10F6800049F968682A8BE969BFB2381801F005FBAF
:10F69000288BC7194E45BFB2A3D157B1688897FBD5
:10F6A000F0F028802946608802F0A4F848B11620BE
:10F6B00007E0B8F1000F08BF4FF00A08AAF8006091
:10F6C000404609B0BDE8F08F80B202900020019062
:10F6D00070472DE9F04F85B00D46044604F1080649
:10F6E0006088DFF8CC7802F059FB4FF0000BA0F1F6
:10F6F0000108A0F1010A16E039883A8B0846121871
:10F700009245BCBFA8EB010139837B683A8BF9694C
:10F71000C01801F0C2FA3888398B081838800BF10C
:10F7200001001FFA80FBB0888345BCBF3888504574
:10F7300037DA306810F81B2000EB4B0004A9407842
:10F7400002EB002080B200F070FD01000BD14FF001
:10F75000010900F02EF8786808B102F018F948465F
:10F7600005B0BDE8F08F00F039F81FFA88F0FFF718
:10F77000ACFF07F118000090FB6900F02DF85FEA7C
:10F780000009E6D178680028B6D100F01CF80F21F6
:10F7900001F002FF00287860AED100F00AF81120D5
:10F7A000DEE76088394602F057F80028D8D01620E6
:10F7B000D6E7306810F81B1000EB4B00407801EBE7
:10F7C000002028807047608800234FF6FF72704742
:10F7D00006F118000090F369608853E22079BDF8C3
:10F7E0001020039070472DE9F04786B08846044604
:10F7F00004F1080900F094F8059009F1050204A845
:10F80000009099F80430B9F80210B9F8000000F03F
:10F81000DEFC0027BA4605460FE07268FF21B954A6
:10F8200080B272688154471C7068328BF169BFB234
:10F83000381801F032FA308BC719BFB2BDB1BDF82C
:10F840001020297A608800F07EFC5FEA000A0BD164
:10F85000FFF7C4FF29460598801FFFF735FFFFF724
:10F86000B7FF5FEA000A10D06889A8F80000002FEF
:10F8700043D0708897FBF0F030803146608801F00B
:10F88000FAFF002843D0162041E07FB9FFF79BFF25
:10F89000112101F081FE706020B96889A8F800008C
:10F8A000112034E0308B001D708009E0308B7188AE
:10F8B000021D9142DDD10599891FC0198142D8DB13
:10F8C0007168688978546989726800F023F8BDF816
:10F8D0001020B9F802100DF11203284600F0C9FCFF
:10F8E0000546781C002DBFB297D07268BDF8121083
:10F8F000B954BDF81210090A92E7B9F80000A8F847
:10F900000000BAF1000F08BF4FF00A0A504606B0D7
:10F91000BDE8F087781C80B2090A8154471C704703
:10F920006088DFF88C6602F039BA2DE9F0410446B0
:10F9300004F1080784B00D463888904602A900F00B
:10F9400074FC06002FD0307A80060BD5BDF8080075
:10F9500000F092F903000BD06088122231469847DC
:10F96000060021D1787A002814BF5220207901E0C6
:10F970000E2619E00190002000907B887A68398873
:10F98000608800F079FA060007D1787A70B960884B
:10F9900001F082FF50B116200CE0162E04D1002693
:10F9A00088F8006002E0012638882880787A00B163
:10F9B000002630465EE02DE9FF41044604F10806CA
:10F9C0008846308800A900F030FC002705004CD0A4
:10F9D000287A80060BD5BDF8000000F04DF9030031
:10F9E00015D0608812222946984707003ED16588C5
:10F9F000284600F004F9010006D14FF6FF7000F030
:10FA0000FEF801002DD00D800022974B02E00E275A
:10FA10002CE0521C5878D2B2824222D248680C257F
:10FA200005FB02000588002DF3D10C22314601F0C0
:10FA300034F90C22314601A801F02FF9B288608810
:10FA40000023172101F0A8FD039060B1B288B168CE
:10FA500001F023F9608801A901F024FF48B11620C4
:10FA600008E0092702E0112700E001273088A8F804
:10FA70000000384604B0BDE8F0812DE9F04383B0C2
:10FA800089460027044604F10805608800F0B7F8AD
:10FA90005FEA00084AD02878012843D14146284629
:10FAA00000F050F8A0B1D8F80450182001906888F0
:10FAB0000090AB88AA682988608800F0DDF90746C5
:10FAC000162F02D10020A8602CE05FB3288827E021
:10FAD00000250EE0019070880090B388B2686088BD
:10FAE00000F0CAF90746162F17D10020B0606D1C30
:10FAF000EDB25D484078854214DAD8F804100C2243
:10FB000002FB05121646318861B16B1C83421DBF92
:10FB10009089002816201820DCE7002FE7D03088D5
:10FB2000A9F80000404600F07DF82FB9608801F088
:10FB3000C6FE20B1162003E0162F08BF0027384666
:10FB4000BDE8FE832DE9F84F0C46002100250E4646
:10FB50004FF00C0B44480EE0994202BFBCF8027013
:10FB600093B2BB4224D1BCF804305D19ADB29A18EF
:10FB7000761C92B2F6B243789E420EDA63680BFBB3
:10FB8000063CBCF8003043B10029E5D1BCF8045074
:10FB9000BCF802201946AA18EAE7022E2CDB28003E
:10FBA0004FF0000904D001F0DBFE5FEA000801D14C
:10FBB000002022E0CA4619E00BFB0A07B96859B1D8
:10FBC000BA8809EB080001F068F8B88848441FFAC1
:10FBD00080F9B86801F0DBFEBAF1000F04D00C2206
:10FBE0000021384601F08BF80AF1010AB24560683D
:10FBF000E2DBC0F8088085800120BDE8F28F1A4A58
:10FC00005268002100E0491C184B1B78C9B2994288
:10FC100006D232F831308342F5D102EBC100704791
:10FC20000020704770B5044600250BE0B06808B1AD
:10FC300001F0ADFE0C220021304601F060F80020FA
:10FC400030806D1C08484078EDB2854206D260686D
:10FC50000C2101FB050630880028E7D14FF6FF7024
:10FC6000208070BD9E46002060480020684700202C
:10FC70001FFF00009C48002080B5FFF704FB00B187
:10FC8000806802BD2DE9FE4F0D468046287AC006E9
:10FC900093461E464FF0000A0CD55846FFF7ECFF7E
:10FCA000030000F0E4800A222946404698475FEAB4
:10FCB000000A49D128780C9F0D9CDDF83890022865
:10FCC00016D100F016F94FF42051401A012810D92E
:10FCD000801E3AD0401E14D0FD3876D0401E00F071
:10FCE0007D80401E6AD0401E6FD0401E00F0918083
:10FCF000A7E0002C2AD1E8680178398002784168B1
:10FD000083E0002C22D1012038800021E8680078AF
:10FD100030706889401C80B200F087FA398860B181
:10FD20000278921C51183980418971704189090A01
:10FD3000B17002784168F01C68E0081D3880042228
:10FD40000021701C00F0DBFF93E0002C62D1E8681A
:10FD50000488042038803470200A70700DF102018C
:10FD6000204600F062FA05001ED0EC68BDF80220C3
:10FD70004FF6FF7800AB414600F07BFA40B92B7894
:10FD80006A688C48022101F0B8FF08B9ADF800801C
:10FD9000207802280AD161680222301D00F07DFF20
:10FDA0003888801C388001E0ADF80040BDF80000C4
:10FDB000B070BDF80000000AF0705AE054BBE8686B
:10FDC0000168404602F01CF802E01CBBE8680088AD
:10FDD000022139803070000A70704AE0E86800F053
:10FDE0005AFF82B2A242B8BF4FF0070A41DB9442E9
:10FDF00008BF002206D009EB04019142B2BF4A4677
:10FE0000121B92B23A80E9686118304600F045FF53
:10FE10002FE014B14FF00B0A2BE0E868072139807E
:10FE200001783170417871704188B1704188090A58
:10FE3000F17001793171C1887171C088000AB071A7
:10FE400017E05846FFF71FFA00281CBFD0F800C083
:10FE5000BCF1000F0BD00F980290CDF804900094E5
:10FE60003B46324629464046E047824601E04FF095
:10FE70000E0A5046BDE8FE8F2DE9FE4380468946B6
:10FE800017461E4602A9484600F0CFF905002CD0BF
:10FE9000BDF80800FFF7F7F900281CBFD0F804C030
:10FEA000BCF1000F1FD00A980B9C009001943346C0
:10FEB0003A4629464046E047060017D1FE2C15D0A9
:10FEC0002878022812D100F014F842F60211884274
:10FED0000CD13878797800EB012292B2494640463D
:10FEE00000F04AF802E00E2600E001263046BDE8A8
:10FEF000FE8368680178407801EB002080B270478B
:10FF0000E0B58DF808200223120A8DF80920FE22A0
:10FF100001920022009202AAFFF7AEFF0EBD7CB54F
:10FF20000129044605D0022922D1012100F0FEFD5D
:10FF3000F0B92046FFF763FE08B1FFF773FE01A892
:10FF400000904FF6FF7502231B4A2946012000F05E
:10FF50003EF90BE0F0680168204601F037FFBDF87C
:10FF6000042000232946304600F083F90600F1D131
:10FF700073BD00004C460020F8B5104F0446387899
:10FF8000FF280D46164611D00A2000F0D5FE68B1B4
:10FF9000B12101704480002141700171C58006814A
:10FFA00001463878BDE8F44000F0E7BEF1BD00003E
:10FFB000D04700202CC9010034C901009E46002012
:10FFC000E0B50821ADF800100190042100F00FF811
:10FFD00008B100200EBD02980EBD00B583B0082107
:10FFE000ADF800100190052100F001F807BDADF853
:10FFF000021000A8014909680847000028480020AD
:020000040001F9
:1000000070B5DFF85859287806246043FFF7D8FF09
:10001000DFF84C19086008B9132070BD0020FF22DA
:1000200006E03380401C0023F270B2703371C0B21E
:100030002B78984209DA0B6804FB003600280CBFC5
:100040004FF6FE734FF6FF73EBE70FF2314001F00E
:100050006DF90FF6390001F08DFB0FF6790000F015
:10006000E1FC002070BD70B50446208868B160686E
:100070000378426800F03AF948B96068037842684A
:10008000DFF8E00800F034F908B9022070BDA0786C
:10009000C01F0A2801D3182070BDDFF8CC5828886B
:1000A00020B12188C0F58030884201DA012070BD7E
:1000B0000C20FFF785FF060001D1132070BD002042
:1000C00007E06268298802EB0012401C5181491C3C
:1000D000298080B221888842F3D300203060082232
:1000E0002146301D00F0D9FD686810B96E6004E04B
:1000F000084601680029FBD10660002070BD38B5B4
:1001000002460846DFF860184C68002301E02346E9
:10011000246894B1A5686D899542F8D12268002BB6
:100120000CBF4A601A6018B10822211D00F0B5FD0D
:100130002046FFF752FF002032BD012032BDDFF81C
:100140002C180870704710B504461046142211424E
:1001500003D000F0D6F8012204E04A0608D500F0EA
:10016000D0F8002201462046BDE8104000F01FBD37
:10017000C80701D4022010BD002010BD70B5044690
:100180000D46A8061E4609D5104600F0BAF80146ED
:100190002046BDE87040012200F009BD88200542DC
:1001A0000FD0104600F0ADF8014605F008022046D9
:1001B00000F0FDFC48B1717A41B1317A012904D0D7
:1001C00070BDA80701D4032070BD002070BD2DE9CB
:1001D000F0478146DFF8900744688A4690461E46FD
:1001E00000E02468F4B1002700E07F1CA088BFB2C3
:1001F0008742F6D2A06800EB07156889484528BFFA
:100200008245F2D33EB1297868683346424601F010
:1002100074FD0028E9D0089810B1A16849890180CF
:10022000284600E00020BDE8F087F0B5DFF8382769
:10023000536800E01B68D3B19D686E89B042F9DB5A
:100240009F88BA199042F5DA4FF0000C01E004F1F2
:10025000010C1FFA8CF4BC42ECD205EB0412B2F88C
:100260000AE08645F3D101B10E801046F0BD0020B2
:10027000F0BD2DE9FC4104460027ADF804704FF6AF
:10028000FF786089404515461E4608D001AA0092B5
:10029000401C2378626880B2FFF799FF07462378F5
:1002A000626800F023F830B923786268DFF8B4069A
:1002B00000F01EF808B160890CE023786268DFF86E
:1002C000B00600F015F858B11FB1BDF80400A842FF
:1002D00003D0284600F0C7F803E07889404400E0E6
:1002E000608906B130803846BDE8F681DFF88406C3
:1002F000022101F002BD80B500F08BFA00B1008848
:1003000002BD80B500F085FA08B1807802BD1020EA
:1003100002BD70B5012982B00446154616D00329E6
:1003200018D0052925D0072927D0092929D00B293C
:100330002BD00D292DD00F292FD0112931D01329E1
:1003400033D0172934D0192936D039E0294601F0A5
:1003500014FA33E001F0FCF9ADF8000000A92046E2
:1003600001F014FA06002CD12988204601F0BDF8CE
:1003700027E0294601F016FA20E0294601F02AFA82
:100380001CE0294601F036FA18E0294601F048FA47
:1003900014E0294601F052FA10E0294601F05CFA17
:1003A0000CE0294601F067FA08E001F075FA05E073
:1003B000294601F077FA01E001F081FA064600E0F3
:1003C0000226304676BD2DE9FC410D460446164610
:1003D0001F4601A900F02AFA5FEA00081DD156B1B4
:1003E00000F037F8BDF80000FFF78BFF00F036F89B
:1003F0005FEA000811D12946204601F071FA5FEA50
:1004000000080AD1019CFF2F07D0A31C1E22214601
:100410000FF2954001F04BF8E7704046BDE8F681D9
:100420007CB50D460446164601A900F0FFF91728D1
:100430000ED04EB1002000F00CF8BDF80000FFF720
:1004400060FF00F00BF818B92946204601F03DFA8C
:1004500076BDADF8000000A92888E6E60146012235
:10046000204600F0A4BB10B50446FFF744FF08B1D6
:10047000611E0C18A0B210BD000000002DE9F0476D
:100480000D468046A87800241E2888B0914614D1D5
:10049000404600F0DFF904001EBFA078FE28FF28C8
:1004A00022D0002000900022AB78E078414600F096
:1004B000D3FF204600F0E2F916E0122804BF687866
:1004C000012813D0404600F0C5F904001CBF227972
:1004D000002A0BD0100607D4A978404601F018F87E
:1004E000207940F08000207100206BE0DFF87C7400
:1004F0003878FF2817D0A978881E172813D20FF252
:10050000784A48080AEBC000A0F1080630680028C5
:100510001CBF7068002806D0287810B96A78012AB4
:1005200003D1122901D006204CE002A90091AB882A
:10053000AA6869783668B047060042D1AA7852089E
:100540000AEBC20202A952F8042C4046904706006A
:100550001CD1AB78042B34D002A80090002238784C
:10056000414600F079FF06002BD1A97802A800F0DF
:10057000E9FF10B1002089F80000A878122804BF14
:10058000697801291DD0E4B120711AE06878C0B9FA
:10059000A8788DF800008DF8046000A9A8780428D8
:1005A00018BF0628BDF80800ADF80200404601F06B
:1005B000E4F828B100AB01221621404600F08BFF81
:1005C0000026304608B0BDE8F087002070472DE9CE
:1005D000FE430D46804628886988814200D308B9C9
:1005E00001206AE00021ADF8041002914FF6FF7976
:1005F00000E0401C002100910A466988002380B277
:10060000FFF7E5FD070034D0BDF80400002835D120
:1006100000AB4A460521404600F0BEFF040001D170
:1006200011204AE002943878022806D101208DF882
:100630000600BDF80000860824E002208DF80600C0
:100640001221BDF8000090FBF1F6788904F8010B47
:10065000102200F034F81034BDF80400401CADF84E
:100660000400B6B2BDF80400B04202D27889484511
:10067000BFD1BDF8040080B90A201EE09DF8060035
:100680000128E2D138780228F3D1788904F8010BE7
:10069000022200F014F8A41CDEE701A9404601F094
:1006A00081F848B101AB05221621404600F013FF46
:1006B00010B1029801F06BF90020BDE8FE83788943
:1006C000000A04F8010B2046796800F0E6BA10B57C
:1006D00082B04C880888844200D308B9012016BD36
:1006E00000F015F808B90A2016BD002016BD10B597
:1006F00082B04C880888844200D308B9012016BD16
:1007000000F005F808B90A2016BD002016BD002229
:1007100000924A1D0B79214659E510B5044682B076
:10072000084600A90088FFF780FD08B9012016BD22
:10073000017ABDF800202046FFF705FD16BD70B513
:1007400082B006460D46002401E0641CA4B2A888CD
:10075000844229DA286810F8142000EB440000A92C
:10076000407802EB002080B2FFF75FFD50B92868A7
:1007700010F814100170286800EB440149784170AA
:10078000012076BD017ABDF800203046FFF7DBFC82
:100790000028DAD0296811F814200A70296801EBC2
:1007A000440252784A7076BD002076BD10B50C46E2
:1007B00082B020886188814200D308B9012016BD2B
:1007C00023796C48621DFFF793FD08B9102016BD10
:1007D00000200090237961882088621DFFF7F7FCD4
:1007E00008B90A2016BD002016BD38B504460D46CE
:1007F00000A92888FFF719FD08B9012032BD017A48
:10080000BDF800202B462046FFF7B8FC32BD002083
:1008100070475549496800E0096829B18A685289DA
:100820008242F9D1081D70470020704710B50C4670
:1008300000F010F860B104B120608078FE2801D18A
:10084000172010BDFF2801D1002010BD162010BDBB
:10085000022010BD10B5424A1268002100E0491C78
:100860003E4B1B78C9B2994206D206234B439C5A91
:100870008442F4D1981810BD002010BD10B5044674
:10088000A01C00F01CFEFF20E07010BD10B50C464F
:10089000FFF7E0FF30B101794A1C944204BF01F038
:1008A0008001017110BD000010B582B004001EBFB0
:1008B000A078FF28FE280BD0002000901E2321885E
:1008C000E078172200F0C8FDFE20A070FF20E07045
:1008D00013BD000070B504464FF6FE70844282B02E
:1008E00036D04FF6FF7651B92046FFF7B3FF78BBFD
:1008F0003046FFF7AFFF05002AD0048073BD012901
:1009000006D12046FFF7A6FF050021D02E800BE080
:1009100002291DD10121204600F008F9C0B9204666
:10092000FFF798FF050013D0A878FF280ED0FE2807
:1009300007D0002000901E23E8781422214600F002
:100940008BFD2846FFF79AFFFF20A8700020287132
:1009500073BD05480088704700000000AE480020C5
:10096000A04800202CC9010090460020A04600208D
:1009700030C9010028C90100951A0100CB0501000A
:10098000AF1A0100CF050100D11A0100CF06010006
:100990001B1B0100EF060100591B01001B07010092
:1009A000A71B01001B070100CF1B01003F0701002F
:1009B0001B1B0100AD070100771B0100EB070100C5
:1009C0000000000000000000FD1B0100EB0701001B
:1009D000431C01000F08010038B5904C0022002193
:1009E000204601F070FA20782C256843FFF7E8FADA
:1009F0006060B0B1002109E005FB01024FF6FF7312
:100A00005380491C002313719362C9B2227891422A
:100A1000F2DB0020002104EB8002401C0C289160D6
:100A2000F9DB31BD00217D4A02EB8102936813B9E5
:100A3000906000207047491CC9B20C29F3DB1320D9
:100A400070472DE9F04106460C4617469846204669
:100A500000F03EF808B111201EE04FF6FF7000F0E4
:100A600037F8050017D085F8058006220699A81DDD
:100A700000F013F96C802F712E700020A862002105
:100A8000079828730898E88109982882204600F082
:100A9000B4F8002000E01520BDE8F08110B500F0AA
:100AA00017F8040012D06088012100F0A6F8A06AAF
:100AB00008B1FFF792FA2C220021204600F01FF91E
:100AC0004FF6FF7060800020207110BD022010BD25
:100AD00010B50022514B00E0521C1978D2B28A4264
:100AE00008D259682C2404FB02114C888442F3D1AB
:100AF000084610BD002010BDF0B5484B5C680022D0
:100B00004FF6FF7701E0521CD2B219788A420BDA15
:100B10002C2101FB02F529194E88BE42F3D02D5D30
:100B20008542F0D10846F0BD0020F0BD10B50C465E
:100B30004FF6FE71884206D0FFF7CAFF00281CBF9F
:100B40000079204201D0012010BD002010BD80B5E9
:100B5000FFF7BEFF00B1007B02BD10B500200021F1
:100B60002E4A2C2406E0536804FB01331B7903B1A1
:100B7000401C491C1378C9B29942F4D3C0B210BDCD
:100B800026480078704710B50C46FFF7A1FF0028F3
:100B90001CBF018AA14202D00482002010BD0120A6
:100BA00010BD80B5FFF794FF00B1008A02BD70B59B
:100BB00005460C461646FFF78BFF28B94FF6FE7028
:100BC000854218D0142070BD0179806A28B9CA0600
:100BD00009D5C90609D40F2070BD01F01202102AF0
:100BE000F7D1002EF5D0052070BD20B1807EA04247
:100BF00001D20C2070BD002070BD70B504460D46BA
:100C00000026064800EB86008268100002D02946C4
:100C100020469047761C0C2EF3DB70BD6847002001
:100C200000B583B00821ADF8001001900B21ADF89C
:100C3000021000A8DFF8D016096888470EBD1FB55E
:100C4000ADF806100824ADF80040ADF80400062405
:100C5000DFF8B4168DF808200393ADF8024000A821
:100C60000968884704B010BD80B500F0C8F90C20B1
:100C700000F001F802BDDFF890160968ADF8020037
:100C800000A8084700B583B000F0B9F91220FFF7BB
:100C9000F2FF01980EBD01F045BA03E011F8013BE7
:100CA00000F8013B13465A1E002BF7D1704751182C
:100CB000491E03E011F8013900F8013B13465A1EA2
:100CC000002BF7D1704770B504460D46A8B2FFF768
:100CD00077F9060003D02A462146FFF7DEFF3046AB
:100CE00070BD10B513465A1E3BB110F8013B11F808
:100CF000014BA342F6D0002010BD012010BD10B55D
:100D0000044610460A460146204601F027FA2046CE
:100D100010BD01F05BBADFF8F425DFF8F435526A54
:100D200081541B7805E0DFF8E835DFF8E0251B7813
:100D3000526AC0188154704710B5040001D10020D8
:100D400010BD04F10C0080B2FFF73AF928B1002180
:100D500001600481FF2181720C3010BD80B508B99B
:100D6000052002BD10F8021CFF2901D0042002BD9D
:100D70000C38FFF732F9002002BD70B50C460106B1
:100D800023D5DFF888150A78FF2AA4F10C0508BFDF
:100D90004E7805D0DFF878351B78496A9A18565C8A
:100DA000FF2E02D1FFF760FF0DE000F0A0F9014631
:100DB000FF20A872234600223046FFF740FF48B1CB
:100DC0002046FFF7CBFF012070BD2146BDE87040F3
:100DD000002200E070BD70B50D000446164617D025
:100DE000200648BFFFF740FF00F001F9844204D31A
:100DF0002846FFF7B3FF032070BDA5F10C00016882
:100E0000002904BF817AFF2904D02846FFF7A6FFF6
:100E1000052070BD8472012EDFF8F004294603D14D
:100E2000001D00F055F802E0001D00F039F800F058
:100E300033F8002070BD2DE9F0410446DFF8D404FA
:100E4000DFF8C8740068804780467868002600256F
:100E500003E005B9064650F80C0C50B110F8021C1E
:100E6000A142F6D1002D08BF0546F4D000F014F8D9
:100E700005E04FF40041204600F0A2F825B13246CB
:100E80002946381D00F031F8DFF88C140968404617
:100E900088472846BDE8F0814FF40041204640E0F5
:100EA00038B500F00FF8002145F80C1C216811B985
:100EB000256006E0114651F80C2C002AFAD141F8C1
:100EC0000C5C2FE10446DFF84C0400680D46004737
:100ED00038B5FFF7F7FF216845F80C1C2560DFF8EF
:100EE00038140968BDE83440084770B50446DFF897
:100EF000240400680D4616468047A5F10C012368BE
:100F00000A689D420CBF226046F80C2C00220A6041
:100F1000FF228A72BDE8704006E1DFF8FC13096821
:100F200008472DE9F0410446DFF8E403DFF8DC531D
:100F300090F8008020060E462CD50420FFF7FCFE1A
:100F4000070008BF042039D04FF6FF7038807E803C
:100F5000A7F10C062878FF280FBF6D78696A404416
:100F6000455CFF2D05D13846FFF7F8FEFFF77CFE04
:100F70000EE0204600F0BBF8FF21B1723B4601466F
:100F800000222846FFF75BFEC0B13846FFF7E6FEB9
:100F9000012013E0444510D200F02DF8DFF87C1357
:100FA000096831F81420324321F81420FFF7B5FF07
:100FB000E868FFF735FE002000E00320BDE8F0817F
:100FC00038B5054600F013F885420C460DD200F006
:100FD00012F8DFF84813096831F81520A24321F808
:100FE0001520FFF79AFF002032BD032032BDDFF845
:100FF000200300787047DFF81C03006800470820D2
:10100000ADF80000704730B5C04C0020606083B080
:1010100001F0E6F801F0FDF9BD4805786800FEF73B
:10102000CFFF60626A00FF21FFF769FE0222FF2105
:10103000A01CFFF764FE01F03FFAFFF723FE2061DA
:10104000FFF7DDFF1420B04D2968ADF8020000A8BD
:10105000884701986061FFF7D2FF1520ADF80200C4
:1010600000A8296888470198801EA06100203EBD25
:1010700030B587B00820ADF808001B20ADF80A0095
:1010800001200390A14D0FF281009F4C2168059033
:10109000286A0690E869049002A888470499E961E3
:1010A00008B1FFF7E1FD00F054F8FFF7A8FF0A20B0
:1010B000ADF802004FF0FF30019000A8216888478A
:1010C000F1E780B50021914A8A189378FF2B01D16E
:1010D000907001E0834203D141F08000C0B202BDB4
:1010E000491C0229EFD3FFF7BFFDFF2002BD10B559
:1010F00080F08004022CA8BFFFF7B6FD83482018BB
:10110000807810BD0000000038B50446FFF773FF7B
:1011100005467E48016A8C4204BFC068FFF780FD27
:101120004FEA0500BDE834407B490968084710B51F
:101130000446608850B9E088FFF7C3FFFF2820729B
:1011400002D16FF0030010BD002010BD6FF0010050
:1011500010BD2DE9F0478AB001F035F9FFF792FD97
:101160006A4E7769D6F810A00025B7F57A7FA0EB14
:101170000A0414D0A7FB04014FF47A72002301F093
:101180000BFA4FF47A78A8FB0023044608FB0133DE
:10119000104619463A462B4601F0FEF9504430619C
:1011A000204601F071FAB068010003D0804701E0E9
:1011B000FFF75AFD0820ADF808000720524C2168BF
:1011C000ADF80A0002A88847BDF80E10049F08BBBE
:1011D000A7F10C08002400E0641CFFF708FF84421C
:1011E000E6D2706A205C8842F6D1E4B2FF2CDFD0F0
:1011F00098F80400FFF765FF98F80610012908BF6A
:10120000387002D0022908BFB87039462046FFF76F
:10121000B4FDCFE7414F386830F8150028B9FFF723
:10122000E6FE6D1CEDB28542F4D33948DFF8E88064
:101230000078DFF8E09085421CD2D9F800008047A2
:10124000396831F815A0002200F049F8344A3570A9
:10125000514652F82520284690478246FF2030709C
:10126000D9F800008047396831F815204AEA0202AF
:1012700000F035F801F0A7F8054615F1010F2BD065
:1012800005B9284DB069A84238BF0546D9F8000015
:1012900080470821ADF800100746F06901901C2135
:1012A000ADF8021000A8216888470821306AADF81F
:1012B0001410401C13213062ADF8161009900695E9
:1012C0001949F0690891079005A82168884707988F
:1012D000F061384600F005F80AB0BDE8F08721F863
:1012E0001520D8F80010084710B540B1002300E0E1
:1012F0005B1CDBB2934204D21C5C8C42F8D0002011
:1013000010BD012010BD000028480020C845002065
:10131000F4C801002C4800203048002088480020F4
:10132000CCC801008EC2F52809110100814908606E
:101330007047814908707047032290FBF2F080B239
:1013400000F0D8B90178B02904BF417800290CD148
:101350000179122903D1417C012906D101E01B2921
:1013600003D14088012100F0E2B9704780B5734A8B
:101370005070042172480078401C1070507800F0C2
:101380005DF9BDE80140FEF73BBE38B50C462004D0
:1013900011D56A484078FFF74EFD050008D028783F
:1013A000A02804BF284600F008F82846FFF7D6FC1E
:1013B00084F4004032BD002032BD30B587B0044611
:1013C00001208DF8000001A9204600F02DFB05004A
:1013D0002AD19DF806105748C9070AD54368180056
:1013E00005D0608800AA01A9984705461CE006259B
:1013F0001AE00368180006D0608800AA01A998477F
:10140000050001D110E006259DF8050060B99DF8A2
:1014100006008DF810008DF814500020ADF8120071
:1014200004A9608800F0A9F99DF8000000281EBFFB
:10143000A068002800F0ABFA45B99DF80600122814
:1014400006BF9DF8051001291B2803D060880121E3
:1014500000F06DF907B030BD2DE9F0410446FF2CD6
:101460000D46164698461FD02020FFF765FC070062
:1014700018D0B02038707E707D8087F8048006997F
:1014800029B1182207F10800FFF707FC04E0182231
:1014900007F10800FFF733FC39462046FFF76DFCE3
:1014A000002002E0132000E00220BDE8F08110B52A
:1014B0004FF47A746243BDE8104001F05CB910B596
:1014C00004001EBF2078FF28FE2803D001F05BF93E
:1014D000FF20207010BD80B5009313460A460146D8
:1014E00015480078FFF7B8FF02BD30B583B0044659
:1014F0000D4600F03EFC50B901A80090ADF8045034
:101500007F230D48007800222146FFF7A5FF37BD55
:1015100000B583B07E238DF804108DF8052001A955
:1015200000910022014604480078FFF795FF07BDAF
:1015300000000000684800209F460020AE480020C0
:1015400068470020052923D006291BD0072918BF8A
:1015500009291DD00B2918BF0D2919D00E2913D028
:101560000F291CBF1129122912D0162918BF1729BB
:101570000CD01B2918BF1D290AD0522918BFD22907
:1015800006D007E0C0687047006870478068704701
:10159000406870470020704770B5052914461D4605
:1015A00016D0062912D0092918BF112910D01229E6
:1015B00012D0162918BF17290CD01B2918BF1D29B6
:1015C0000AD0522918BFD22906D007E0072606E024
:1015D000022604E0052602E0032600E001264FF67D
:1015E000FF72944203D100F0D9FB841B02E0D229A0
:1015F00008BF0C34301980B201F01AFC38B105B1C3
:101600002C807142BDE8704009B200F0E5B970BDB0
:1016100080B5FFF797FF00281CBFBDE8024000F02F
:10162000B6B901BDDFF800F0F5950010DFF800F065
:1016300031960010DFF800F05D9600100A4610B5F4
:10164000052A18BF042A03D0062A18BF072A08D182
:10165000414B0C2404FB023222F8301D9070002014
:1016600010BD022010BD38B50D4604462888052857
:1016700018BF042803D0062818BF072801D16868BE
:1016800008B9022032BD01212046FFF74FFA08B900
:10169000142032BD4FF6FE70844207D02046FFF77B
:1016A00080FA2989884201D21B2032BD2B4800785C
:1016B0000028294620461CBFBDE8344001F0A5B9EA
:1016C000BDE8344001F057B980B5254B009313466F
:1016D0000A4601210BE0E0B50192002304220092AA
:1016E00002930A461F4B122101F0DAF80EBD01F0F9
:1016F0000BF902BD38B504461B480129017011D110
:101700001A480088051D0120FFF78CFF01B0ADB21B
:10171000284694FBF5F2BDE83040002392B2002148
:10172000FFF784BFBDE832400020FFF77BBF03B561
:101730000D480078012881B003D102AA01A9FFF762
:1017400079FF07BD094A001F1080044801707047E7
:101750000648008870470000A0470020724800201B
:10176000072B0100852B0100B34800209C46002078
:10177000704700006E490860704780B500220092F3
:101780000B4601226B4900F0BAF802BD80B50A8809
:10179000172A05DB002200920B4603226649F2E776
:1017A000022002BD38B50D460446A878012818BFAE
:1017B00002280DD1288800281CBF6868002807D09F
:1017C000022100F009F900902B4605225B4931E027
:1017D000022032BD38B500F01EF81CBF6868002832
:1017E00006D000F036F800902B460722544921E03D
:1017F000022032BD38B500F00EF81CBF6868002822
:1018000007D0022100F0E8F800902B4609224D494C
:1018100010E0022032BD0D4604462888002870479B
:1018200038B500F024F808B100F013F800902B460A
:101830000B224549204600F062F832BD38B500F071
:1018400016F808B100F005F800902B460D223F492C
:10185000F0E7012100F0C0B838B500F008F808B191
:10186000FFF7F7FF00902B460F223949E2E70D46BC
:1018700004466868704738B5FFF7CDFF1CBF68683D
:10188000002807D0022100F0A7F800902B46112273
:101890003049CFE7022032BD80B5002100910023FE
:1018A000132270E738B50D460446A86810B105212B
:1018B00000F092F800902B4617222749BAE780B52E
:1018C00000210091002319225DE738B5FFF7CFFF13
:1018D00010B1032100F080F800902B461B2209E094
:1018E00038B5FFF7C4FF10B1032100F075F8009080
:1018F0002B461D221949204600F0BDF932BDF8B52E
:1019000004460698009015461E46204600F0B3F99E
:1019100007000AD106480268100006D0012D04BF56
:101920003078451CE9B2204690473846F2BD0000A9
:101930008C480020831A01009F1A0100B91A010087
:10194000131B0100571B0100731B0100CB1B01007F
:10195000E71B0100EB1B0100251C0100551C0100C9
:1019600070B500F035F8054604F1080080B2FEF7C6
:1019700027FB060005D02948B48001683160066065
:1019800008362749096828468847304670BD38B56B
:1019900000F01EF8214A05461068002101E00146CA
:1019A000006878B100F108039C4221BF83881B18AE
:1019B0000833A342F3D3036800290CBF13600B6004
:1019C000FEF70BFB2846BDE8344015490968084777
:1019D000044614480068004738B504460D4600F038
:1019E0000EF8010009D0601B01F10803984221BFE5
:1019F0008B8859180831814200D2204632BD0749F0
:101A0000096841B101F10802904221BF8A88521849
:101A100008328242F4D30846704700008448002010
:101A2000304800202C480020F8B505460C46AF8908
:101A30002FB3AA68167830060FD50D2F1FDB0C3F89
:101A4000BFB2B81800903B466888012101F0CAFB7C
:101A5000002814BF0220012000E000202070B009FF
:101A600000F00100607006F03F00A070781EA080BA
:101A700080B208B1A868401CA0600020F2BD01201F
:101A8000F2BD0A7802704A8842704A88120A82704F
:101A9000097985E0022B00D163E00420704700BF84
:101AA0000A8802700988090A417002207047042BD5
:101AB00000D17DE0042070478A7802708878098818
:101AC00001280CBF042012204843401C80B27047FC
:101AD00070B51E46062E144619DB049D20786178E9
:101AE00000EB012028800222A078E17800EB0120A1
:101AF0006880211D02202871681DFFF7CEF8B01FF5
:101B0000288180B200B1A01DE860002070BD0420D3
:101B100070BD08888004000C704710B5029C062B2D
:101B2000104612D1022121714278017801EB022185
:101B30002180C278817801EB02216180011D227928
:101B4000601DFFF7AAF8002010BD142B08BF10215C
:101B5000E9D0042010BD49E0022B00D101E00420AF
:101B600070471078517800EB012000990880002020
:101B700070470888704710B5022B0FDB029C20725B
:101B800061721078517800EB01202080981E6080EF
:101B900080B200B1901C6060002010BD042010BD18
:101BA000C17004207047042B00D101E0042070476D
:101BB00000981178537801EB032101809178D27855
:101BC00001EB022141800020704708887047D80748
:101BD00007D45908022904DB0098818002600020A4
:101BE0007047042070470888704700BF4A880988FA
:101BF0000270514389B2481C80B2704710B5042B63
:101C00000EDB00F031F8D478917801EB04214180AB
:101C1000191F818089B201B1111D8160002010BDA2
:101C2000042010BD00BF0A8802700A88120A4270A0
:101C30004A8882704A88120AC2708888001D80B261
:101C40007047012B04D1009910780870002070476C
:101C50000420704700BF0A8802700A88120A427086
:101C60004888801C80B2704702981178547801EB44
:101C70000421018070472DE9F04784B080460C9D17
:101C80000C4691469A4655B9172001F0D1F8012625
:101C9000050005D11324204604B0BDE8F0870026D6
:101CA0002846012700F8019B14B15146A047471C64
:101CB0005FEA09600DD510214046FEF737FFD0B925
:101CC000BFB27A193946284601F03FFA04000CD118
:101CD0000C370420ADF800000195ADF8087000A99C
:101CE0004046FFF7C0FC0400D5D0002ED3D02846D4
:101CF000FFF74DFECFE71924F7E730B5022918BFEB
:101D0000102985B00446154603D1022B18BF102BAD
:101D100001D0002017E0994204D10A462946FEF777
:101D2000E0FF10E0102900A906D1284600F00DF8C8
:101D3000102200A9204604E000F007F8102200A9B4
:101D40002846FEF7CEFF05B030BD38B504000D467D
:101D500018BF002D0BD010220FF260012846FEF7AD
:101D60009CFF2078287360786873012032BD0020C2
:101D700032BD38B504464FF6FE7084420D460BD096
:101D8000172D09DBFFF7E4FCA84205D329462046BE
:101D9000BDE83440FEF7F7BE012032BD80B54FF6F6
:101DA000FE71884204D0FEF7FCFE28B9172002BD60
:101DB000BDE80140FFF7CCBC02BD0000FB349B5FD7
:101DC00080000080001000000000000038B54FF6D1
:101DD000FF74A0420DD10020154A137898420EDA04
:101DE00021F8204001EB80050023401CAB70C0B2FD
:101DF000F3E700F00BF810B104800021817031BDD1
:101E000080B500F003F800B1807802BD002200E048
:101E1000521C074B1B78D2B29A4206D231F82230BC
:101E20008342F5D101EB820070470020704700002B
:101E300068470020DFF800F0DD8A0010DFF800F0CE
:101E4000A18B0010DFF800F0D5700010DFF800F073
:101E50009D58001030B540F67B44851FA5423CBF1D
:101E60008D1FA54212D2814210D3B2F5FA7F0DDA4E
:101E7000A3F10A0040F67744A04207D2501C490063
:101E80004843B0EBC30F8041C00F30BD002030BDD0
:101E900080B501F04DFD8DF8000002F0E9F97449BC
:101EA0000020087000AA73490880012140F6034011
:101EB0005DE080B50FF22822412141F20200FFF7D8
:101EC000B9FF002002BD7CB5002808BF002938D129
:101ED000BABB01A802F042F99DF8040000EBC00073
:101EE000451DEDB22846FEF76BF806004FF620447C
:101EF00018D020203070042070700020B0709DF841
:101F0000040000280CBF0022721D311DF01C01F0DE
:101F10009BFD32462946204602F0BBFA3046FEF7CA
:101F20005CF80CE020208DF80000042100A800AA35
:101F30004170072181702046032102F0AAFA002097
:101F400076BD01F081FD76BD80B500208DF80000E2
:101F500000AA494800788DF80100042100208DF87E
:101F60000200464800788DF8030042F20200FFF7B5
:101F700061FF002002BD38B5044642F2160529462D
:101F80000020FFF75BFF204601F0F4FD8DF8000014
:101F900020B100AA01212846FFF74CFF002032BDE6
:101FA00080B5012301F010FF00F01BF842F21E0083
:101FB000DDE780B5012101F07FFF00F012F842F269
:101FC0001D00D4E780B530B1014608222C48FEF749
:101FD00064FE002000E0122000F003F840F66340A9
:101FE000C5E78DF8000000AA0121704780B542F2D4
:101FF00013010C20FFF722FF002002BD10B582B0B4
:102000001D218DF8001000AC04218DF8011010B9CD
:10201000FFF718FF00E01120A07000AA03214FF67F
:102020001D4002F036FA002016BD80B51C208DF848
:10203000000000AA04208DF8010003210C208DF877
:1020400002004FF61C4002F024FA002002BD02F00C
:102050008FB880B530B10B4902780A70407848706B
:10206000002000E01220FFF7BCFF42F201007EE7F3
:10207000244F0020264F0020084800208B4C0020D1
:10208000204800201848002000B585B000AA0DF1B6
:10209000020101A8FFF7DAFE8DF8080010210720E1
:1020A0008DF8090002AA02A8817002218DF80B1098
:1020B0009DF804108DF80C10BDF802108DF80D106D
:1020C000090A8DF80E10BDF80010C171090A0172DD
:1020D00041F201000921FFF7ADFE002005B000BD6F
:1020E000000000800000C000000000E400000028A4
:1020F00022000000000000040000F7C3B37E0000CF
:1021000000000000000000000000000000000000CF
:1021100000000000000000000000000000000000BF
:102120000000000000F10103810704D010F8011B3A
:1021300089B18107FAD10268B2F10131914311F0FE
:10214000803F04BF50F8042FF6E710F8011B11B1CF
:1021500010F8011BFBE7C01A7047000062F30F2262
:1021600062F31F42401810F0030308D0C91A1FD3AE
:10217000DB0748BF00F8012D28BF20F8022D13000F
:1021800030B414461546103928BF20E93C00FAD86F
:10219000490728BF20E90C0048BF40F8042D8900FA
:1021A00028BF20F8022D48BF00F8012D30BC704731
:1021B000C91818BF00F8012DCB0728BF00F8012D62
:1021C00070470000DFF800F00158001080B50221D0
:1021D00000A8FFF7F7FFBDF8000002BD7047704789
:1021E000804900204860704770B504460D46164689
:1021F00000F018F808B1466070BD1020FDF7E0FE51
:1022000078B184720581466000210160C160754922
:102210000A6812B9086070BD0A4611680029FBD12E
:10222000106070BD6F4A12682AB113898B4204BFD7
:10223000937A8342F7D11046704708B1002101819B
:102240007047F8B500F022F800F01BF800F04AF8EB
:102250000446384688470CB10020F2BD0820F2BD84
:10226000F8B500F013F800F00CF804005E4918BF50
:10227000E6600968384688470CB10020F2BD0820A6
:10228000F2BD0746324629462046ADE70446574888
:1022900000680D461646004770B500F026F8064661
:1022A00029462046FFF7BEFF040018BFFFF7C5FF11
:1022B00000F018F8304688470CB1002070BD0620A9
:1022C00070BDF8B500F011F8074629462046FFF723
:1022D000A9FF002600B1466800F004F83846884798
:1022E0003046F2BD40490968704704463F480068DF
:1022F0000D4600472DE9F047DFF8F090394D82B0E8
:102300000746D9F8000000978047014668683818EA
:1023100068600846344F396888472E68002E50D0D0
:102320004FF00008D9F8000080478246BDF802004F
:102330000024002804BF9DF80100002807D130794F
:102340009DF80010884202D3401A307106E0706890
:10235000009981423ABF401A70607460B08860B9D9
:10236000F08860B9F06800281CBF318900290AD0C4
:10237000B07AFEF7D6FDF0687060B08808B9F088D2
:1023800008B1308940B93068B8F1000F0CBF28603F
:10239000C8F80000344600E0B04636683968504658
:1023A000884764B1A088002804BFE088002803D1D2
:1023B0002189A07AFEF7B5FD2046FDF70EFE002E1E
:1023C000B0D1BDE8F3870748016841B108484A68C1
:1023D0000968824298BF10460029F8D17047002052
:1023E0007047000058480020304800202C4800204A
:1023F0008EC2F52800B583B00821ADF800108DF825
:1024000004001721ADF8021000A81A49096888478E
:102410000EBD194800218180012101707047F8B577
:1024200006461648007886420C4601D30320F2BDCA
:10243000114D2878E8B1124800688047074601200E
:1024400000FA06F6A88844B920EA0601A98058B126
:1024500051B90020FFF7CEFF06E010B90120FFF7C9
:10246000C9FFA8883043A8803846064909688847CC
:102470000020F2BD2848002048480020F4C8010090
:102480002C4800203048002030B585B01446082282
:102490000291ADF80020002238490968ADF8040027
:1024A000ADF802201D4600A88847BDF80C10218019
:1024B0000499296005B030BD1CB51420FDF780FDDE
:1024C0002F49086014220021FEF719FC002001F0BA
:1024D00053F8012002F01CF8022000F005F9032057
:1024E00002F04CF8042002F08EF9052002F0C8FA40
:1024F0000620FEF73BFF0720FCF79EFD082003F0B7
:1025000030F8092003F008FA01AB00AA00211020DE
:10251000FFF7BAFFBDF800100920FEF7FCFB00240E
:10252000BDF800102046FEF7FEFB641C092CF7DB0B
:1025300013BD10B582B003F087FE124B124A134947
:102540005020FFF7A1FF48B10820ADF800000C2093
:102550000A490968ADF8020000A888470C480068DD
:102560008047044604F01EF8FEF74DFD094909684E
:1025700020468847FEF77CFD002016BD2848002035
:1025800088480020D44500207E4800202F110100FB
:102590002C480020304800201B4213D1094236D17C
:1025A0002AB18446B0FBF2F002FB10C2704704F07F
:1025B000B5B8FCD30022002370470B0002000021B5
:1025C00000207047904271EB030CF6D370B5B1FA5E
:1025D00081F4B3FA83F52C1BA340C4F1200532FA31
:1025E00005F63343A2405FF00046E64002E05B0898
:1025F0005FEA3202841A71EB030524BF20462946A4
:102600007641F4D302000B003000002170BD012A96
:10261000CFD970B5140C20D0B1FA81F4B2FA82F59A
:10262000C4F120046419B4F12006D6D3B2405FF09F
:102630000044F440002502E052085FEA3303C61A62
:1026400071EB020E24BF3046714664416D41F3D3F5
:1026500002000B002000290070BD0C46B1FBF2F116
:1026600002FB11452D0445EA1045B5FBF2F402FBCF
:10267000145580B240EA0545B5FBF2F002FB10525A
:1026800040EA044070BD000070B5134D0446286850
:1026900020F00200286011480068804710490A684D
:1026A000A218B2F57A7F0AD34FF47A734E68B2FB60
:1026B000F3F39E194E604FF47A7606FB13220A60FC
:1026C0000849096888472046FFF714FE286840F04B
:1026D0000200286070BD000010E000E02C480020DF
:1026E00040480020304800205F4B1988FF2905D161
:1026F000188078220021181DFEF701BB70472DE9D4
:10270000F04104460D46280448BF85F4004030D40B
:1027100075B356480068804780460026002025FA99
:1027200000F1C90718D550490A88121BC2EB0212E2
:10273000821801EBC2010F1D012101FA00F6396870
:1027400008001CBF78688847B1B22046FFF7B9FD82
:1027500030B93860786003E0401CC0B20F28DEDB7F
:10276000434909684046884786EA050080B200E090
:102770000020BDE8F08110B582B00024FFE700948E
:1027800000F02AF816BDF8B504463848384E0068FF
:1027900080470F2C05461ADA334800EBC4077968E6
:1027A000A9B10F2194FBF1F2C2EB021300880121C1
:1027B000E31A9940801889B2C0B2FFF76DFD00207E
:1027C0007860B8602846316888470020F2BD3168DB
:1027D000284688470220F2BD2DE9F44F8046234861
:1027E000234C006889461E46804783465FEA0800FE
:1027F00004D1216858468847022032E00025DFF8DE
:1028000068A00AEBC507786818BB9DF82800009AF5
:1028100001280CBF174B184B0F2095FBF0F0C0EBB5
:10282000001E4FF0010CA5EB0E010CFA01F1BAF8F5
:1028300000C0604489B2C0B2984750B9C7F804805C
:10284000C7F8089006B135702168584688470020BF
:1028500007E06D1CEDB20F2DD3DB21685846884789
:102860000820BDE8F28F0000E44300202C4800203F
:10287000304800206122010043220100DFF800F00F
:10288000E9940010DFF800F0A19400100A780270BB
:102890004A7842708A78C97802EB012141807047FA
:1028A0002DE9FC410D4616461F460A9A0999044631
:1028B00001AB00F0EFF95FEA000822D10199089816
:1028C00008703346DFF84C050178491CC9B200296D
:1028D00006BF012101220A460170294601980271B2
:1028E000009701980279204600F00EF85FEA000890
:1028F00004D101981E2100F013FA02E0019800F0C3
:10290000F2F94046BDE8F6812DE9F041044684B075
:102910000E4617469846172000F08AFA050025D083
:102920000A9A100003D04146281D904700E000207D
:10293000010A2E70E9706F70A8700521001DADF8B6
:102940000800ADF80010019500A9DFF8CC0400786C
:102950000028204602D000F058F801E000F00BF803
:10296000040004D02846FFF712F800E013242046A4
:1029700004B0BDE8F08110B50B88DFF8A0240C246A
:1029800004FB0322303A536833B94B68536009891A
:1029900050811181002010BD162010BD80B505208A
:1029A00000F00FF858B9062000F00BF838B90420F1
:1029B00000F007F818B9072000F003F800B1012073
:1029C00002BDDFF858140C2202FB001110B5A1F172
:1029D000300484B06168A9B1DFF83C2412787AB180
:1029E000ADF80000019100A92089ADF808006089C8
:1029F00000F00BF810B16068FEF7C9FF00206060BE
:102A0000012000E0002004B010BD70B50D46044662
:102A1000288920B1DFF808140988814201D21B20DF
:102A200070BD68680421FEF7D7FF0646288930701C
:102A30002889000A70702888B0702888000AF07011
:102A40002889051D4FF6FE70844213D10C20FEF735
:102A500073F901000CD0902008704C80022008719E
:102A6000CD808E60DFF8BC030078FEF786F917E0B2
:102A7000132070BD3346AAB200212046FFF7FEFEA8
:102A8000010007D002280DD007280FD012280BD044
:102A90001F280CD1DFF88003017809B1491E0170AD
:102AA000002070BD142070BD022070BD042070BDD8
:102AB00038B50446002060600879022821D1CA8810
:102AC000042A1EDB886801784378C57801EB03216E
:102AD000837889B203EB05230D1D95429BB210D17B
:102AE000052B18BF042B03D0062B18BF072B08D1CA
:102AF000218123806FF00301FEF76EFF60600020EC
:102B000032BD012032BD0B88037002220B881B0AE4
:102B100043700B88012B06D14A88827004224988B1
:102B2000090AC1700CE0022B0AD14A8882704A88D7
:102B3000120AC2708A88027106228988090A4171C4
:102B400010467047022A1BDB0A784B7802EB0322FF
:102B500002800288012A05D18A78C97802EB012116
:102B600041800BE0022A09D18A78CB7802EB03225C
:102B700042800A79497902EB012181800020704767
:102B8000012070470A8802700A88120A42704A8837
:102B900082704A88120AC2708A8802718A88120A70
:102BA0004271CA888271C988090AC17108207047B8
:102BB000082A18D10A784B7802EB0322028011F818
:102BC000022F4B7802EB0322428011F8022F4B7840
:102BD00002EB0322828011F8022F497802EB0121D7
:102BE000C1800020704701207047022A00D101E017
:102BF000012070470A78497802EB0121018000200A
:102C00007047F8B504460D4616461020FEF794F8B6
:102C1000070016D0A02038707D80002078702EB17B
:102C20000C223146381DFEF738F804E00C22002152
:102C3000381DFEF764F839462046FEF79EF800205E
:102C4000F2BD0120F2BD2DE9F04180460D46164649
:102C50001F462020FEF770F8040019D0A220207033
:102C600066706580069820716771079929B11822EE
:102C700004F10800FEF711F804E0182204F108003E
:102C8000FEF73DF821464046BDE8F041FEF775B835
:102C9000BDE8F08170B51E0004460D4621D001212B
:102CA000FDF744FFD8B160480078002100E0491CDE
:102CB000C9B2814211DA5D4B1B6803EB01125388E4
:102CC000002BF4D10020107001F14000508022B19F
:102CD000D48015723260002070BD152070BD1420A4
:102CE00070BD012070BD10B5044610220021FEF712
:102CF00006F824E0002201E0521CD2B24A490978C9
:102D00008A420BDA4949096801EB02114B88002B12
:102D1000F2D00B798342EFD108467047002070470C
:102D20004FF47A724A4300F1090301460FF215008D
:102D3000FFF721BD10B50446607AFFF724FDFF20A0
:102D4000607210BD10B504001CBF6088002807D059
:102D50001721204600F005F82046BDE81040C2E7E4
:102D600010BD1CB50446207804280FD10020019026
:102D700000900A46E188207A1323FFF764FFE18878
:102D800002B0BDE81040122205202DE013BD07213E
:102D900070B50446002531BB17E02448006800EBFD
:102DA0000516307800281CBF707AFF280CD0F088F8
:102DB000A04209D13046FFF7BDFF14213046FFF78E
:102DC000D0FF3046FFF78FFF6D1C17480078EDB23B
:102DD0008542E2D30425FF222146284600F004F86C
:102DE0006D1C082DF7DB70BD10B50C4B0C2404FBDB
:102DF0000030A0F13004608988420AD1606840B197
:102E0000FF2A1CBF0178914203D1FEF7C0FD0020CC
:102E1000606010BDB448002072480020A047002028
:102E20009C46002070480020714800207448002013
:102E300080B5001D80B2FFF725FD28B1BDE8044034
:102E40006FF00301FEF7C8BD02BD0000DFF800F01F
:102E5000519B0010DFF800F0D557001038B5040082
:102E60000D4618BF002D01D1022032BD032100A85C
:102E700000F029F900A82A4600F027F8040004D140
:102E8000032200A9E81CFDF708FF204632BD30B53B
:102E900004000D4618BF002D83B001D102203EBDB5
:102EA0000322E91C00A8FDF7F8FE00A801AA00F023
:102EB0000CF848B90322294601A8FDF712FF0128A2
:102EC00001D100203EBD01203EBD817801F03F01CF
:102ED00041F040018170204600A950E070B5234CBC
:102EE0000546206870B3A5B9027862B90822801C33
:102EF000FDF7D3FEFFF7AAFF18B92168012008707B
:102F00001FE0012503E008220A30FDF7C6FE206815
:102F1000B8B11220FDF710FF06000DD0C1203070AF
:102F2000757010222068811CB01CFDF7B6FE206869
:102F300040783146FDF721FF2068FDF74EF800206C
:102F40002060012070BD80B5202003F0FBFB38B16C
:102F5000024607480078BDE808400121FFF771B933
:102F600001BD034800780121FFF796B9A848002069
:102F7000B54800201022214600A8FDF798BE70B584
:102F80008CB000F00FF8FFF7F5FF032229460DF192
:102F90001D00FDF78CFE00F00DF8044603220DF134
:102FA0002D0185E004460D4616463022002100A87A
:102FB000FDF7A5BE00A8C2E0F0B595B005460C46E9
:102FC00016461F463022002108A8FDF798FE102261
:102FD000294608A8FDF76BFE1022002100A8FDF786
:102FE0008EFE07223146FFF7C7FF072239460DF153
:102FF0000700FDF75CFE1C9901B101218DF80E1050
:103000001A9901B101218DF80F101022002104A896
:10301000FDF775FE1B99062205A8FDF748FE1D99D0
:1030200006220DF11A00FDF742FE102221460CA8DF
:10303000FDF73DFE00A90CA800F01AF808A800F062
:103040007EF80446102210A90CA8FDF726FE04A95C
:103050000CA800F00DF808A800F071F805461E98BD
:10306000102210A9FDF723FE45EA040015B0F0BDBB
:1030700010B51022037811F8014B6340521E00F87E
:10308000013BF7D110BD70B50C468CB0154601461A
:103090001E461022FFF770FF0822214604A8FDF704
:1030A00006FE00F00BF8FFF785FF0446102208A982
:1030B0003046FDF7FCFD20460CB070BD08222946C5
:1030C00006A8FDF7F4BD70B504460D46002609E0DC
:1030D000FDF71FFE010A3155761CF6B2AE423CBF29
:1030E0003055761CF6B2AE42F2D370BD006800F0E7
:1030F0000301C0F3800241EA8201C0F3C00241EA49
:10310000C201000941EA0010C0B27047026861F3D1
:10311000010202604A0703684CBF0422002223F028
:1031200004031A4302600B074CBF0823002322F05C
:10313000F8021A43090942EA01110160704700F1DF
:10314000200200F11001FFF785BE2DE9F0470700CE
:10315000144614BF002C022088B089463FD009F1E4
:103160000405A8B2FCF72CFF060036D003F03EFCA5
:1031700080464A463946301DFDF799FD86F80380A2
:103180004FEA1827B7704FEA184986F801904FEABE
:10319000186A86F800A003F026FC0146102203A856
:1031A000FDF785FD0820009001ABAAB2314603A8C7
:1031B00000F085F805000DD184F80080677084F870
:1031C000029084F803A0082201A9201DFDF76FFDDD
:1031D00003F010FC00F070F800E01325284608B05A
:1031E000BDE8F0872DE9F04F89B015001CBF129F94
:1031F000002F80460E469A4615D0FDF769FC040064
:1032000008BF142055D03878797800EB0120B978C0
:1032100000EB0140F97800EB0169606A484504D38E
:1032200010F1010F01D0022043E026B12079800780
:1032300058BF01203DD50822002101A8FDF75FFD00
:103240000AF1040B1FFA8BF0FCF7BAFE060008BF68
:1032500013202ED052462946301DFDF728FD0422AA
:1032600039463046FDF723FD102204F1140105A86C
:10327000FDF71DFD0820009001AB1FFA8BF23146CF
:1032800005A800F01CF8050010D1082201A903A828
:10329000FDF70DFD0822391D03A8FDF722FD0128C9
:1032A00011BF01254946404603F05FFD00F004F8D8
:1032B000284609B0BDE8F08F3046FCF78EBE2DE9F8
:1032C000FA4F834685B0154600F0CFF8814600F0EE
:1032D000CCF8B9F1000F804608BF132400F0B68087
:1032E000B8F1000F08BF132400F0AD8000F0BDF866
:1032F00000F0BAF8BAF1000F064608BF132436D022
:103300000EB9132430E010220021FDF7F8FC5246DC
:1033100031465846FFF717FF040025D19AF8000000
:103320000FF27C17000604D44946504600F0AAF874
:1033300008E03146504600F0A5F84A463946304686
:1033400000F096F899F80000000604D4414648467B
:1033500000F098F808E03146484600F093F84246FD
:103360003946304600F084F85046FCF736FE0EB180
:10337000FFF7A2FF002C66D100F077F800F074F898
:10338000BAF1000F064608BF132459D00EB9132412
:1033900053E005F10F00C11000EB117007033F145B
:1033A00005F00F0102D10127002202E04A1E9241DE
:1033B000D20F781E059B000503EB104012B222B11C
:1033C0003246494600F054F810E000AB8A42B8BFDC
:1033D000155C02DB0CBF80250025D554521C102A39
:1033E000F4DB3246414600A800F042F810220021EA
:1033F0005046FDF784FC00250BE00598290189B2B1
:10340000091800AA504600F033F800F029F80446E5
:103410006D1C2DB2781E854201DA002CEDD064B906
:1034200000AA3146504600F023F800F019F804468F
:10343000109A06985146FDF730FC5046FCF7CDFD3A
:103440000EB1FFF739FF4846FCF7C7FDB8F1000F92
:103450001CBF4046FCF7C1FD204607B0BDE8F08F19
:10346000524600A958466EE682461020FCF7A8BDD9
:1034700030B500231C5C5D5C6C409C545B1C102BC5
:10348000F8DB30BD10B500220F231C5C42EA440279
:103490005A541A5CD2095B1EF7D510BD000000001B
:1034A0000000000000000000000000000000008795
:1034B000DFF800F001720010DFF800F021AD00101D
:1034C000DFF800F06DAD0010DFF800F0C1D800109B
:1034D000DFF800F0B5D80010DFF800F01DB50010DF
:1034E000DFF800F03DAC0010DFF800F0AD8E00100A
:1034F000DFF800F0F58B0010DFF800F00D7200101F
:10350000DFF800F089D10010DFF800F0C9B4001036
:10351000DFF800F019570010DFF800F061840010A8
:10352000DFF800F08D670010DFF800F0BD800010BC
:10353000DFF800F02D8A0010DFF800F0C9870010D6
:10354000DFF800F069720010DFF800F071940010ED
:10355000DFF800F0A9AC0010DFF800F0E573001010
:10356000DFF800F035A30010DFF800F0E1AC001048
:10357000DFF800F0EDAB00102DE9F84FDFF8704AEE
:10358000DFF8705A207007210020A860DFF8680A71
:1035900001700D2141804FF404718180DFF85C0AD5
:1035A000DFF85C1AE9608A7E0270FF2ACB7E4370E6
:1035B00008BFFF2B0E7F86704F7FC77091F81EC02B
:1035C00080F804C0C97F417116D1FF2E08BFFF2FBC
:1035D00012D1BCF1FF0F08BFFF290DD1DFF8581B36
:1035E0000A7802704A7842708A788270CA78C2700B
:1035F0000A79027149794171DFF8401B0278DFF8DE
:10360000B48BDFF8B47BDFF860EB0A7042784A7065
:1036100082788A70C278CA7002790A714079DFF8BC
:103620009C2B4871FF21DFF8440B017041708170C1
:10363000C17001714171101D017141718171C171C0
:1036400001724172002101708172A02181810321E8
:1036500081730721C1730021017428214182012156
:1036600001750021817502F15A0100224A70012280
:103670000A7042750020DFF8481B0880D8F82C300B
:10368000DFF8401B58780870197839709A782A70DA
:103690009E683679761E8EF80060DB78DFF8286B3E
:1036A0006B704FF4967333801B261B2392FBF3F34E
:1036B00006FB132202B10122D21850436880881CF5
:1036C0001821484380B2FCF77BFCDFF8006BB06048
:1036D000002855D03878002855D04FF490714843D1
:1036E00080B2FCF76DFCDFF8E89AC9F8040008B96D
:1036F000B06843E0387838214843FCF761FC6860E3
:1037000020B900F08AF8D9F8040037E03878DFF8FB
:10371000C4AA0001FCF754FCCAF8000028B900F064
:103720007CF800F07DF8686828E03878DFF8A8BAFF
:103730000001FCF745FCCBF8000048B900F06DF83B
:1037400000F06EF86868FCF748FCDAF8000015E055
:10375000387830214843FCF733FCDFF8801A0860E2
:1037600088B900F05AF800F05BF86868FCF735FC9F
:10377000DAF80000FCF731FCDBF80000FCF72DFC68
:103780004FF4804144E0DFF8580A0068804707465C
:1037900003F0C9FFFFF78CFEDFF8480A00690068F4
:1037A0008047FFF789FEFFF78BFEDFF83C0A002118
:1037B00001600160C160C16003F002FE04F01AF90B
:1037C000DFF8281A40F2FF700860FFF77DFE06461A
:1037D000FFF77AFE864208BFFFF77AFED8F80C00A2
:1037E000697800880843DFF8081A08803846DFF84F
:1037F000041A096888470C21DFF8FC09FFF76CFE02
:1038000020780021FEF70BFE00F092F84FF40051F3
:103810002078BDE8F44FFDF784BBB068FCF7DDBB52
:10382000D9F80400FCF7D9BB30B50C46E00785B0E9
:1038300013D5FFF755FE38B100218160DFF8BC09D0
:103840000068010018BF8047DFF8A4070078002156
:10385000FEF7E5FD84F001005EE0A00707D500F06B
:103860005DF83C20FFF740FE84F0020054E0610761
:10387000DFF8800724D5DFF8581940688A7849684E
:103880004FF4907303FB0211382303FB02008D1DDC
:1038900011F82C2F04924A8912090392AA8B0292E2
:1038A0000122C9884908019100F12C01009190F88A
:1038B000283029780020FFF717FE84F004002BE061
:1038C000210607D500F02AF83B20FFF70DFE84F013
:1038D000800021E0A10508D5DFF82409016841F046
:1038E0000041016084F4007016E0610504D5FEF724
:1038F00075FC84F480600FE0610405D58120FFF73A
:10390000F7FD84F4804007E0A10443BF4FF0FF318E
:10391000816084F40050002005B030BD0020049088
:10392000039002900190009001460023012270470D
:10393000F8B503F01FFEDFF8A808DFF89468006808
:10394000DFF8747880470446002003F095FF40F2CA
:103950000140FFF7D1FDDFF88C080069C06880479F
:10396000FFF7AAFDDFF84C08DFF89818C06A8068F6
:1039700040790870002504F0DEFBDFF88C08FFF7C3
:10398000BFFDFFF7C1FDFFF7C3FDDFF88008002191
:103990000170017141718171C17101724172002226
:1039A000DFF8180800F10E010A70A0224A800722F1
:1039B0004A7103220A7100220A738A7200F8592F91
:1039C0000122CA720021427081700BE070684FF4CE
:1039D000907101FB05004179012908BF04F09AF9B3
:1039E0006D1CEDB238788542F0DBFFF795FD04F0F1
:1039F000F5FC04F01BF9DFF8181800200870DFF858
:103A0000141808700120DFF8101808700020DFF883
:103A10000C1808700120DFF8081808700020DFF883
:103A200004180870DFF800180870DFF80018088024
:103A3000DFF8FC17087003F0D8FDDFF8B817096845
:103A4000204688470020F2BD2DE9F0411446DFF8FA
:103A5000685708B12A780270DFF8748711B198F8B6
:103A600001000870002C3ED0002600271CE0C9B2DF
:103A7000DBB2085502F1280001791955591C427929
:103A800000F034F8827900F031F8C27900F02EF8B5
:103A9000027A00F02BF8427A00F028F80078C9B2D8
:103AA0004E1C08557F1CFFB2287887421BDA384627
:103AB000FFF736FD0028F5D1D8F804004FF49071D7
:103AC000F6B201FB0700DFF82C154968375538229C
:103AD0000068007802FB0712711C4B1C80280CBF89
:103AE00000200120C3E70020BDE8F081C9B20A55DB
:103AF000491C704738B50C00054601D1122032BD73
:103B0000FFF70EFDC0B900F018F901FB05000168D0
:103B10000978402901D00C2032BD00210A5D431AEA
:103B2000491C102983F8E220F8DB012180F8E41019
:103B3000052104F07FF9002032BD10B50446FFF7DF
:103B4000EFFCB0B900F035F801680978402901D0E0
:103B50000C2010BD00F1F0010A78012A03D10622E1
:103B60000A77022102E006224A700D2104F062F970
:103B7000002010BD10B50446FFF7D2FC60B900F07C
:103B800018F890F8F810022907D1817900F1F902AC
:103B9000002000F0D3FB002010BD016809788029C7
:103BA00003D10821FFF7C0FCF5E74029F3D111202C
:103BB00010BDDFF81C0640684FF4907101FB040053
:103BC000704710B5040001D1122010BDDFF80006C7
:103BD000407808B10C2010BD04F028F82078DFF8F8
:103BE000541600F01F0020704A78104048700020E2
:103BF00010BD38B50D00044606D0DFF8B805C06A20
:103C000080680079844201D3122032BD03F0C2FDE6
:103C1000032803D0204604F0D3FA02E0DFF8E405DD
:103C2000047001202870002032BDDFF88815C96AB1
:103C300089680979884201D312207047DFF8281576
:103C400008700020704710B5140019D011B1012977
:103C500008D015E004F0CDFA10F1800F20700DD1DE
:103C6000302010BDDFF84C05C06A8068016800791B
:103C700000EB4000401810F8030C2070002010BD2D
:103C8000122010BD2DE9F0410C0082B0074690468D
:103C90001D4627D0D74E3078404528D33846FFF709
:103CA0003FFC002847D100F048F801FB070704F06B
:103CB00089FD1B2298FBF2F21B2303FB128303B145
:103CC0000123718810181818814204DA0120FFF7C7
:103CD0002FFC07202FE030781C2814DA002D18BFA5
:103CE000012D01D0122026E0B8F11C0F04DB8A2040
:103CF000FFF7FEFB30201EE02B46424621463846A9
:103D0000FFF71AFC13E042462146384604F0FCF85F
:103D100088B92046FDF73BFEB879ADF800000DF1FB
:103D200002020120ADF8020000A900F043FB384672
:103D300004F0A9F90020BDE8F681DFF8940440689A
:103D40004FF49071704770B50646282E01DB1220A3
:103D500070BDDFF8DC44207808B1212070BD03F08D
:103D600009FCDFF88054286980688047700000F6FD
:103D7000621189B20020FFF7E3FBDFF8BC0440F6D4
:103D8000070101804060002141808160017B01F0DA
:103D900060010173417B01F0F00141F002014173C8
:103DA00002218173DFF89414016100214161C17B1C
:103DB00001F0F00141F00101C1730C21217029696A
:103DC00089698847002070BD2DE9F04104460D4601
:103DD000282CB8BF262D16460FDA002E18BF012E4C
:103DE0000DD0022E18BF032E09D0042E18BF052EA9
:103DF00005D0062E18BF072E01D012205AE0DFF89A
:103E0000308498F8000008B1212053E003F0B2FBA1
:103E1000DFF82C74DFF82C1441F60A0038800022F9
:103E2000002078807F60B860387B00F060003873D5
:103E3000787B00F0F00040F002007873600066309C
:103E4000B8738020F873DFF800043861796102806C
:103E5000857040F6C4124260C670027A02F0FE021B
:103E6000027200224272C260C27A02F0F00242F094
:103E70000102C272002008800021DFF8D003818097
:103E8000C18004708021457086700172B648D54C9F
:103E9000007804F095F9092088F8000000222369D1
:103EA000DFF8AC035B6800219847216989693846CF
:103EB00088470020BDE8F08170B50446282C01DB5E
:103EC000122070BDDFF86853287808B1212070BD3A
:103ED00003F050FBDFF86863DFF87813766041F693
:103EE00009003080716100207080B0600022307B5A
:103EF00000F060003073707B00F0F00040F00200D2
:103F0000707360006630B0738020F073D248306107
:103F100002600F22027101224271C84A826055225A
:103F200002734273827300220261C27B02F0F002CC
:103F300042F00102C273002008804880888000227D
:103F400080208871002088600021C0484170FF21D6
:103F50008170047000218180C1808021A14C017298
:103F60000A20287000212369B9485B6898472169B5
:103F7000896930468847002070BD70B5AC4C207808
:103F8000092818BF0A2801D0212070BD40F2024044
:103F9000FFF7B2FA2078AD49092809D1A94800886D
:103FA00088809848007804F00BF90021002015E083
:103FB0000A2815D1A74A538810889688CB801D18E7
:103FC00075198D809279802A18BF812A0FBF7F22B0
:103FD000A24B93F90030D21A0A720121FFF7B4FA0A
:103FE000FFF76AFA0020207003F0FFFA002070BD8E
:103FF000844C0020084800208C4C00206C4C002091
:10400000B63F0050F8B58A4C2178092918BF0A2913
:1040100063D00B291CBF0C290D295ED0674DA97CEC
:10402000002918BF012904D003291CBF0229042933
:1040300003D12A79002A18BF012A7BD1032918BF8E
:10404000022902D12B8AA02B74DB002843D001283F
:1040500070D1A87B012840D000291CBF0129042968
:104060000ED1FFF775FAFD21084236D1524800788B
:1040700000285FD056494978814201D10920F2BD1C
:10408000012004F0C4F9286000260120A87303F081
:1040900071FAFFF761FA7248182101FB0607387BB5
:1040A00040F080003873A87C012807D026B9FFF7BC
:1040B0000BFA00F5C87000E00020B860761C032EF3
:1040C000E9DB207828B9A97C6648085C2070FFF7F6
:1040D00047FA0020F2BDA87B08B92120F2BD404874
:1040E000006880470646FFF73FFA012804D0FFF733
:1040F000F7F92968884207D103F03CFA40F2024000
:10410000FFF7FAF9012700E000270020A8732868CC
:1041100003F0B2FB2846FFF72BFA207810B903F022
:1041200064FA02E00FB1FFF71BFA32490968304622
:104130008847CEE71220F2BDE81200507C4C0020E8
:10414000017841F08F010170C17841F02001C17008
:10415000817841F0300181700020704710B11C4916
:104160004978017000207047854C0020744C002075
:1041700070B504460D461646FFF7D2F930B9FFF781
:1041800018FD00F58E7005704680002070BD0C4B48
:1041900010B1012802D00AE0198070471888107009
:1041A0001888000A507000209070D070704712205C
:1041B000704700005CC80100BC4C0020EC490020A6
:1041C000984C00208B4C0020964C0020F44E002090
:1041D000B04C00200C4F00201C4F0020104F00203E
:1041E0002C4800202C4F00201010044000000460D8
:1041F000944C002030480020E84E0020C44C0020A1
:1042000004000940B94C00208C4A00209C4C00203E
:10421000864C0020BA4C0020874C0020884C00209F
:10422000BB4C0020894C00208A4C0020BE4C002052
:10423000B84C0020D04E0020404E0020294176711D
:10424000284E0020204F0020A84E0020DC4E0020E9
:1042500002000080C44E0020844E0020C04C00208C
:10426000244C0020C0D90010DFF800F0818C001031
:104270009E489021017088214170012181700221A6
:10428000C1700021017180214171002181712021C3
:10429000C171002196488160C1601F210170002119
:1042A0004170418041601F209249087070472DE99C
:1042B000F04100F078F81F463ED58D480078400761
:1042C0003AD5DFF8348298F8000098B10C20FCF75A
:1042D00033FD88B39121017084803E214170C580F7
:1042E0000321817006810021C1704781014698F841
:1042F000000020E01520FCF71FFDE8B1012101704E
:10430000042200F0C0F80A704C713E224A70CD7150
:104310000A228A704E720322CA70CF7200220A717A
:10432000220A8A712A0A0A72320A8A723A0A0A73BD
:10433000014672480078E7E0BDE8F081F8B500F08A
:1043400032F82FD56A48007800072BD51720FCF7E4
:10435000F3FC070026D0012038700822FF20787077
:1043600007F1080078600420796808703E207968B9
:1043700048700C207968887004207968C870786863
:10438000047178684571280A7968887131467868BF
:10439000C01DFCF782FC3946BDE8F4405748007860
:1043A000FCF7EBBCF1BD04465048C07980060D46D1
:1043B00016467047F8B5524E074630780C461546FB
:1043C00020B3B8000C3080B2FCF7B6FC00284DD00A
:1043D0009021017087701321417000F10C01416040
:1043E00000EB47010C31816000210AE0436834F89A
:1043F000112023F81120836835F8112023F81120AB
:10440000491CB942F2DB014630782BE0B800461C6B
:1044100006F10B00C0B2FCF78FFC38B3012101702C
:1044200000F031F804214268117013214268517084
:1044300041688E704168CF7000210EE000F01DF8D9
:10444000137100F01AF81B0A537100F010F8937101
:1044500000F00DF81B0AD371491CB942EEDB01468E
:1044600026480078BDE8F440FCF787BCF1BD4268FF
:1044700035F8113002EB81027047426834F8113090
:1044800002EB81027047FF21417000F10801416099
:1044900070472DE9F041184F044638780D46904694
:1044A000C8B118480078B0B905F10C0080B2FCF72B
:1044B00043FC060017D0912030702A46FF20707010
:1044C000B570B48006F10C00B0604146FCF7E5FB26
:1044D0003878314618E043462A462146BDE8F04187
:1044E000FF20FFF7C1BEBDE8F0810000004F0020B3
:1044F00018480020084F00207A4800207848002003
:104500007B480020284F0020BDE8F041FCF735BC77
:1045100080B518490870002048708870C87008710C
:104520004871FFF7A5FE14490020087001BD38B599
:104530000C46200412D50F480078FCF77CFC0500DF
:1045400009D02878032812BF0128E868FDF71FFA70
:104550002846FCF703FC84F4004032BD002032BD45
:104560000449887070470349C87070470149087151
:104570007047000078480020284F002010B5924C6A
:104580002070FCF729FA302200219048FCF7B7FB95
:104590008F4960780978081860700006000DFBF7F5
:1045A0000FFD606088B161780A010021FCF7A7FB6C
:1045B0000020FF226178C0B288423FBF616801EBF2
:1045C00000114A72401CF5D300E060702078FFF7BC
:1045D000CAFFBDE810400FF2FD10FCF723BA38B552
:1045E0000C462004784D0CD52878FCF724FC0500F7
:1045F00004D000F018F82846FCF7B0FB84F4004023
:1046000032BDE0070DD5FEF7C9F900281CBFA87818
:10461000002803D028780121FCF783FC84F00100F6
:1046200032BD002032BD3EB504462078902848D1E6
:104630006078132814D10020634A05E0A36833F89A
:10464000103059189170401CA3789178C0B29842EC
:10465000F4D3002935D010780121FCF762FC37BD76
:104660006588214600A8FEF723FA0199F9B1BDF843
:104670000000052804D100A9284600F023F818E01E
:1046800004281CBF0628072813D150490C2202FB1E
:10469000001030F8301D61B1807800AA2946FEF77D
:1046A000B0FA30B9BDF8000004280AD005E00128AE
:1046B00003D1A06808B1FDF76AF901212846FDF78A
:1046C00036F837BDF0B50E4604463089002504287B
:1046D00089B044DB716802A8FEF7D8F8BDF80A205B
:1046E000182A63DA3189101D814235D19DF80800FE
:1046F000C00736D57068071D9DF80900FEF7FAFA65
:1047000006002CD035719DF8080001280BD0132825
:1047100021D13078042822D1BDF80A20394603A8D7
:10472000FEF763FA05E0BDF80A20394603A8FEF754
:1047300009FA05463046FEF7FDFA03A8019000206D
:1047400000902A469DF80830307A2146FEF77BFA21
:104750003046FEF7C8FA15B12046FEF718FB09B03F
:10476000F0BD9DF80800122817D17068011D03A83C
:10477000FEF71EFA0500EED1144881890029EAD01F
:1047800003A9019100229DF809109DF80830807B53
:1047900000912146FEF757FADDE79DF80910ADF8C4
:1047A000005000AA2046FCF78FFFD4E70120ADF8A7
:1047B00000001720ADF8020000AA9DF8091020465D
:1047C000FCF782FFCBE7000070480020A0470020E4
:1047D0006847002010B504464FF6FE7084420ED0A4
:1047E000012906D002290AD101212046FCF79EF9B1
:1047F00028B92046BDE810400021FEF7C9BA10BD17
:1048000098494870704710B5964C2070FFF7A8FE85
:104810002078BDE810400521FCF710BF7CB5914D14
:1048200028780C46210419D5FCF705FB060084F412
:10483000004411D000F057F858B93078A22806BFCC
:10484000894800786878FF2803D03146FCF795FA4C
:1048500002E03046FCF782FA204676BDE10709D532
:10486000A86820B1416808001CBF0020884784F078
:10487000010076BDA10709D5686820B1416808002C
:104880001CBF0120884784F0020076BD610726D551
:10489000764E3188E9B1481E308080B2E0B904F02C
:1048A00011F848B1724901200870686820B1416868
:1048B00008001CBF0120884702F0B6F800A9FEF7E7
:1048C000CDFA00A802F021F81D2001F03BFF308056
:1048D00002E00421FDF7E0FC84F0040076BD002036
:1048E00076BDFCF73AB938B502780124912A4FF623
:1048F000FF7103D0A22A00F08E8092E04278594BDB
:10490000052A4DD00E2A04D00F2A4CD03E2A6DD055
:1049100087E0828841F20905511B32D040F6F975D3
:10492000491B34D0C91E36D0491E09D0891E022920
:1049300006D9C91E1BD0491E15D0891E08D070E0AB
:10494000596800296ED009680A006BD0884766E074
:1049500048490968002965D04B68190062D00146B2
:1049600042F20E0040E08168097800295AD0996827
:10497000002957D00B68190054D0014610469847BB
:104980004DE08068411C007801F083FF47E08068BB
:1049900001F09BFF43E08068007801F0F4FF41E004
:1049A00002F067FA3EE0828842F20D05531B13D0F5
:1049B0009B1F02D09B1F0FD033E02F4B1B888B42D5
:1049C0000AD02E49096869B30A6811002AD0014645
:1049D00042F21300904722E02649096811B34B6860
:1049E00019001FD001461046984718E08178012928
:1049F00007D016D3032901D006D312E002468088DF
:104A00000BE002F0DEF90DE0996859B149680A003F
:104A100008D0884706E00246408800F005F80446C2
:104A200000E00024204632BD70B50C461546FCF768
:104A30008EF80126042804D11048006858B1026895
:104A400003E00C48006830B14268100003D02946EA
:104A5000204690470646304670BD02494860704780
:104A6000000000006C460020B8450020BC45002036
:104A7000BB4500202C460020204600209048002006
:104A800010B53C4C2070FFF771FD20780621FCF733
:104A9000D5FDBDE810403848FBF7C4BF38B50C461B
:104AA000200416D533480078FCF7C5F905000DD071
:104AB00000F01FF838B931480078FF2803D02946A4
:104AC000FCF75BF902E02846FCF748F984F4004063
:104AD00032BDE00704D503F0C5FF84F0010032BD0C
