:10000000C04300201965000001CA011001CA011097
:1000100001CA011001CA011001CA011001CA011070
:1000200001CA011001CA011001CA011001CA011060
:0C00300001CA011001CA01103FCA0110F2
:100100003C0000000000000000000000340100007E
:1001100000000000000000000100000000000000DE
:1001200000000000000000000000000001000000CE
:0C013000000000000800000000000000BB
:10013C003400000000000000000000006801000016
:10014C0000000000000000000100000000000000A2
:10015C00010000000000000000000000080000008A
:04016C00000000008F
:1001700030000000000000000000000098010000B6
:10018000040000000000000001000000FFFFFFFF6E
:10019000FF00000001000000080000000000000057
:1001A0002C0000000000000000000000C40100005E
:1001B000040000000000000001000000FFFFFFFF3E
:0C01C000FFFFFFFF08000000000000002F
:1001CC0034050000E401000099A1011095A701106D
:1001DC00A5C2011009B2011045B8011000000000C1
:0801EC00000000002E000000DD
:1001F40028000000000000000000000014020000BD
:100204000000000000000000FFFFFFFF00000000EE
:080214000800000000000000DA
:10021C00300500003002000069C201106DC10110F0
:10022C001FC2011095BA0110000000000000000070
:04023C00300000008E
:10024000300500005402000075C20110A9B601106B
:100250009DBF011049B60110000000000000000021
:040260003100000069
:1002640024000000000000000000000080020000E4
:100274000000000000000000000000000800000072
:040284000000000076
:10028800240000000000000000000000A40200009C
:10029800000000000000000000000000080000004E
:0402A8000000000052
:1002AC00240000000000000000000000C802000054
:1002BC000000000001000000000000000800000029
:0402CC00000000002E
:1002D00000000000F40800200400000000000000FE
:1002E000000000002000000070010000300000004D
:1002F0001C020000FC0800200400000000000000B8
:10030000000000000C000000300400001800000095
:10031000400200000409002004000000000000006A
:100320000000000024000000480400001800000045
:10033000000000000C090020040000000000000084
:100340000000000010000000A00100002C000000D0
:10035000CC0100001409002004000000000000008F
:1003600000000000200000006402000024000000E3
:10037000FFFFFFFF1C090020040000000000000038
:100380000000000028000000880200002400000097
:10039000FFFFFFFF24090020040000000000000010
:1003A00000000000580000003C0100003400000084
:1003B000FFFFFFFF2C0900200400000000000000E8
:1003C00000000000100000006004000018000000A1
:1003D000FFFFFFFF340900200400000000000000C0
:1003E000000000001C000000AC020000240000001F
:1003F000FFFFFFFF3C090020040000000000000098
:100400000000000038000000F40100002800000097
:10041000FFFFFFFF4409002004000000000000006F
:100420000000000054000000000100003C0000003B
:100430001800000000000000000000004004000060
:080440000800000000000000AC
:100448001800000000000000000000005804000030
:08045800080000000000000094
:100460001800000000000000000000007004000000
:0804700008000000000000007C
:0804780001000000786500009E
:040484000100000073
:0404880000000C0064
:04048C0000000D005F
:040490003200000036
:040494000200000062
:04049800C407002075
:04049C00000200005A
:0404A0000000000058
:0404A40001CA011078
:0404A8000000000050
:0404AC00000000004C
:0404B0000800000040
:0404B4000000200024
:0404B80058070020C1
:0404BC00010000003B
:0404C000BC08002054
:0404C400080000002C
:0404C8000000000030
:0404CC00000000002C
:0404D0000000000028
:0404D4000000000024
:0404D8000000000020
:0404DC00010000001B
:0404E000F4070020FD
:0404E400060000000E
:0404E800010000000F
:0404EC00480600209E
:0404F0000000000008
:0404F4000000000004
:0404F80000020000FE
:0404FC0000000000FC
:020502002A00CD
:020504000100F4
:020506002500CE
:020508003000C1
:02050A003100BE
:02050C002E00BF
:02050E000100EA
:0105100001E9
:08051400040000004465000032
:08051C000000000000000000D7
:0405240000000100D2
:0405280000000300CC
:04052C0087C401106F
:04053000380500008A
:040534003805000086
:0405380000000000BF
:04053C00800000003B
:040540008000000037
:0405440000000000B3
:04054800BC080020CB
:04054C002B1C000064
:040550002000000087
:04055400306500000E
:040558001C63000020
:04055C000DC30110BA
:0405600095130000EF
:0405640097130000E9
:0405680099C801101D
:04056C009BC8011017
:040570000000000087
:040574000221000060
:04057800E861000036
:04057C000062000019
:04058000D061000046
:0205840008006D
:0205860009006A
:02058800010070
:02058A0000006F
:01058C00016D
:040590000000000067
:040594000000000063
:04059800000000005F
:04059C00000000005B
:0405A000271200001E
:0405A4008D120000B4
:0405A8000911000035
:0405AC00B712000082
:0405B0006D110000C9
:0405B400251100000D
:0405B800B511000079
:0405BC00F912000030
:0405C000A91B000073
:0405C400AF1D000067
:0405C800B31D00005F
:0405CC000800000023
:0405D0002400000003
:0405D400180000000B
:0405D80028000000F7
:0405DC0020000000FB
:0405E0003C000000DB
:0405E4000C00000007
:0405E80034000000DB
:1005EC00DFF800F0F5C00110DFF800F049BA011097
:1005FC00DFF800F025C20110DFF800F0C1C20110D5
:10060C00DFF800F0E3BF0110DFF800F013C10110B8
:10061C00DFF800F0D5C00110DFF800F095C0011034
:10062C00DFF800F00DA80110DFF800F0BDBE0110DE
:10063C00DFF800F02DBF0110DFF800F0E1B501107C
:10064C00DFF800F021C10110DFF800F0D5C2011075
:10065C00DFF800F0D9C20110DFF800F0F1C501108D
:10066C00DFF8D400007D704738B5DFF8D400DFF830
:10067C00CC500068EFF3118480F31188A868002136
:10068C00FFF7CAFF6969081AA969814238BF0020BF
:10069C0084F3118832BD00002DE9F041DFF8A00091
:1006AC00DFF898400768EFF3118887F31188A0688A
:1006BC000121FFF7B1FF0121A1830021E1836569CD
:1006CC0021682268461B801A691A884204D20020CD
:1006DC00A08388F311882AE088F31188002005E0B4
:1006EC004519361A29460120FFF79AFF8642F7D2A0
:1006FC00EFF3118887F31188E18B012903D1294687
:10070C000020FFF78DFFA16910F1010F08BF08460B
:10071C0003D0801B814238BF08464119FFF784FF84
:10072C00012020840020A083256088F31188BDE877
:10073C00F081808A70470000A4010020780100201D
:10074C0070650000DFF804100968704770650000E0
:10075C0000F01CBE80B5002301223421DFF8EC0927
:10076C0001F0D2F800B10120C0B202BDDFF8E41AEA
:10077C000A68002812BF42F00100500840000860CF
:10078C00704700007047FEE710B582B0042001F0FE
:10079C00FFF8022818BF03280DD1032000901C235A
:1007AC004FF040520021DFF8A40901F08AF8BDE8AF
:1007BC00164004206AE0DFF89C19DFF89C0A0968EF
:1007CC000C18DFF89419DFF8A00A0968B0FBF1F1F6
:1007DC002046FFF711FF2046BDE81640FFF710BF7B
:1007EC0080B5DFF878090078DFF8AC090168890872
:1007FC00890041F00101016001F0D7F801F061F9C5
:10080C00DFF89819002008600220DFF894190968B5
:10081C00C9688847DFF8540A016849084900016033
:10082C0000F01BFA042000F013F900F0B2BC000039
:10083C00DFF8281A405C70470022012904D10128F6
:10084C0007D1DFF8600903E0012802D1DFF8280A9C
:10085C00026810467047DFF8000A00797047000004
:10086C0001F0B8B810B5DFF83C160968EFF3118445
:10087C0081F31188DFF8E019C9880120012908BF2C
:10088C00FFF768FF84F3118810BD000030B5DFF866
:10089C001416DFF89C390A68EFF3118182F3118882
:1008AC00B0FA80F2C2F11F02D25CB0FA80F4C4F14B
:1008BC001F04551EE55405D1DFF89C29136823EA63
:1008CC000000106081F3118830BD00002DE9F0416B
:1008DC00FFF738FFEFF3118481F31188DFF87C19EF
:1008EC00425C531E435444D1DFF87419DFF8748909
:1008FC0001EB80052E786F88300618D5D8F80010DB
:10090C00096A38468847D8F80010896A38468847FB
:10091C00D8F80010096B38468847DFF854190120C5
:10092C000860DFF8500900688007FAD514E07006FB
:10093C0006D5DFF8B01951F82710002088470BE0D6
:10094C00D8F80010896938468847D8F80010496BE8
:10095C00384688470228F8D106F03F003F2818BFD8
:10096C00FFF7B4FF687800F03F003F2818BFFFF78F
:10097C00ADFF84F31188BDE8F08110B508B1140007
:10098C0001D1032010BD8160C26003610146DFF814
:10099C00EC28DFF84C0912681018FFF749FE00200C
:1009AC0010BD0000F8B50446DFF8F804DFF8AC1809
:1009BC000068EFF3118580F31188625C531C63545B
:1009CC00002A3ED1DFF8981801EB8407387800F044
:1009DC003F003F2818BFFFF7E5FF787800F03F0095
:1009EC003F2818BFFFF7DEFF7E883878DFF8747871
:1009FC00010613D53968C969304688473968496A90
:100A0C00304688473968C96A3046884700F038F85C
:100A1C00DFF8600800688007FAD512E0400606D5BA
:100A2C00DFF8C01851F826100120884709E0396812
:100A3C004969304688473968496B304688470128F0
:100A4C00F9D185F311882046BDE8F24001F096B942
:100A5C00DFF850140A68EFF3118182F31188DFF884
:100A6C00F827136803431360B0FA80F0C0F11F003D
:100A7C00DFF8BC27835C5B1C835481F311887047BF
:100A8C00DFF8EC1701200860704700002DE9F04FEB
:100A9C004FF000080021012883B0C1468A4618BFD8
:100AAC00022412D1DFF8FC03DFF834780268EFF38C
:100ABC00118082F311883A79012A06BF02223A7119
:100ACC00012180F3118809B10624BDE0FFF788FDF0
:100ADC000090012000F0E6F8040002D001203871EB
:100AEC00AFE0FFF795FDDFF828180190C1F80090F2
:100AFC00012000F04DFF012804D1002001F01EF967
:100B0C004FF00108DFF8E047DFF85057216889689B
:100B1C000020884700F0A1F8687C08B14FF001096B
:100B2C00287C08B149F00209E87B08B149F00409B6
:100B3C00E87ADFF82C6718B1A16AF08D096B884749
:100B4C00A87A18B1A16A708D096B8847FFF798FFD6
:100B5C0049F02000A16A896988470120FFF706FE49
:100B6C003878C00748BF4FF0010A12D4DFF8980755
:100B7C0001F030F98346BBF1040FF7D000F067F8B1
:100B8C008008800008600321A26CDFF87C075268A3
:100B9C009047002001F026F900F05FF8A06A806B06
:100BAC008047BAF1000F0AD1A26CDFF85C075268DB
:100BBC005946904700F04BF840F0030008600120C4
:100BCC00216889688847DFF8440700688006FAD5F1
:100BDC00B8F1000F1CBF012001F0B0F8A16A4969FF
:100BEC0048468847A16A496B484688470128F9D18D
:100BFC00E87A18B1A16AF08DC96A8847A87A18B149
:100C0C00A16A708DC96A8847FFF73AFF0020FFF789
:100C1C00ADFD03203871042000F044F8DFF8F01625
:100C2C000120086000F019F801F0EAF9082000F042
:100C3C0039F80446012038710198FFF7FDFC01F0EA
:100C4C006AF90098FFF7D0FC2046BDE8FE8FDFF86C
:100C5C00D006DFF8CC1600687047DFF8C8060068CD
:100C6C007047000038B58F48DFF874560068EFF312
:100C7C00118480F31188E888012803D100F0FEFE6E
:100C8C000020E88084F3118831BD000010B5FFF717
:100C9C0059FDEFF3118481F31188FFF7D1FC84F334
:100CAC00118810BD38B500F02AF80818FFF7ACFC15
:100CBC00002540B9204600F008F820B1DFF868069E
:100CCC00006880470225284632BD70B500F017F841
:100CDC000D182846FFF7B8FC0646B068204206D02F
:100CEC003169F26820469047C0B2012806D03046E0
:100CFC00FFF7AEFC0646AE42EFD1002070BDDFF828
:100D0C007C1509680446DFF8D805704730BF70477A
:100D1C0070B501F071F9DFF840552E6806F00C0043
:100D2C000C284BD0700727D4FFF79EFC04460021FB
:100D3C000120FFF781FDA0421ED2DFF814040068E9
:100D4C004519DFF814040668DFF8E0050068B0FB0D
:100D5C00F6F0211A2846FFF74FFC2846FFF750FC07
:100D6C004FF47A70B0FBF6F200210120FFF78EFEF3
:100D7C002846FFF73DFC23E030071FD4DFF8EC04D6
:100D8C00DFF8E044DFF87C55F10601685ABF4908EA
:100D9C00490041F001010160DFF88405016841F070
:100DAC000301016020202168896988472868206830
:100DBC00806B804701202860286801E0FFF7A6FFC0
:100DCC0001F01EF9BDE8704001F0D0B810B50C1858
:100DDC0001F012F9401E8041C00FDFF860150A685F
:100DEC00002AFCD0246801220A6008B101F008F93D
:100DFC00204610BD80B50420FFF72AFE0820FFF71F
:100E0C0027FE0E20FFF7CEFDDFF82405DFF82415B2
:100E1C000068C0F3815003280CBF0120002008801B
:100E2C00DFF8140502680AB1012002BDDFF81035A5
:100E3C0040221A600122C2610020486002BDDFF826
:100E4C00601310B50968DFF8FC4482B009682020F3
:100E5C0088470F202060072341F61D5060604FF437
:100E6C00C0720220009000F0C9F8DFF8DC04012108
:100E7C00016001688907FCD501212161DFF8B444C8
:100E8C002188012907D1002101610220202100F0D5
:100E9C0091F8012004E00121002000F08BF80220E1
:100EAC00606013BD706500002DE9F041DFF89C0413
:100EBC00DFF8804482B0016842688A434260016175
:100ECC006068002804BFBDE8F341FFF7B8BF0128F4
:100EDC00DFF87C141AD10220606008684BF2F5210F
:100EEC0048436188000A11B10021618006E0DFF8F7
:100EFC0064140968090210EB11204008DFF858143B
:100F0C000860000C4860012088600CE002280FD1BA
:100F1C000868B0F5C06F02D10020606045E0032185
:100F2C00616000F06FF80121BDE8FC41002041E058
:100F3C0003283DD1002060600868A0F5C065A0685A
:100F4C0000F0B2F80646284600F0AEF886422CDADD
:100F5C00A669284600F0ACF88019A061E5686069C4
:100F6C007A4E85420ED0A769A7F1100000F09CF8CC
:100F7C0080462069103800F097F8804502DABFB23D
:100F8C0000970BE0ADB2009508234FF47F4230215F
:100F9C00304600F096FC206980B2009012234FF48A
:100FAC00F8020421304600F08CFCBDE8F3418AE0E5
:100FBC00BDE8F38170B50D46DFF8A04382B0032184
:100FCC0021600021DFF89863316031688907FCD417
:100FDC0080B200900523602200F010F801203060F0
:100FEC0030688007FCD5A561002020600821DFF85F
:100FFC005003C16001600120206073BD0021534883
:10100C0000F05FBC70B50646504C82B030212046D3
:10101C00FFF7DCFEDFF81C53C0F30720E860042167
:10102C002046FFF7D3FEC0F384402861A6F5C060CC
:10103C00A8602E6900F03CF88019A861A969E868DD
:10104C00022909DA401E6FF03F039842B8BF1846D8
:10105C0010310BD5002109E01E2908DB401C40286B
:10106C00A8BF3F2010392029A8BF1F21A9616861A2
:10107C00082380B200904FF47F42302100F011F829
:10108C000120009011234FF4003200F009F8A869F8
:10109C0080B2009012234FF4F80200F001F873BDF7
:1010AC000421204600F00DBC002848BF4042704788
:1010BC0000284CBF6FF00101022101EB400003211D
:1010CC0090FBF1F0704780B5DFF87C0200210160E5
:1010DC0001688907FCD40021016041600120DFF820
:1010EC00581208600E20FFF7F1FB0820FFF7CEFB2B
:1010FC00BDE802400420FFF7C9BB000010B5044650
:10110C000020D4E90A2347F6906100F07DFF012905
:10111C0028BF4FF0FF3010BD10B50C4600F0ECFFAF
:10112C00011D201AB0F1004F05D8081BB0F1004F7B
:10113C0038BF8C4200D20C46DFF82C221268526A5F
:10114C002146BDE8104001201047000000A00C40D3
:10115C00546500005865000074650000C72E00201F
:10116C002DE9F04180460A46D8E90A01D8E90C4538
:10117C00A0FB026701FB0277A6196F41340C002219
:10118C0044EA07414046FFF7C7FFC8E90E67BDE8D0
:10119C00F0814FF0FF3002BD044003404010094085
:1011AC00A001001064650000F8B50546DFF8BC012D
:1011BC00DFF8BC610068DFF8BC71EFF3118480F3D9
:1011CC001188306840F0800030600120B9684968AF
:1011DC008847F96A096A142088472869BA68526AEC
:1011EC00B0F5802F34BF0421010C012090473A68E0
:1011FC001268232100209047B968C96901208847EB
:10120C00306820F4E02040F480303060306840F0EA
:10121C000100306084F31188F1BDDFF860010368D0
:10122C00406800220021101859417047000000004E
:10123C00A42E0020DFF83011DFF8280110B5096862
:10124C0044684968012088476069A169BDE810407D
:10125C00084700000C20084020050020502E0020DC
:10126C0018620000B8010010A08601008C21084013
:10127C002820086028200840686500005C65000094
:10128C00F8B504460D46FFF7C8FFD4E90A673246A5
:10129C003B4600F0B9FE3DB1A6FB002306FB013333
:1012AC0007FB0033C4E90C23F2BD38B5DFF8C040AE
:1012BC00DFF8C4502068400840002060206840F0EF
:1012CC00800020600120E062E06A29684968012002
:1012DC008847696A096A14208847E06A31BD0000B2
:1012EC0020050020E00800209001001080B500F0DF
:1012FC0004F8000C40EA014002BDDFF884000068ED
:10130C008BE700002C2009400040034014100940DA
:10131C000C40094009B9DFF86C10FFF79DB90000CB
:10132C00242208402C200940606500006C650000F8
:10133C00B43F0050A008002004800C4000800C40FA
:10134C002C500C400C400C4034600C4028500C408D
:10135C0008400C40102009403C600C4000400C4000
:10136C0038600C40E40100208C0100107065000016
:10137C0000200940840100108C0100100820094055
:10138C00EC010020A0010000FEE7704710B5DFF86B
:10139C006404046814F1010F08BF002400F020FF5E
:1013AC00DFF85414002008600120DFF850140860A6
:1013BC00DFF84C140860DFF84C04006828B1DFF843
:1013CC0048040068204600F023F8DFF84004DFF8FA
:1013DC00402401688908890041F0005141F0050161
:1013EC000160DFF8300401686FF31B4111430160A9
:1013FC00DFF824040168C1F30131012907D1016828
:10140C00DFF81824114041F400320260016010BD75
:10141C002DE9F84F0446DFF8081401200860DFF8C6
:10142C00040401680029FCD0DFF8FC53DFF8FC83CE
:10143C00C0202860D8F80CA0D8F80810DFF8F0030A
:10144C0089075DBFD8F80410090C41F0F001722136
:10145C000170DFF8E0130968D8F80C20C1F30461BF
:10146C001629A8BF203901EB2271491C6FF0090223
:10147C009142B8BF114601F01F0141F4F8510183AC
:10148C00CAF3C061DFF8B00381F001010160CAF357
:10149C00806181F00101816014B9DFF8A0732DE047
:1014AC00DFF89C030068C0F383615FEA8A32C0F303
:1014BC008F2021D44FEA0A4212160AD54FF6FF7339
:1014CC00400804D11846490804BF01210120521CD0
:1014DC00F6D4012A10DB400040F00100B0F5803F4B
:1014EC0021BF0120490041F00101102924BF0F2127
:1014FC004FF6FF70521EECE740EA014700F07CFD0E
:10150C00401E8041C00FCF4E31680029FCD0DFF85F
:10151C003893C9F810700121316008B100F070FDEA
:10152C000CB9D82008E0C64A10681168C0F38700CF
:10153C0001F0030140EA0120009040F2FF37002344
:10154C003A462C21C14800F0BCF91CB1BC48C06A19
:10155C008704BF0C00F050FD401E8041C00F316865
:10156C000029FCD0C9F814700121316008B100F0D9
:10157C0047FD002C0FBFB64FB148406A20F003372F
:10158C0000F03AFD401E8041C00F31680029FCD0AC
:10159C00C9F80C700121316008B100F031FD0CB9B3
:1015AC00AC4F04E0A648AC49006A01EA000700F021
:1015BC0023FD401E8041C00F31680029FCD0C9F8C2
:1015CC0008700121316008B100F01AFD0CB9A34F6D
:1015DC0020E09B48806AD8F80830DB07C0F3035240
:1015EC00C0F303410BD4D8F804301F0502EB27726B
:1015FC001B0482F3040201EB237181F3040109043F
:10160C0041EA025182B242EA0107222C24BF00F0C7
:10161C008040074300F0F0FC401E8041C00F316851
:10162C000029FCD0C9F804700121316008B100F028
:10163C00E7FC2220222C824F06D3F86B000F00F01F
:10164C000100400040F02000854908721120222C36
:10165C0005D3F86B400F00F0010040F01000202C77
:10166C0008724FF0000B07D3B86CC10C01F4407139
:10167C00C0F3845040EA010B00F0BEFC401E8041D8
:10168C00C00F31680029FCD0C9F820B001213160AD
:10169C0008B100F0B5FC6020202C06D3B86C000D0E
:1016AC0000F00300400040F060006D49C8728020DB
:1016BC00222C06D3F86BC00E00F00100C00040F0E5
:1016CC0080000870222C4FF47C4006D3F86B400D40
:1016DC0000F03F00800040F47C406249DFF888B1A4
:1016EC000880202C0AD3B86C0203810A02F47C1205
:1016FC0042EA815100F00F0041EA003B00F07CFC13
:10170C00401E8041C00F31680029FCD0C9F800B0E0
:10171C000121316008B100F073FC54484421017080
:10172C00882181700CB9302105E0F96BC90C01F0EE
:10173C00030141F03001C1704FEA9A5010F00300E0
:10174C0003D002283CD012D33CE00121042000F04D
:10175C00FDF843F2BD70E8638620286401206864BC
:10176C00434801680029FCD0002068642EE0012069
:10177C0000F00EF904462146042000F0E7F804209E
:10178C0000F006F9A042FAD1D8F800301802000A8D
:10179C0081B2E963000C2864012068643448016854
:1017AC000029FCD0002068644FF06022180E314BE9
:1017BC001B681B68072198474FF48060C9F83800F4
:1017CC00032100E00221042000F0C0F8F8692A4946
:1017DC0000F03F00087047F61800284908801049AF
:1017EC00274800680020286008600120254908600F
:1017FC00BDE8F18F1C130050840460425C600C4007
:10180C000822044380012843000120430440034084
:10181C00000039014820034004000940FFFFFCFC94
:10182C00101009409402224300600C40A83F005065
:10183C0056620840B812005000002043FF0F0F0002
:10184C005013005000800C4008A00C4000A00C402D
:10185C00000088688A766800FFFFFC00273F710053
:10186C0041A10C40DCA10C4000803F4005A10C4084
:10187C0084088C43B40100100BB00C4070B00C40C9
:10188C002C2009409404604238B504460D4600F003
:10189C00B3FB401E8041C00F1A490A68002AFCD0D5
:1018AC00012D02D0022D02D003E0247802E024881E
:1018BC0000E0246801220A6008B100F0A1FB204678
:1018CC0032BD38B500EB4100102B00F5007402D38B
:1018DC00103B241D120C0498984040EA024500F07D
:1018EC008BFB401E8041C00F06490A68002AFCD0C1
:1018FC00256001220A6000281CBFBDE8314000F0C1
:10190C007FBB31BD00800C4038B51D460818102D2A
:10191C00144602D3103D801C240C0221FFF7B4FFA7
:10192C0004EA000188B2E84032BD50F8041B61B1F2
:10193C0050F8042BD30744BFA9F101039A180023D4
:10194C00091F42F8043BFAD1EFE7704738B504465B
:10195C00E0070D4607D5A8B2009000230122002114
:10196C006B48FFF7AEFFA00707D5A8B20090012384
:10197C00022200216648FFF7A4FF600707D5ADB22D
:10198C00009502230C2200216148FFF79AFF31BD1C
:10199C000146042907BF1D234FF0C0421C234FF002
:1019AC0080525B483421FFF7AFBF10B5594C21680A
:1019BC00896801208847584801688906FCD5216947
:1019CC000968402088472169896840208847112888
:1019DC00F9D110BD70B5054600F08EFB4F4C616817
:1019EC00401A4FF47A714843060C00F003FC21694D
:1019FC00401A48BF4042711940F6B932914207D2A1
:101A0C00062805DAA068E168814201D3226852B940
:101A1C0043494A68D2074FF4FA6016D40868C0B23A
:101A2C007D21484308E0081A3E494843000C00EB6E
:101A3C009000904238BF1046C82801D2C82070BD13
:101A4C00B0F57A6F88BF4FF47A6070BD10B582B074
:101A5C000120009000232E4C012219462046FFF74E
:101A6C0030FF012000900346022200212046FFF7A0
:101A7C0028FF00F041FB2949886013BD80B5012087
:101A8C00FFF786FF01281AD00023012234212048B9
:101A9C00FFF73AFFA0B124480068804700F02CFB08
:101AAC001E498B680A68C860A2EB9202C01A1D4BD3
:101ABC005843000C0860904238BF10460860012063
:101ACC0002BD10B582B0002000900146104C0023DE
:101ADC0001222046FFF7F5FE00200090014601236D
:101AEC0002222046FFF7EDFE1C234FF080523421DA
:101AFC002046FFF709FF10B10B4800688047074CE0
:101B0C0000F0FAFA606000F075FB206113BD000074
:101B1C0000A00C409001001014100940642E00200D
:101B2C00AC3F005040420F0080000010DFF800F086
:101B3C0049C10110DFF800F019C20110DFF800F004
:101B4C000DC30110DFF800F081C60110DFF800F0C2
:101B5C0095B70110DFF800F08DC20110DFF800F02E
:101B6C003DC20110DFF800F009C30110DFF800F0EE
:101B7C0045C00110DFF800F0D1C70110DFF800F00C
:101B8C0067BE0110DFF800F021B30110DFF800F0A0
:101B9C0011C80110DFF800F021C801100C2811D079
:101BAC00192814D01D2817D020281AD021281DD070
:101BBC00252820D02A2823D02B2826D02C2829D001
:101BCC0000207047DFF8E401006800687047DFF818
:101BDC00DC01006840687047DFF8D001006880685D
:101BEC007047DFF8C8010068C0687047DFF8BC01B7
:101BFC00006800697047DFF8B401006840697047FD
:101C0C00DFF8A8010068C0697047DFF8A001006820
:101C1C00006A7047DFF894010068406A704700B5AD
:101C2C008BB00A2100A8FFF789FF0BB000BD00B5EF
:101C3C0081B0FEF78DFDDFF87801DFF878110068D0
:101C4C00884218BF00F034F8DFF86C01B0F5B26FC1
:101C5C0003D001B05DF804EB2BE001B000BD00B582
:101C6C0081B00FF22100FFF76DFFFFF76FFFFFF759
:101C7C0071FFFFF773FF01B05DF804EBFFF772BF64
:101C8C000000000000B581B0FEF7C2FCFEF7A8FC16
:101C9C0001B05DF804EB0320FFF768BF10B50446F4
:101CAC000320FFF763FF2046BDE81040FFF762BF3B
:101CBC00FEE7FEE700B581B0FFF760FFDFF8FC0040
:101CCC00C06801B05DF804EBFFF75CBFDFF8F01003
:101CDC00DFF8F00088617047DFF8EC1001280CBFCA
:101CEC0040F2FF70002008600020704730B581B0D2
:101CFC00FFF71CFFDFF8D4500446E88820B1FFF74B
:101D0C00BDFE60B10020E880FFF774F80546102096
:101D1C00FEF7C8FF012D0BD1FFF791F808E0052164
:101D2C0005F13000FEF768FC05F13000FEF768FCA9
:101D3C00204601B0BDE83040FFF7FCBE10B50128CD
:101D4C0018D1FFF725FE012816D0FFF77FFEDFF82C
:101D5C007C400120E08004F13000FEF749FC0521B5
:101D6C0004F13000FEF748FC04F13000FEF748FCAB
:101D7C00002010BDFFF7A5FE002010BD10B50124FA
:101D8C000E2805D10120FFF703FE012805D003E042
:101D9C00DFF83C10405C00B90024204610BD002048
:101DAC007047FFF7F3BEFFF7F5BE0000F00100200F
:101DBC0098CA011070472820900500007801002077
:101DCC0044010020000400000000046020050020F5
:101DDC00502E00200068010701D50420704700F048
:101DEC0003007047F8B505467748784C00688007C3
:101DFC0005D50820A071764976480860F1BD00F041
:101E0C00F9F9754A1268002112F0030F18BF01216D
:101E1C00520748BF41F002010DB141F0040194F9A1
:101E2C000720821A052A02DAA279914259D0A0F130
:101E3C000F0200250023002A1FD402EB02121312FA
:101E4C00082B28BF07231D46072D28BF0625634EE8
:101E5C0006EB850756F825507F687E1BF5B24F07B9
:101E6C0044BFC6F307277D198F0744BFC6F3074746
:101E7C007D19CF0748BF05EB1665584E56F82370F1
:101E8C00FEB25FEA417C44BFC7F3072C66445FEAAD
:101E9C00817C44BFC7F3074C66445FEAC17C48BFF2
:101EAC0006EB1766A2EB03226A434D4B1D681B68B9
:101EBC00A1718032092A92412D17C5F108053427EA
:101ECC00D243DBB27D436B4306EBD272B3FBF2F22F
:101EDC00B2F5803F28BF4FF6FF7200F30700A280D7
:101EEC00E07140480068A188206000201F2904D2BE
:101EFC001F21A18004E04908401CB1F5007FFAD2F3
:101F0C000F39090940EAC100314A374908431060CA
:101F1C0000205060F1BD10B53448006884B224B381
:101F2C0000F068F9294991F90720904205DA6FF021
:101F3C007F029042B8BF1046C8718888844201D293
:101F4C008C8010BD274A12680B68D21A921C202A6A
:101F5C0028BF1F22231A520823FA02F42018B0F5C6
:101F6C00803F28BF4FF6FF70888010BD2048006866
:101F7C0000B9704710B41F498A6802F04063B3F18E
:101F8C00406F1ED04B689B071BD40F4B1C68096815
:101F9C00C1F303511C31090114F0050F06D088421E
:101FAC000FD224F00500186010BC7047814208D293
:101FBC00100158BF44F00104500158BF44F0040410
:101FCC001C6010BC7047000000000940AC2E0020C3
:101FDC0030100940FDFDA400242208409C13005041
:101FEC00B43F00500820094000FFA4803410094081
:101FFC0028500940AC3F0050EFF3108072B6704788
:10200C00EFF3108062B670471B4213D1094236D1F0
:10201C002AB18446B0FBF2F002FB10C2704700F00C
:10202C00FDB8FCD30022002370470B0002000021F6
:10203C0000207047904271EB030CF6D370B5B1FAE7
:10204C0081F4B3FA83F52C1BA340C4F1200532FABA
:10205C0005F63343A2405FF00046E64002E05B0821
:10206C005FEA3202841A71EB030524BF204629462D
:10207C007641F4D302000B003000002170BD012A20
:10208C00CFD970B5140C20D0B1FA81F4B2FA82F524
:10209C00C4F120046419B4F12006D6D3B2405FF029
:1020AC000044F440002502E052085FEA3303C61AEC
:1020BC0071EB020E24BF3046714664416D41F3D37F
:1020CC0002000B002000290070BD0C46B1FBF2F1A0
:1020DC0002FB11452D0445EA1045B5FBF2F402FB59
:1020EC00145580B240EA0545B5FBF2F002FB1052E4
:1020FC0040EA044070BD000038B5FFF77DFF06498B
:10210C000C684D68401E8041C00F18BFFFF778FF68
:10211C00280C40EA044032BD082009402D480068D4
:10212C00000C00F00700032828BF4FF0FF30704769
:10213C0029490968C1F30F314BF69A1291424FF0BD
:10214C00FF3001D1002070474BF6BE12914201D1F5
:10215C00012070474BF62032914208BF0220704795
:10216C0010B41D491D4B0A681B680968120FDBB2BD
:10217C00802B28BF0023C1F30F314BF69A14A142D8
:10218C004FF0FF300CD1012A08D0032A1DD0072AAA
:10219C001DD0082A08BF03F1160013E00A2011E035
:1021AC004BF6BE14A14206D1002AF7D0022A09D15F
:1021BC0003F1140006E04BF62034A14204BF002AC0
:1021CC0003F10A0010BC40B270471420FAE7152046
:1021DC00F8E700009412005018130050A0100050A3
:1021EC0080B5FFF7A5FF18B9FFF7BAFF162800DA7C
:1021FC00FEE701BD0748084A816812780068C903E8
:10220C0052B2A0F54070C9135043A1EB201080309E
:10221C0000127047285009400C1300507047000002
:10222C00DFF800F0D9C10110DFF800F025B1011082
:10223C00DFF800F041AC0110DFF800F0B9C201107A
:10224C0000B583B000F00DF8032114E0E0B500F008
:10225C0008F8042100F012F808B100200EBD029815
:10226C000EBD0821ADF800100190704700B583B089
:10227C00FFF7F7FF052100F001F807BDADF80210DC
:10228C0000A8DFF864190968084700B58FB0082367
:10229C003C22002100A8FFF7C3FFDFF8500900F132
:1022AC005001079100234FF45871089100AA0121A5
:1022BC0006910FF24511FFF7B7FF0FB000BD10B537
:1022CC0084B00820ADF800000120DFF81C19DFF8FD
:1022DC0020490968ADF8020000A88847BDF8040041
:1022EC0020820298206204F14C0000F0D3FD606261
:1022FC0000230020019000904FF47A720FF69901A0
:10230C0004F1280000F082FD0FF69D0000F030FE75
:10231C0000F0AAFE4FF6FF70608100AA0020E0607A
:10232C00012108208DF8000040F2044000F007FF66
:10233C004FF47A61022001F0BCFA4FF47A61032069
:10234C0001F0B7FA0FF668221521002001F0C5F94B
:10235C0044F6C740019001AA01208DF80300042126
:10236C0000208DF802008DF8010001208DF800008E
:10237C004FF4816001F0F4FA0DF1030201214FF4E6
:10238C00806001F0EDFA0DF10202012140F20240F1
:10239C0001F0E6FA0DF10102012140F2034001F0D7
:1023AC00DFFA00AA012140F2064001F0D9FA01F04F
:1023BC006DF9208AC0B201F07BF94FF0FF3001F0CB
:1023CC0089F94FF0FF3001F058F904F1580000F092
:1023DC00A3FE04F15C0001F0FAF8208AC0B201F00F
:1023EC00F3F8208AC0B201F04EF900210FF60C0070
:1023FC0000F057FE1FBD000070B586B0FFF75FFF01
:10240C00DFF8E447DFF8E85725E0686A00F06DFD77
:10241C00060004D000F066F83046FFF727FF686A24
:10242C00FEF7F2F80028F0D0688AC10713D54FF6F2
:10243C00FE7108406882002068832883E8820120AE
:10244C00287105A9A88B2A8A001FADF81400D2B2F6
:10245C00A88A01F0ABF90820ADF800000A20ADF80D
:10246C0002004FF0FF30019000A821688847002837
:10247C00D5D10820ADF808000920ADF80A0002A853
:10248C0021688847BDF80E10049E0028C7D1BDF8FE
:10249C000C00102801BF288A8142304600F006F853
:1024AC00002EBCD03046FFF7CBFEB8E7017891295F
:1024BC0005D0B02902D0D02913D18DE03AE2417871
:1024CC000E2902BF818841F20542914209D18068F0
:1024DC0090F90300414204230A220FF63C0000F05D
:1024EC00F9BD7047F8B504462088022827D0042887
:1024FC0051D008280FD0102808D020286BD1606844
:10250C00FFF7D4FF6068BDE8F24099E6A178BDE81A
:10251C00F440002009E1646860884FF6FF7188423E
:10252C0059D0012101F0E4F9002854D021886068C9
:10253C0000F092FC6088BDE8F24001F00FBB6068CF
:10254C00A27800781AB902210FF2D87019E0012A8A
:10255C00014609D118B902210FF2D87011E00223FB
:10256C000A220FF2E07013E0022A04D178BB022198
:10257C000FF2E07005E0032A29D128B902210FF2ED
:10258C00E47000F08EFD22E002230A220FF2E870C4
:10259C0000F0A0FD1BE060680578DFF85406868A21
:1025AC0001F07AFBDFF84C16DFF84826B0FBF1F1AE
:1025BC0002FB110735B104230A2239460FF2CC7005
:1025CC0000F088FD3A460021304601F00BF86068B7
:1025DC00BDE8F2404AE6F1BD70B504460FF27066F4
:1025EC00A178DFF80C564FF6FE7059B101293FD097
:1025FC00052950D0062974D0072900F08C800D29AC
:10260C000CD070BD6089A883E01C00F07DFC01211A
:10261C0000F047FD02210FF2F05078E02069217B99
:10262C000918491E00E0101888427DD210F8012BC1
:10263C00002AF9D00378022B18BF032BF3D1401CCE
:10264C00521E01E0801C921ED2B2022A01DB88428B
:10265C0003D3012AE8D1401CE6E70378F02B04BF32
:10266C004378FF2BEED12179601DBDE8704043E229
:10267C000020A870022329780FF298500A2200F04B
:10268C0029FD287820B103210FF2985000F009FDA4
:10269C002878687070BD6178A9B90220E8706089EB
:1026AC00A8820120E871688B18B905F1280000F0A8
:1026BC00D1FB02210FF27C5000F0F3FC201D00F046
:1026CC0023FC032123E00021E970A8822971022157
:1026DC000FF26C5000F0E5FC617803230A223046BF
:1026EC001EE00021A882E97029716983E971A08834
:1026FC0000F071F902210FF2605000F0D2FCA179C8
:10270C0003230A22304600F0E5FC0421C4A0BDE8F6
:10271C00704000F0C6BCE1780FF24C5002230A2244
:10272C00BDE8704000F0D6BC70BD2DE9F041DFF87B
:10273C00C044DFF8C4746278A37820780D0784B0A5
:10274C0019D5002B38D1002836D0511CC9B2814282
:10275C0028BF0021617002236078411C0A220FF20D
:10276C00185000F0B7FC607807EBC000801C00F03C
:10277C00CBFB0321DAE094F803C0A58A5FEA8178E9
:10278C00A7A657D5BCF1020F1AD0B3B90120A0707F
:10279C000221002020700FF2E84000F082FC03219F
:1027AC00304600F07EFC0421304600F07AFC00221A
:1027BC000121032000F023FDBAE000F036FDB7E064
:1027CC00608B0028FBD0E1790029F8D1A17901B305
:1027DC00002301221221284601F002F90028019061
:1027EC00EDD0608B0199ADF800000120ADF802002E
:1027FC00607908700020ADF8080000A9228AA08A30
:10280C00D2B200F0F1FF70B1122100A801F0F7F87C
:10281C008EE0ADF8000000A9228AD2B2284600F062
:10282C00DFFF002805D10120E071A07980F00100C4
:10283C00A0717DE0CB060ED5BCF1020F78D14FF420
:10284C001670009000234FF448724FF4C87128465C
:10285C0000F0C5FC6CE0CB072CD5BCF1000F16D1F9
:10286C00002865D00121E17007EBC200851C42787D
:10287C002B460021002000F097FC02210FF21040A3
:10288C0000F00FFC284600F03FFB03210DE0BCF1EB
:10289C00010F18BFBCF1020F4AD10320E07028468B
:1028AC0000F07BFC02210FF2F43000F0FAFB042163
:1028BC0030463BE048073BD5BCF1020F38D12846E7
:1028CC0000F0A5F860BB0121284601F011F878B39F
:1028DC00284600F09CF807004FF47A7604D078680C
:1028EC0000F0CFFA3E8016E060894FF6FF71884207
:1028FC001ED12420FFF7AAFCE060C8B10021019191
:10290C0000910A4600230FF2A92100F07FFA65819D
:10291C0004F1080726813146786800F09DFA07E03B
:10292C00284600F058F804210FF2803000F0B9FB73
:10293C00BDE8FF8138B5AE4D0446E878022843D196
:10294C0060782179162804D104230A220FF26C3006
:10295C0032E00B2908D001290DD1207A0A2818D190
:10296C00217B0FF2683003E0E06801780FF26830E9
:10297C0004230A2208E0132911D16979481C6871D3
:10298C0004230A220FF2683000F0A4FB0020E87147
:10299C001AE0122813D1217B0FF24830E8E77E2988
:1029AC0003D1217A0FF2543004E07F2907D1218919
:1029BC000FF2583004230A2200F08CFB04E0287933
:1029CC0010B1204600F02EF8217904F10800BDE882
:1029DC00344001F014B838B5044600F018F8A0B132
:1029EC004068834D00F04DFA6889A0420BD1E8682D
:1029FC0030B1FFF721FCE868FFF738FC0020E860F5
:102A0C004FF6FF706881002032BD122032BD78492C
:102A1C004A89824202D101F10800704700207047B8
:102A2C000000000010B5724C2179012988B018D132
:102A3C00007903285ED10FF260300088ADF80000F9
:102A4C0004230A2217210FF2C42000F043FB0220BA
:102A5C0020710222238AA08ADBB200A900F0A9FE11
:102A6C0048E0022930D1017907290DD1018959B1EA
:102A7C00C1680A78497802EB0121E182C1688A7841
:102A8C00C97802EB012121830179072906BF40781F
:102A9C001A2801292ED1E08A60B3ADF80400032175
:102AAC00208B228AADF80600217102208DF80800D7
:102ABC00D2B2F1208DF8090001A9FF208DF80A008F
:102ACC00A08A00F08FFE15E0032913D101790929A2
:102ADC000ED1018961B1C1680878497800EB0120F9
:102AEC00608302210FF2B42000F0DBFA0020E071C9
:102AFC000020207108B010BD2DE9F8453C4D2E7812
:102B0C00082E82460C461EDA0027DFF8EC8000E027
:102B1C007F1CFFB2B74209D208EBC700811C06220A
:102B2C00504601F0D1F80028F2D10CE008EBC600B9
:102B3C0006225146801C01F0F9F8287808EBC001F8
:102B4C00401C4C702870BDE8F18580B50246002110
:102B5C00202000F035F8401E8041C00F02BD38B572
:102B6C000C4615460120FFF771FB020005D01570CD
:102B7C002146BDE83840022022E031BD10B51C468C
:102B8C000120FFF763FB30B104700246BDE8104032
:102B9C000021042014E010BD1548418A41F00101C8
:102BAC004182006AFFF744BB01460022102007E077
:102BBC000F4901EBC00000F1080200215FF0080092
:102BCC0070B504460D4616460820FFF73FFB50B182
:102BDC000480857046600246BDE87040044B196A5B
:102BEC00586A00F05EB970BDDC080020E0220020BD
:102BFC009005002040420F006C2D0020424C4520D7
:102C0C0043656E7472616C00496E697469616C69BC
:102C1C007A6564004465766963657320466F756EEA
:102C2C00640000003C2D20546F2053656C65637468
:102C3C0000000000436F6E6E6563746564000000F5
:102C4C00436F6E6E656374204661696C6564000049
:102C5C00526561736F6E3A00446973636F6E6E6593
:102C6C006374656400000000506172616D205570E2
:102C7C00646174653A000000446576696365000020
:102C8C00446973636F766572696E672E2E2E000031
:102C9C00436F6E6E656374696E670000446973639D
:102CAC006F6E6E656374696E670000005253534912
:102CBC002043616E63656C6C656400004154542064
:102CCC005273702064726F70706564005265616439
:102CDC00204572726F7200005265616420727370CD
:102CEC003A0000005772697465204572726F720069
:102CFC0057726974652073656E743A0046432056AA
:102D0C00696F6C617465643A000000004D54552085
:102D1C0053697A653A00000052535349202D64429E
:102D2C003A00000050616972696E672073746172B9
:102D3C007465640050616972696E672073756363B2
:102D4C006573730050616972696E67206661696CA6
:102D5C003A000000426F6E64696E6720737563639E
:102D6C0065737300426F6E642073617665207375B2
:102D7C006363657373000000426F6E642073617649
:102D8C0065206661696C65643A000000506173737C
:102D9C00636F64653A000000F0FF000053696D70CA
:102DAC006C652053766320466F756E6400000000DE
:102DBC0053696D706C6520424C452043656E74728E
:102DCC00616C000000000000DFF800F085C101100C
:102DDC00DFF800F079B50110DFF800F0F5B801105C
:102DEC00DFF800F0B5C10110DFF800F0A9C1011047
:102DFC0000B583B00821ADF8001001900521ADF8A5
:102E0C00021000A852490968884707BDF0B589B07F
:102E1C0004460D4616461F4608232422002100A80E
:102E2C00FFF7D2FF0F984B490968069000AB4FF49F
:102E3C007A70B0FBF1F101FB07F0059001FB06F293
:102E4C000E98ADF8100029462046FFF7C1FF20462A
:102E5C0009B0F0BDFDF7D4BB38B504460D46FDF7FF
:102E6C0068FC10B12046FDF7C3FB00F00CF800FB2A
:102E7C0005F12046FDF7C0FB2046BDE83240FDF7CA
:102E8C00BFBBFDF7B5BB334909684FF47A70B0FB93
:102E9C00F1F0704710B504460021FFF79DFF204666
:102EAC0010BD70B584B004460820ADF800000D4686
:102EBC000420ADF802000C20254909680190164643
:102ECC0000A8884758B9029949B18E602046FFF78F
:102EDC0087FF15B12846FFF7ABF9012003E0304618
:102EEC00FFF786FF002004B070BD10B50446FDF757
:102EFC008BFB38B92046FFF777FF8468FFF778FF24
:102F0C00204610BD002010BD30B585B0044600A889
:102F1C000FF24801142200F019FF0F483021017004
:102F2C00A21D782141700623811C00AC12F8015DB2
:102F3C002D095B1E2D5D01F8015B157805F00F0561
:102F4C002D5D01F8015BF1D105B030BD0000000032
:102F5C00DC08002074650000782E002030313233FC
:102F6C003435363738394142434445460000000079
:102F7C007CB50446394D05F1300105F1480001F0EE
:102F8C0058F8A8600FF26501354E01F01FF900F0FA
:102F9C0026F800F024F800F022F800F020F800F0F9
:102FAC001EF8304E00F015F800F013F800F011F890
:102FBC0000F00FF800F00DF80020019000900023B5
:102FCC00C8220FF2890105F10C00FFF71FFF6C609E
:102FDC0073BDA86832464FF0C05101F007B9A8681C
:102FEC0032464FF4E02101F001B9000010B51B4C42
:102FFC000020207000F027F818B9207840F001006C
:10300C00207000F020F818B9207840F002002070F1
:10301C0000F019F818B9207840F00400207000F086
:10302C0012F818B9207840F00800207000F00BF866
:10303C0018B9207840F01000207004F10C00BDE8A5
:10304C001040FFF707BFFF2001F08DB8034841681F
:10305C000A001CBF0078084770470000F4050020E8
:10306C00FF000580FF00001010B5214C84B004F166
:10307C00080104F1100000F0DCFF606000A801F012
:10308C0024F900AA012104F11C0001F027F92060A9
:10309C0030B1002101F02AFA2068002101F01DFA5C
:1030AC001FBD70B5124E0446306882B00D4680B11B
:1030BC002A46002101F03AFA306800950023224696
:1030CC00002101F03CFA3068BDE87C40002101F0A1
:1030DC0004BA73BD1CB504460548006830B10193B1
:1030EC0000920B462246002101F07BF913BD000033
:1030FC0018070020E0B5ADF80000ADF80610002070
:10310C00AA490968ADF8020000A8884710B99DF8D3
:10311C0008000EBDFF200EBD1CB5A54C00B16060B3
:10312C0004F10800019004F11C00009004F10C0360
:10313C00608862780821C0B200F062FB16BD70B5E1
:10314C00034600244FF4806610469B1B0A46984D9C
:10315C0006D05B1E0AD05B1E10D09B1E13D019E04C
:10316C00102915D1014605F10C0004E010290FD1EE
:10317C00014605F11C0000F0D9FD0CE0042907D133
:10318C000068A86007E0012902D10078687002E0AD
:10319C00182400E00224204670BD01468448408873
:1031AC001322C0B200F056BBFEB5064680480F464F
:1031BC00418814461D465020FFF79CFF8DF80000F7
:1031CC008DF801608DF802708DF8034006222946B7
:1031DC0001A800F0ABFD00A800F033FBFEBDE0B58C
:1031EC00ADF80000ADF80210ADF80420ADF80630D3
:1031FC000498ADF8080000A800F027FB0EBD70B5D0
:10320C0004466B480D46418882B016465020FFF7A5
:10321C0071FF8DF800008DF801408DF802508DF88B
:10322C00036000A800F031FB76BD61484088C0B255
:10323C0000F02FBB00B58FB008233C22002100A862
:10324C00FEF7EEFF5B4800F15001079100234FF4AD
:10325C00DC71089100AA032106910FF20D01FEF713
:10326C00E3FF0FB000BD0000F0B585B00820ADF84D
:10327C00080001204D4C4E4D2168ADF80A0002A803
:10328C008847BDF80C00688000F04FFB287005F1F2
:10329C000C021021022000F0B5FC05F11C021021DB
:1032AC00032000F0AFFC05F108020421042000F01B
:1032BC00A9FC29E0707888B905F10C0210210220D4
:1032CC0000F0B5FC05F11C021021032000F0AFFC4E
:1032DC000622F11C05F12C0000F028FD686828B1CD
:1032EC000168080002D0304688470746002E18BFF8
:1032FC00002F09D00820ADF800000320ADF8020023
:10330C00019600A8216888470820ADF800000A2023
:10331C00ADF802004FF0FF30019000A821688847FB
:10332C000028F1D10820ADF808000920ADF80A00FA
:10333C0002A821688847BDF80C10BDF80E20049E29
:10334C000028E1D10127102904BF68888242CDD121
:10335C0030884FF6FF71884209D170884004C5D57A
:10336C0005F108020421042000F061FCBEE730786E
:10337C00D028BBD1B07800289CD005280BD00628CB
:10338C0005D00C28AAD1B08800F061F9A6E7B08866
:10339C0000F055F9A2E7707800289FD17289F07877
:1033AC000823311D00F034F998E70000DC080020F8
:1033BC00AC2D002090260020E0B50821ADF80010BF
:1033CC000190022100F00FF808B100200EBD029808
:1033DC000EBD00B583B00821ADF80010019003219B
:1033EC0000F001F807BDADF8021000A8DFF8941347
:1033FC00096808471FB5ADF80610ADF8040008249D
:10340C00DFF880138DF808200393ADF80040ADF879
:10341C00024000A80968884704B010BD30B585B0DB
:10342C00144608220291ADF800201922DFF854133B
:10343C0009680190ADF802201D4600A8884714B118
:10344C00BDF80C10218015B1BDF80E102980089A1A
:10345C000499116005B030BD00B583B00820ADF8FB
:10346C0000001A2000F014F810B9BDF804000EBDCD
:10347C00FF200EBDE0B5ADF80000ADF80610002041
:10348C0000F006F810B99DF808000EBDFF200EBD27
:10349C00DFF8F0120968ADF8020000A8084750B137
:1034AC0010F1040F01D10420704710F1030F01D16A
:1034BC0002207047012070478123037042EAC1113A
:1034CC00002341F47C41C3708180704782230370D8
:1034DC0081800023C370827170473EB5044608207A
:1034EC00ADF800000D462020ADF802001020DFF8EA
:1034FC0094120968ADF8040000A8884720B9029816
:10350C0010B16FF004003EBD00950023002221464F
:10351C004FF0FF30FFF782FF3EBD10B51446CA785E
:10352C00012A82B003D18A88DFF8E4341A8000F0D3
:10353C0010F858B9009000A92046FFF7CEFF28B923
:10354C0000984478FFF745FF204616BDFFF7A7FF0C
:10355C0016BD0B46022210214CE738B51C46154609
:10356C00FFF7F7FFB8B9009000A92846FFF7B5FFA1
:10357C0088B900984578002D04BFC079A04205D1C8
:10358C00009881680498224600F0D0FB0098FFF761
:10359C0020FF284632BDFFF782FF32BDF8B500F0A0
:1035AC0045FA00F0A2F907000DD032462946FFF784
:1035BC008DFF00F066F93872FFF74EFF3B4601B005
:1035CC00BDE8F04054E0F1BD10220121E6E738B52A
:1035DC0000F0E4F9050004D0042200F04CF8AC60D3
:1035EC0040E031BDF8B500F0D0F907000AD0132245
:1035FC0000F041F800F008F83946BDE8F840DFF873
:10360C0014248AE70420F2BD3C81BD72FE6023E7DE
:10361C002DE9F04100F046F907000FD0142200F01C
:10362C002AF83C72FD603E8287F81280FFF714FF87
:10363C003946BDE8F041DFF8E0236EE720E038B50D
:10364C0000F043F8050001D0152208E031BD38B573
:10365C0000F03BF8050001D0162200E031BD00F06F
:10366C000AF82C81FFF7F8FE2B4601B0BDE830407C
:10367C0002221021BEE6012128E7002204216CE081
:10368C000420BDE8F0811022022187E710B500F07C
:10369C0064F904000AD0112200F01AF8FFF7DCFEDE
:1036AC002146BDE81040DFF8742336E7042010BD36
:1036BC0038B500F00AF8050006D0122200F008F820
:1036CC0000F0DFF82872CDE731BD04460A2073E61E
:1036DC000221FBE6002203213FE000B583B00FF28C
:1036EC004903019306230093032300F04DF80EBD0C
:1036FC001078802802BF508840F27F61884208D140
:10370C009088984202BF91790098814201D10120A2
:10371C0070470020704710B582B00624FFE7009474
:10372C00FFF7E6FF16BD00000323F4E710788028AE
:10373C0002BF508840F27F6188420CD190880328E8
:10374C0018BF042807D1907900281CBF1028112815
:10375C0001D10120704700207047F8B500F006FA3F
:10376C0007000CD032462946FFF7B0FEBC60FFF7CD
:10377C0073FE3946BDE8F840DFF8A422CDE60420FC
:10378C00F2BD0000DC0800202DE9F04100F031F81A
:10379C0007000AD0069A4146FFF798FE3C817D81CE
:1037AC00FFF734FF079A00F008BA69E7022300F02C
:1037BC00FFB82DE9F04100F075F807000FD0062294
:1037CC0000F015F83C81BE72FD6000F017FA00F0B5
:1037DC00E2F83946BDE8F0410FF261329DE64FE761
:1037EC000A23E5E03423E3E01223E1E0424603211F
:1037FC0062E604460D46164698461020FFF7DCBDDF
:10380C002DE9F04180460D4616461F461820FFF75D
:10381C00D3FD040014D0002200F041F800F0EEF9C2
:10382C0020726572A672E760069820610798606145
:10383C00FFF712FE2146BDE8F0410FF269226CE65B
:10384C001EE70FF26523092202E00FF26123112219
:10385C000021EFE0F8B500F0A5F807000FD00A2220
:10386C0000F01DF800F00DF838727D813E73FFF703
:10387C00F3FD3946BDE8F8400FF235224DE6042041
:10388C00F2BD21465020FFF7F5BD0FF2292304228B
:10389C00DEE70FF225230522FFE70021DBE0042100
:1038AC00FFF70ABE04460D46164698461420FFF74D
:1038BC0083BD70B500F014F806000BD03022FFF772
:1038CC00EEFF00F009F83146BDE870400FF2ED1242
:1038DC00FFF723BE042070BD34817581FFF7BCBD9A
:1038EC0004460D460C20FFF767BD0A20FFF764BDA8
:1038FC007CB5044600208DF804000D460C20FFF723
:10390C005BFD06000ED01122FFF7B5FE3481B572B7
:10391C00FFF7A2FD01A9009101230FF2A512314678
:10392C00FFF71BFE9DF8040076BD1CB500208DF83A
:10393C00040000F012F804000CD01222FFF79BFEDA
:10394C00FFF78AFD01A9009101230FF27D12214698
:10395C00FFF703FE9DF8040016BD0820FFF72CBDF1
:10396C00F8B500F012F807000DD03622FFF797FFDC
:10397C003C817D81FFF74AFE3946BDE8F8400FF2E5
:10398C005912FFF7CABD0420F2BD04460D46164677
:10399C001020FFF711BD3874FFF75EBD04460C20F4
:1039AC00FFF70ABD04460D4616460E20FFF704BD70
:1039BC002DE9F041FFF776FF07000FD0FFF716FF58
:1039CC003C81FD60314600F01AF9FFF7E4FF3946FF
:1039DC00BDE8F0410FF20512FFF79FBDFFF750BE97
:1039EC0038B514460F4A15682A0006D000930246D3
:1039FC000B4621460120A84732BD002032BD0A4AA1
:103A0C0013681A0003D00A46014601201847704774
:103A1C00500900204D3B0000533B0000593B000077
:103A2C0039370000B42E0020B82E002004460D4675
:103A3C00164670472DE9F041FFF7DBFE070004D076
:103A4C0000F005F8BC60FD60B4E0FFF719BE32462B
:103A5C000421FFF731BD2DE9F041FFF7CAFE070045
:103A6C0006D0FFF7F4FFFFF70CFF3872FD60A1E002
:103A7C00FFF706BE1078802802BF508840F27F61A5
:103A8C0088420CD190884FF680710140B1F57E4F81
:103A9C0004BF00F07F00984201D101207047002044
:103AAC00704700000023E5E70923E3E71123E1E772
:103ABC000A23DFE70423DDE70523DBE73023D9E71F
:103ACC0080B5112302E0000080B51223009301237E
:103ADC00FFF70EFE02BD00003623CBE710788028DE
:103AEC0002BF508840F27F6188420DD190884FF61A
:103AFC00807101404FF68052914205D100F07F0059
:103B0C00012801DB012070470020704710788028C5
:103B1C0002BF508840F27F6188420DD190884FF6E9
:103B2C00807101404FF68052914204BF00F07F003B
:103B3C00984201D101207047002070470623E5E729
:103B4C0080B51323C2E780B51423BFE780B51123DA
:103B5C0000930223BCE700F00FF802BD80B50FF212
:103B6C00850100F043F841F20540F4E704460D46A8
:103B7C0016460C20FFF720BC2DE9F041FFF756FF4D
:103B8C0098460E20FFF718FC070009D000F00AF841
:103B9C003D817E81A7F80C80FFF75EFC069A0CE055
:103BAC00FFF76EBD812038700120F870BC80704723
:103BBC003D81FE60FFF750FC42463946BDE8F041BE
:103BCC00FFF7ABBC1078802802BF508840F27F61B1
:103BDC00884204BF9088984201D101207047002090
:103BEC007047000041F20543ECE700000091002310
:103BFC000146002270473C817D81BE8141465020A8
:103C0C00FFF738BCF8B5FFF7C0FE07000DD0012256
:103C1C0000F022F83C727D72FFF7F8FC3946BDE8E3
:103C2C00F8400FF26D02FFF778BC0420F2BDF8B536
:103C3C00FFF7ABFE07000DD0022200F00DF83C722E
:103C4C007D72FFF7E3FC3946BDE8F8400FF2450200
:103C5C00FFF763BC0420F2BD0521FFF72DBC1078E3
:103C6C00802802BF508840F27F6188420DD1908835
:103C7C004FF6807101404FF68062914204BF00F014
:103C8C007F00984201D1012070470020704700004E
:103C9C000123E4E70223E2E71CB500200190FFF7C3
:103CAC005CFE04000CD00522FFF7D6FFFFF7D4FB17
:103CBC0001A9009104230FF20D022146FFF74DFCE0
:103CCC00019816BD0523CAE70300002013F0030F6B
:103CDC0009D0521E22BF13F8010B11F801CBB0EB27
:103CEC000C00F3D07047121F22BF53F8040B51F88D
:103CFC0004CB6045F7D0121D0AD200BA9CFA8CFC9A
:103D0C00B0EB0C0038BF6FF0000088BF012070478B
:103D1C00521E22BF13F8010B11F801CBB0EB0C00B3
:103D2C00F6D0521C08BF10467047000062B38B07D8
:103D3C0008D0521E11F8013B00F8013B00F0248022
:103D4C008B07F6D1830740F0208000BF103A07D3D1
:103D5C0030B4B1E83810103AA0E83810F9D230BCC1
:103D6C00530724BFB1E80810A0E8081044BF51F86D
:103D7C00043B40F8043BD20724BF31F8022B20F857
:103D8C00022B44BF0B7803707047083A07D3B1E895
:103D9C000810083A40F8043B40F804CBF7D253071C
:103DAC00E4E70000DFF800F0CDA00110DFF800F030
:103DBC00C1C10110DFF800F03DC10110DFF800F0C7
:103DCC0029AF0110DFF800F009B7011090FAA0F04C
:103DDC00B0FA80F07047DFF89414C5E180B5DFF8D5
:103DEC0090040068FFF7F2FF0121DFF8882481407E
:103DFC0011600121DFF880241160DFF880140A685B
:103E0C0090420BD201EB80014A683AB11368190059
:103E1C0004D0C1B21046BDE80440184701BDF8B546
:103E2C000D00ECB244BF85F0204585F4C045A100DF
:103E3C0001F1804101F5012100EA05060A68DFF86D
:103E4C0040743E4085EA020382433243034000F44F
:103E5C00E0261B0EB6F5E02F03F0010302D1D301CF
:103E6C0005D411E010F4E02F08BF002B0CD002F4A5
:103E7C00E023B3F5A02F04D0B3F5C02F04D1052354
:103E8C0000E0062363F312420A60410205D5A90D36
:103E9C00DFF8F02301F00101115500020ED5FDF7FA
:103EAC0045FE00F067F92C024CBF1C4600249A43D7
:103EBC0022430A60BDE8F240FDF73CBEF1BD00298B
:103ECC0048BF0021800000F1804000F5012001F086
:103EDC003F010268920941EA8211016070472DE9A5
:103EEC00F04F97B08146FEF723F90025012804D145
:103EFC00FEF714F9022808BF0125DFF88C03C1680E
:103F0C00C1F3815101294FF0010A04D10068000E60
:103F1C000AFA00F00543DFF87403DFF860630078F9
:103F2C00DFF86C030068C0F346003060FEF700F960
:103F3C00012802D13068401C30603168DFF85473BE
:103F4C0019B1FF22384600F023FD4FF00008002481
:103F5C0005E0CC550AFA00F040EA0808641C59F850
:103F6C002400C1B2FF2908D03268914203D225FA4D
:103F7C0000F2D207EDD5022058E00920FCF712FD23
:103F8C00C6F880900823242200210DA8FFF70EFF0D
:103F9C008DF84CA00DAA012106F1A000FFF712FF2D
:103FAC000024DFF8F4A20BE05046FFF738FF4FF087
:103FBC00FF31E0B2FFF783FF0020CBF80400641C54
:103FCC003068844212D225FA04F0C00706EB840B49
:103FDC0048BF0420F1D428FA04F0C00747BFE05DC5
:103FEC0059F82010E0B240F4C041DDE7082330223C
:103FFC00002101A8FFF7DEFE0020009001ABDFF8E6
:10400C009C22102106F18400FFF7D8FEDFF8900205
:10401C00016821F47C5141F4005101600120DFF86A
:10402C0084120860DFF880120860002017B0BDE829
:10403C00F08F2DE9F041DFF8446204460D4606F19D
:10404C00A00800F05AF800273DB9002020606060FD
:10405C00A06000271DB31EE07F1C15F82700FF2869
:10406C00F3D03168884204D206EB80004068002807
:10407C00F2D0002413E006EB800101224C6002FA1E
:10408C0000F0616808436060204655F8272082499B
:10409C0000F0ACF87F1C15F82700FF28EBD1404648
:1040AC00FEF7C6F82046BDE8F0812DE9F041050089
:1040BC000E46F7B203D0714C2068874201D3022020
:1040CC0019E004F1A00800F018F804EB870041682F
:1040DC0009B101250BE0456001216868B94008432E
:1040EC00686032466C49284600F080F8002540464E
:1040FC00FEF79EF82846BDE8F0814FF0FF314046B0
:10410C00FFF750BE10B50C46F0B1416821FA04F22D
:10411C00D20719D50122A240914341600020574992
:10412C0001EB840250605B48225C5B48FF2A0EBFA7
:10413C0044F02041D1F8801051F82210FFF76FFEA7
:10414C004FF0FF3120468DE0022010BD10B5044623
:10415C0005E0FFF73BFEC1B22046FFF7D3FF6068D6
:10416C000028F6D110BD5149096821FA00F202F07D
:10417C00010070474E490A680123A340704710B5EF
:10418C003E4B1C68A14204D203EB81035B68834263
:10419C0001D0022010BD10003A4A18BF0120505423
:1041AC00002010BD10B5354B1C68CAB2A24204D217
:1041BC0003EB82025268824201D0022010BD0A46F3
:1041CC004FF4E02100F012F8002010BD10B1016096
:1041DC00002070470220704780B500F01BF880F07B
:1041EC00005080F4C04040F0004002BD38B5234C74
:1041FC0025680B461146CAB2AA4204D204EB8202CD
:10420C005268824201D0022032BD1846FFF707FEE9
:10421C00002032BD38B504462648194950F8240010
:10422C00084044EA00052046FFF7D5FD08B145F4E7
:10423C0080051F48006820FA04F1C80748BF45F400
:10424C000005284632BD0B4610B511460B4A1468C2
:10425C00A34204D202EB83025268824201D00220B4
:10426C0010BD1846FFF72BFE002010BD8020024029
:10427C00E0200240E020026080E200E0B02C002050
:10428C00007F077F00200240A83F0050C72E00206F
:10429C0080120840302E0020007FC767E93D0000E7
:1042AC00003009400C40094008000940C020024081
:1042BC00D020024000100840DFF800F06DA901107A
:1042CC00C068000900F0010070474FF0FF31016039
:1042DC00DFF80C1341600021017270472DE9F043A7
:1042EC00DFF8F892D9F80050D9F8047099B0044668
:1042FC0088461646FDF71AFC2988012902D1FDF7DC
:10430C0019FC0DE001212980FDF714FC1EB904A84D
:10431C00FFF7DBFF04AE002C18BFB8F1000F01D182
:10432C0000205BE010A800F05BFB7068149010A9F3
:10433C00307A8DF85800F87900F048FB00284DD001
:10434C00686008233068A860AC6285F82C80242251
:10435C00002107A8FFF72AFD002608E0242000FB17
:10436C00064007AA01210830FFF72CFD761CF6B297
:10437C004645F3D301208DF8340007AA012105F13D
:10438C000C00FFF71FFD3979DFF85802DFF84842BF
:10439C000143009100A9BA7910434860DFF8482224
:1043AC00787910438860FF20C860201DFFF741FE1C
:1043BC00206098B1DFF83412DFF834020968B0FBE2
:1043CC00F1F0FFF779FF797920680122FFF7D7FE2A
:1043DC0039681122484600F0CAF8484619B0BDE8C1
:1043EC00F0832DE9F84F90B081461B9800F0070040
:1043FC008DF808008B46D9F8008098F82C0083457E
:10440C00174659D208F1080508F10C002968FFF786
:10441C00C9FC002850D0286A1A9C242101FB0B00EF
:10442C00002C00F1080A2FD032220021384600F06F
:10443C00EFFA00280EBF3226C61BF6B2202232211C
:10444C0003A800F0A5FA3246394603A8FFF76EFC24
:10445C001098214600F011FB8019801C162827DAD1
:10446C0003A83018811C1098224600F016FB00F0AF
:10447C009DF9E8B100F023F800F028F803AA59469A
:10448C00484600F043F90BE000F090F980B100F0E1
:10449C0016F800F01BF83A465946484600F036F933
:1044AC0000225946484600F0E0F85046FDF7C0FEA1
:1044BC0008F10C00FDF7BCFE11B0BDE8F08F9DF8C3
:1044CC00082000235946484600F002B9002001900C
:1044DC0000239DF8080000907047026892F82C2089
:1044EC0091423CBF012200F0C0B87047006890F8C0
:1044FC002C20914200D3704770B508302423026AF7
:10450C0059438B188D5801685C6803F108063046D6
:10451C00FFF748FC48B11CB12146284600F0E0FAF0
:10452C003046BDE87040FDF783BE70BD036893F85C
:10453C002C3099423CBF012300F0CAB870471CB51F
:10454C0000F00BF803D200F003F800F0DFF813BD15
:10455C0001240194049C00947047046894F82C4046
:10456C00A14270474846BDE8F243FDF761BE2DE914
:10457C00F84300F027F800F03FF800F03BF800F0AB
:10458C001DF8074600F03BF80028FBD107B13BE0D3
:10459C00BDE8F1832DE9F84300F014F80122FFF790
:1045AC00EEFD00F027F800F009F8074600F027F8B8
:1045BC000028FBD107B127E0BDE8F1834A4641460C
:1045CC00384642E00746044E7D683C6830688846B1
:1045DC009146297970470000882E0020E462000083
:1045EC0040420F000000C080000080807465000015
:1045FC00A0860100A97930680022FFF7C0BD606871
:10460C0080680068FFF75CBEA9793068BDE8F843A4
:10461C000122FFF7B4BD38B50FF29814256800AB32
:10462C0001F00F041D609DF80030D2188DF80020A9
:10463C0000AA9378E3189370537803EB111151701F
:10464C00032200A9FFF793FF31BD00B585B000230D
:10465C00039300920293019100A90068406800F056
:10466C00C4F900B1012005B000BD2DE9F843814625
:10467C001500D9F800600F4605D0B16806F10C00A2
:10468C00FFF790FB10B3B06A242179430F58081838
:10469C0000F1080825B1B1684046FFF783FB90B1E3
:1046AC000024224600214846FFF7B5FF802207EB85
:1046BC00C4114846FFF76EFF641C082CF1DB2DB1CA
:1046CC004046FDF7B5FD06F10C004CE7BDE8F18363
:1046DC00F8B51446006824225143826A8E58891812
:1046EC001D4601F1080725B181683846FFF75AFBD2
:1046FC0030B1802106EBC41000F0F2F905B100E0F6
:10470C00F1BD3846BDE8F240FDF792BD2DE9F84FFA
:10471C00064615460C461F46284600F0A5F980466D
:10472C000A9807EBC0101FFA80FA3068826A2421BD
:10473C0061438E580B9C891801F108091CB18168E2
:10474C0000F02DF830B300270FF26C0B12E0213A79
:10475C0002EB820292B2002303EB020C03EB010E7C
:10476C001CF80BC00EF806C05B1C052BF4DB0021FB
:10477C0041717F1C47450ADA062000FB07A17A5DD0
:10478C008819202AE3D1062100F0AAF9F1E70CB12F
:10479C00484607E0BDE8F18F01F108090168484679
:1047AC00FFF700BBBDE8F24FFDF742BD296850464C
:1047BC00FFF7F8BAB010000000005F00000007001F
:1047CC000700147F147F14242A7F2A1223130864F1
:1047DC006236495522500005030000001C2241009E
:1047EC000041221C00082A1C2A0808083E08080060
:1047FC005030000008080808080060600000201015
:10480C000804023E5149453E00427F40004261513E
:10481C0049462141454B311814127F102745454517
:10482C00393C4A4949300171090503364949493631
:10483C00064949291E003636000000563600000095
:10484C0008142241141414141441221408000201F7
:10485C00510906324979413E7E1111117E7F494939
:10486C0049363E414141227F4141221C7F49494901
:10487C00417F090901013E414151327F0808087FFF
:10488C0000417F41002040413F017F081422417FBD
:10489C00404040407F0204027F7F0408107F3E416D
:1048AC0041413E7F090909063E4151215E7F0919AC
:1048BC002946464949493101017F01013F404040A9
:1048CC003F1F2040201F7F2018207F631408146393
:1048DC000304780403615149454300007F414102C0
:1048EC000408102041417F000004020102044040F2
:1048FC00404040000102040020545454787F484446
:10490C0044383844444420384444487F3854545440
:10491C0018087E090102081454543C7F08040478DA
:10492C0000447D40002040443D00007F102844009E
:10493C00417F40007C041804787C080404783844D7
:10494C004444387C14141408081414187C7C08048F
:10495C0004084854545420043F4440203C40402018
:10496C007C1C2040201C3C4030403C4428102844F7
:10497C000C5050503C4464544C44000836410000E8
:10498C00007F00000041360800003E1C08000000BB
:10499C0062F30F2262F31F4200B500BF130096466C
:1049AC009446103928BFA0E80C50FAD85FEA417C35
:1049BC0028BF0CC048BF40F8042BC90728BF20F8FB
:1049CC00022B48BF00F8012B00BD0000034A0C234A
:1049DC0003FB00200268D26810470000A4620000AC
:1049EC000FF20C012022FFF7B1B9026812691047CF
:1049FC0000000000FFFFFFFF0000000000000000AF
:104A0C0040420F0008000000000000000000000001
:104A1C00C9B2830706D0521E22D310F8013B99422B
:104A2C00F7D11FE0083A13D302F1040241EA012145
:104A3C0041EA014150F8043B121F21BF4B40A3F146
:104A4C00013C2CEA030C1CF0803FF3D0C9B2001FD0
:104A5C00083210F8013B521E28BF91EA030FF8D818
:104A6C0018BF0120401E7047002100E0491CC9B24C
:104A7C000A5C002AFAD1084670470022002801D1AE
:104A8C000120704705D54042012202E090FBF1F075
:104A9C00521C0128FADAD0B2704770B588B000AB5E
:104AAC000024B0FBF2F502FB1500C0B20A28B4BF1B
:104ABC003026372630181870280004D0641C5B1C74
:104ACC00E4B2202CEDDB0020401C13F8012901F886
:104ADC00012BC0B28442F7D20020087008B070BD20
:104AEC00002200F001B80000401810F0030308D0B9
:104AFC00C91A1FD3DB0748BF00F8012D28BF20F8C7
:104B0C00022D130030B414461546103928BF20E985
:104B1C003C00FAD8490728BF20E90C0048BF40F8F0
:104B2C00042D890028BF20F8022D48BF00F8012D64
:104B3C0030BC7047C91818BF00F8012DCB0728BF2F
:104B4C0000F8012D70470000DFF800F0ADB5011042
:104B5C00DFF800F019AE0110DFF800F0E5C101102C
:104B6C00DFF800F085C20110DFF800F081C20110FF
:104B7C00DFF800F055C10110DFF800F043C201105E
:104B8C00DFF800F079AB0110DFF800F0D9B60110B6
:104B9C00DFF800F0EDB3011020B108232C22002126
:104BAC00FCF7B8BB704720B108233C220021FDF76D
:104BBC0037BB704780B5FBF713FDADF80000FCF771
:104BCC00B5FFADF80200009802BD01B5BDF80200BA
:104BDC00FCF7B0FFBDF80000BDE80240FBF704BDD8
:104BEC0038B5DFF86448DFF864580020A4F8980E54
:104BFC00E82020804FF45B60A4F8E80004F1E800A2
:104C0C006860002000F003F8A8606C6031BDF8B556
:104C1C0000240025061D16F003001CBF311D0E1AC2
:104C2C00FFF7C8FFDFF82418B6B20860112EB4BF26
:104C3C004F688F6839880B0403D581F40041002537
:104C4C0019E0A5B123883A88134423809BB2B34260
:104C5C0011D327461946B7B1891B89B20429A7BFBE
:104C6C00F15346F40041398841F4004109E0B14266
:104C7C00F1DA01253C46CF1939880029DBD1002710
:104C8C0001E027F8041BFFF7A0FF3846F2BD10B572
:104C9C000446FFF78FFFDFF8B417221F0860138854
:104CAC005B045B0C13804B689A4238BF4A60BDE8CA
:104CBC0010408AE738B50446FFF77CFF00210C232F
:104CCC00DFF88C2703FB0125AA6C4AB1944204D16E
:104CDC00FFF77BFF05F1480032BD491C0329EFD3D8
:104CEC00FFF773FF002032BD70B50546FFF762FF7A
:104CFC00044600200C22DFF8581702FB001101F1CA
:104D0C004806316849B90020B06035600022FFF7D1
:104D1C001BFF706018B900F069FC8D4204D120466D
:104D2C00FFF753FF304670BD401C0328E3D32046E9
:104D3C00FFF74BFF002070BD38B50446FFF73AFF74
:104D4C000025DFF80C170C2202FB0512128842B169
:104D5C00944203D1FFF739FFA8B232BD6D1C062D6A
:104D6C00F1D3FFF732FFFF2032BD10B50446208887
:104D7C00FFF7E2FFFF2800D169E1DFF8D4160C221F
:104D8C0002FB00108168080002D16FF0010010BD19
:104D9C002046BDE81040084702460FF2A0701047AD
:104DAC0010B500200C21DFF8A826002401FB0023FD
:104DBC00401C03289C641C65F8D30020034601FBAF
:104DCC000024401C06282380F9D3082010800FF201
:104DDC0055709060BDE8104002E770B590B0FBF7DD
:104DEC00FFFB044600A8FFF7DEFE0520069000221C
:104DFC004FF44870089000A94CF201000490DFF8C1
:104E0C0054060590DFF85006FFF7A2FE050006D009
:104E1C00FFF7D0FE06462846FFF766FF08B900F0FC
:104E2C00E5FB3046FFF7D1FE2046FBF7DDFB10B06B
:104E3C0070BD70B500F0E4F8FFF756FF0546FFF7BC
:104E4C00B9FEA2880021DFF808360C2606FB0133D8
:104E5C001E883EB91A805D60A2689A60A18169685B
:104E6C00216165E7B24204D1FFF7AFFE6FF002009B
:104E7C0070BD491C0629E6D300F0B8FB00BF38B55D
:104E8C0000F0BEF8FFF730FF050016D0FFF792FEDA
:104E9C000021DFF8BC250C2303FB012213884BB93E
:104EAC004FF6F8731380556000239360A1806968F6
:104EBC00A16015E7491C0629EBD300F097FB00BF56
:104ECC0010B5044660680C3080B2FFF7A0FE00B944
:104EDC001AE06168018100210160FF2181720C30B0
:104EEC00A060002010BD80B540680C3811E080B285
:104EFC008DE610B50446606880B2FFF788FEA060AE
:104F0C0000B901E0002010BD6FF0030010BD80B5AA
:104F1C004068FFF7BCFE002002BD38B504460D46C4
:104F2C00FFF748FE002145F80C1C216811B92560DB
:104F3C0006E0114651F80C2C002AFAD141F80C5C11
:104F4C00BDE8324041E62DE9F04104466FF002061F
:104F5C00E068A0F10C05E0880628BCBFA0880628F4
:104F6C000BDAFFF727FEE188DFF8E4840C2707FB58
:104F7C000181496819B9FFF728FE304617E0FFF7A1
:104F8C0024FEA0882871E0886871207AA871E088D6
:104F9C00E16807FB008040680830FFF7BEFFE0883F
:104FAC0007FB008040684068FDF742F90020BDE82F
:104FBC00F08170B500F024F8FFF77CFE10B96FF0AB
:104FCC00040070BD00F10806FFF7F4FD3168002500
:104FDC0041B10D46A5F10C010A68326000220A604D
:104FEC00FF228A72FFF7F1FDA560A5F10C010DB946
:104FFC00022070BD0879A0804879E080002070BD47
:10500C000446FFF7A9BD06280BDADFF844240C236D
:10501C0003FB0020008800281CBF4FF6F87290425A
:10502C0002D14FF0FF307047088000207047811D7F
:10503C008088E8E710B50446E088FFF77DFEFF287E
:10504C0000D104E0E0802046BDE810407BE74FF043
:10505C00FF3010BD3EB50446FFF7ABFF050017D17E
:10506C00A08800A9FFF7CFFF78B1A06802900821B3
:10507C00ADF8041001A80321ADF80610DFF8DC131D
:10508C00896888476FF005003EBDBDF80000A08020
:10509C0028463EBD10B5DFF8C82312680C464FF405
:1050AC007A71A1FB00010023FCF7AEFF002902D8A6
:1050BC00B0F1004F02D36FF0020010BD2060002051
:1050CC0010BD38B5FFF79CFFFFF7F4FD0546FBF765
:1050DC00C7FA002818BF012800D015B96FF00400DA
:1050EC0032BD606840B9009000996868FEF75AFEBE
:1050FC00401E8041C00F32BD10F1010F08BF4FF0B0
:10510C00FF30F0D000F050F90028EDD032BD80B562
:10511C004068FDF78DF8002002BD00F067FA00BF73
:10512C0080B54068FFF71CFD002002BD80B54068CB
:10513C00FFF71AFD002002BD80B5FFF719FDFFF740
:10514C001BFD002002BD80B5FBF74AFAFCF7EEFC14
:10515C00002002BD10B58CB0044600A8FFF71CFD62
:10516C00E02000F013F808B900F040FA0BE010B59D
:10517C008CB0044600A8FFF70FFDE06800F006F8BD
:10518C0008B900F033FA00200CB010BD08900023D1
:10519C00A168606800AAFFF7F3BC10B50446FFF7DE
:1051AC00F3FC6060002010BD014688684968084720
:1051BC00F0B507468BB0BC68A84D6CBB0C20FFF754
:1051CC0026FD04006FF003061ED0082324220021C4
:1051DC0001A8FDF7F9FD0020ADF814000690079426
:1051EC00002379689F4801AAFFF7D2FC206068B9B8
:1051FC000820ADF800000C20ADF8020000A8A9684A
:10520C0088472046FFF743FD304618E0F868606099
:10521C003869A060BC600AE02868804706462068B0
:10522C00FBF7E6F93869A060304669688847796809
:10523C002068FBF7E1F92068FBF7E2F900200BB0DE
:10524C00F0BD10B5044682B0606800F0ADF820B92E
:10525C00009860602046FFF7ABFF16BD80B5406834
:10526C0010B96FF0020002BD0068FBF7C1F9002015
:10527C0002BD7B49096841600020704750B5044667
:10528C00774802686FF00046A6FB020100234FF43A
:10529C007A72FCF7B9FE002902D8B0F1004F00D3A6
:1052AC0030466060002050BD2DE9F04186B00646C6
:1052BC00FFF752FCFFF7FEFC04460020029000258D
:1052CC00FBF7CEF9002818BF012800D014B96FF0F5
:1052DC00040066E0706820B110F1010F03D14FF0AB
:1052EC00FF30009004E000F05FF85FEA000857D14F
:1052FC00FFF74AFC00994FF001080F1800E00090EE
:10530C0000996068FEF74EFD80B303A8FFF751FECD
:10531C005FEA00081AD1BDF8100001A9FFF773FE6F
:10532C0080B9059ABDF81210BDF80400B36898470F
:10533C0040B1BDF80400B081BDF81200F0810598B1
:10534C00306113E0059902A8FFF7E7FD00986D1C8A
:10535C0010F1010F18BF00284FF00108D0D0FFF753
:10536C0013FC381A02D000998142C8D2029EFFF772
:10537C0021FC04F1080756B1314600E0114651F802
:10538C000C2C002AFAD13A6841F80C2C3E60FFF73D
:10539C001CFC002D03E06068FCF74AFF6D1EFAD17F
:1053AC00404606B0BDE8F08100A973E6F8B5FFF7FA
:1053BC0027FE0546FBF754F9002818BF01286FF0AB
:1053CC00040613D0FFF7F6FB0021214A0C234B43B4
:1053DC009F5A4FB19B185B681B68AB4201D1A180EF
:1053EC0042E0491C0629F1D3FFF7EFFB3046F2BD32
:1053FC00F8B50446FBF734F9002818BF012802D190
:10540C006FF00400F2BDFFF7A7FB0546FFF7D2FBD8
:10541C00A7880F4A00210C234B439E5A6EB1BE4203
:10542C0008D1991849680968A9420CBF01210021CB
:10543C00A16019E0491C0629EDD3FFF7C6FB4FF01C
:10544C00FF30F2BD0000000054090020982E00200F
:10545C00F017002084080020A54D0000D40800207F
:10546C0074650000B5510000FFF7AFFB0020F2BDE2
:10547C0070B504463C20FFF7CAFB05006FF003062D
:10548C0011D0FFF790FB207AA86100226089286276
:10549C002946E06828616068FFF75AFB04462846F5
:1054AC00FFF7F5FB0CB9304670BD002070BD70B530
:1054BC0004462420FFF7ABFB05006FF0030613D066
:1054CC00082324220021FEF771FC2079012808BF53
:1054DC002876A06800222946FFF736FBE0602846B4
:1054EC00FFF7D5FBE06808B9304670BD002070BDF1
:1054FC0010B5044682B0A06840B90090009960686D
:10550C00FEF750FC401E8041C00F16BD10F1010F7C
:10551C0008BF4FF0FF30F0D0FFF746FF0028EDD06A
:10552C0016BD00004188292902D36FF00100704795
:10553C000FF2140252F8211008470000774D0000BA
:10554C00C14B0000D74B00003F4E00008B4E0000BB
:10555C00CD4E0000F34E0000FF4E00001B4F00002C
:10556C00534F0000BF4F000041500000615000003D
:10557C00CF5000001B510000275100002D5100009E
:10558C003951000045510000535100006151000099
:10559C00A75100004F5200007F52000089520000BA
:1055AC003B500000D55E00009D5F0000B55200002E
:1055BC00B9530000BD51000069520000375F000074
:1055CC006F5F0000835F0000FD530000D55F00009B
:1055DC00F15F00007D540000BB540000FD5400003E
:1055EC00E75F0000FF5F00007B510000012000F02E
:1055FC0001B800002021090326311820ABBEF9E7C1
:10560C00DFF800F061C20110DFF800F0E1C2011018
:10561C00DFF800F0F9BF011040680068D0F804050D
:10562C00084018BF0120C0B2704740680068C0F83D
:10563C000415704750F8041F21F0020101607047F7
:10564C0050F8142F03E00162704750F8242F22EA1F
:10565C0001010160704770B50446FCF767FADFF88A
:10566C00B4660546307850B114F0704F04BF10206A
:10567C00FBF70CF90420FBF709F9002030702846E1
:10568C00BDE87040FCF756BA38B545688468E86EDA
:10569C0000F0A6FBA86EFEF759FD2068FFF7CAFFC5
:1056AC0005F11C00FFF7ACFF6079FBF70FF92878C8
:1056BC0018B905F13800FFF7A7FF05F19000FBF7CB
:1056CC00E5FAFCF733FA002185F8A410BDE8324066
:1056DC00FCF730BA2DE9F041476886682029154659
:1056EC004FF0FF3807F1680404D02BD322290BD0DC
:1056FC0006D327E0387B012818BF002020721EE05B
:10570C000020207280461FE0287840F0004120687D
:10571C0041F40051FEF7C9FCB0B930682978B0F1FA
:10572C00804F20680CBF0B222322FEF78CFD97F8CC
:10573C0059102068FEF7E6FC287887F859004FF0DE
:10574C00000801E06FF001084046BDE8F0812DE94A
:10575C00F041D0F804C080680B880468DFF8B855B5
:10576C00DFF8B8858E680CF15802B4F1804F92F8CE
:10577C0000E00FF20C6403FA0EF39BB20CBF474629
:10578C002F4646B10FF2F05C5CF82EC0C7F808C08B
:10579C009E19761E04E054F82E60BE600CF1720661
:1057AC007E6043F6F07C066808363E60D7F808E069
:1057BC000E88761E0CEA061646EA0E06BE600768D0
:1057CC00B7F1804F0CBF08F11005103592F800802E
:1057DC004F683FB10FF2985454F82840AC60DB1975
:1057EC005B1E03E054F82830AB60831D2B6003680C
:1057FC0008336B60AB680988491E0CEA0111194328
:10580C00A960526952688168C36812681943916231
:10581C00006850F8241F41F003010160BDE8F081DD
:10582C00F8B50446A66830686568C7693946FFF75D
:10583C000AFFF8071ED530680121FFF701FF686DDC
:10584C0018B12046BDE8F2402BE13068FFF7F2FEBC
:10585C0030680321FFF7F9FE00F07BF900F073F9D3
:10586C000CBF4FF4807040F2011088472046BDE811
:10587C00F24092E1F168E86EFFF7CEFE30B130688D
:10588C000221FFF7E2FEF16800F066F9B168E86EFC
:10589C00FFF7C2FEA0B130680121FFF7D6FEB16858
:1058AC0000F05AF96E6D002030747068FFF7D3FE6B
:1058BC00002068653146AA682046BDE8F8401047CC
:1058CC00F1BD70474068002180F8A4100020DFF87B
:1058DC00441408707047F0B5044695B06568A66826
:1058EC000F46FCF723F995F8A410B1BB012185F8FC
:1058FC00A410FCF71FF91FB90DA8FFF771F80DAF35
:10590C00002068653869286178696861387E287676
:10591C00387B28733878287078686860002085F8A0
:10592C007000786909288041C043C00F85F8580081
:10593C007079FBF737F8204600F02FF9F07C85F8EA
:10594C005900204600F051F958B97079FAF7BEFFAA
:10595C00FCF7ECF8002185F8A410FCF7EBF800201C
:10596C003FE008233022002101A8FEF723FA002093
:10597C000694009001AB3179DFF8A42305F11C00EB
:10598C00FEF71CFA287888B908232422002101A8E4
:10599C00FEF70CFA01208DF81C0001AA002105F17C
:1059AC003800FEF70FFA0FF2B51000E0B868A860E7
:1059BC0000F0EFF9E866287B012807D1A86E0FF2FA
:1059CC00A511FEF703FCA86E00B1846000200090C6
:1059DC0023460FF27132042105F19000FAF7CDFF46
:1059EC00204615B0F0BD2DE9F0410E460446306856
:1059FC006568A768002852D0FCF798F8696D21B14A
:105A0C00FCF798F80320307446E0012131746E6580
:105A1C00FCF790F895F8700030B195F85900C14931
:105A2C000143A86EFEF7BEFB3868DFF8E88250F839
:105A3C00041F41F00201016020463146FFF787FE4A
:105A4C00386850F8141F41F0010101607668FCF7CA
